{
  "address": "0x32db5ec098453B3e4f9b48D31a0e4f65d011b7c5",
  "abi": [
    {
      "inputs": [
        {
          "internalType": "contract ENS",
          "name": "_ens",
          "type": "address"
        },
        {
          "internalType": "bytes32",
          "name": "_baseNode",
          "type": "bytes32"
        }
      ],
      "stateMutability": "nonpayable",
      "type": "constructor"
    },
    {
      "anonymous": false,
      "inputs": [
        {
          "indexed": true,
          "internalType": "address",
          "name": "owner",
          "type": "address"
        },
        {
          "indexed": true,
          "internalType": "address",
          "name": "approved",
          "type": "address"
        },
        {
          "indexed": true,
          "internalType": "uint256",
          "name": "tokenId",
          "type": "uint256"
        }
      ],
      "name": "Approval",
      "type": "event"
    },
    {
      "anonymous": false,
      "inputs": [
        {
          "indexed": true,
          "internalType": "address",
          "name": "owner",
          "type": "address"
        },
        {
          "indexed": true,
          "internalType": "address",
          "name": "operator",
          "type": "address"
        },
        {
          "indexed": false,
          "internalType": "bool",
          "name": "approved",
          "type": "bool"
        }
      ],
      "name": "ApprovalForAll",
      "type": "event"
    },
    {
      "anonymous": false,
      "inputs": [
        {
          "indexed": true,
          "internalType": "address",
          "name": "controller",
          "type": "address"
        }
      ],
      "name": "ControllerAdded",
      "type": "event"
    },
    {
      "anonymous": false,
      "inputs": [
        {
          "indexed": true,
          "internalType": "address",
          "name": "controller",
          "type": "address"
        }
      ],
      "name": "ControllerRemoved",
      "type": "event"
    },
    {
      "anonymous": false,
      "inputs": [
        {
          "indexed": true,
          "internalType": "uint256",
          "name": "id",
          "type": "uint256"
        },
        {
          "indexed": true,
          "internalType": "address",
          "name": "owner",
          "type": "address"
        }
      ],
      "name": "NameRegistered",
      "type": "event"
    },
    {
      "anonymous": false,
      "inputs": [
        {
          "indexed": true,
          "internalType": "address",
          "name": "previousOwner",
          "type": "address"
        },
        {
          "indexed": true,
          "internalType": "address",
          "name": "newOwner",
          "type": "address"
        }
      ],
      "name": "OwnershipTransferred",
      "type": "event"
    },
    {
      "anonymous": false,
      "inputs": [
        {
          "indexed": true,
          "internalType": "address",
          "name": "from",
          "type": "address"
        },
        {
          "indexed": true,
          "internalType": "address",
          "name": "to",
          "type": "address"
        },
        {
          "indexed": true,
          "internalType": "uint256",
          "name": "tokenId",
          "type": "uint256"
        }
      ],
      "name": "Transfer",
      "type": "event"
    },
    {
      "inputs": [
        {
          "internalType": "address",
          "name": "controller",
          "type": "address"
        }
      ],
      "name": "addController",
      "outputs": [],
      "stateMutability": "nonpayable",
      "type": "function"
    },
    {
      "inputs": [
        {
          "internalType": "address",
          "name": "to",
          "type": "address"
        },
        {
          "internalType": "uint256",
          "name": "tokenId",
          "type": "uint256"
        }
      ],
      "name": "approve",
      "outputs": [],
      "stateMutability": "nonpayable",
      "type": "function"
    },
    {
      "inputs": [
        {
          "internalType": "uint256",
          "name": "id",
          "type": "uint256"
        }
      ],
      "name": "available",
      "outputs": [
        {
          "internalType": "bool",
          "name": "",
          "type": "bool"
        }
      ],
      "stateMutability": "view",
      "type": "function"
    },
    {
      "inputs": [
        {
          "internalType": "address",
          "name": "owner",
          "type": "address"
        }
      ],
      "name": "balanceOf",
      "outputs": [
        {
          "internalType": "uint256",
          "name": "",
          "type": "uint256"
        }
      ],
      "stateMutability": "view",
      "type": "function"
    },
    {
      "inputs": [],
      "name": "baseNode",
      "outputs": [
        {
          "internalType": "bytes32",
          "name": "",
          "type": "bytes32"
        }
      ],
      "stateMutability": "view",
      "type": "function"
    },
    {
      "inputs": [],
      "name": "baseURI",
      "outputs": [
        {
          "internalType": "string",
          "name": "",
          "type": "string"
        }
      ],
      "stateMutability": "view",
      "type": "function"
    },
    {
      "inputs": [
        {
          "internalType": "address",
          "name": "",
          "type": "address"
        }
      ],
      "name": "controllers",
      "outputs": [
        {
          "internalType": "bool",
          "name": "",
          "type": "bool"
        }
      ],
      "stateMutability": "view",
      "type": "function"
    },
    {
      "inputs": [],
      "name": "ens",
      "outputs": [
        {
          "internalType": "contract ENS",
          "name": "",
          "type": "address"
        }
      ],
      "stateMutability": "view",
      "type": "function"
    },
    {
      "inputs": [
        {
          "internalType": "uint256",
          "name": "tokenId",
          "type": "uint256"
        }
      ],
      "name": "getApproved",
      "outputs": [
        {
          "internalType": "address",
          "name": "",
          "type": "address"
        }
      ],
      "stateMutability": "view",
      "type": "function"
    },
    {
      "inputs": [
        {
          "internalType": "address",
          "name": "owner",
          "type": "address"
        },
        {
          "internalType": "address",
          "name": "operator",
          "type": "address"
        }
      ],
      "name": "isApprovedForAll",
      "outputs": [
        {
          "internalType": "bool",
          "name": "",
          "type": "bool"
        }
      ],
      "stateMutability": "view",
      "type": "function"
    },
    {
      "inputs": [],
      "name": "name",
      "outputs": [
        {
          "internalType": "string",
          "name": "",
          "type": "string"
        }
      ],
      "stateMutability": "view",
      "type": "function"
    },
    {
      "inputs": [],
      "name": "owner",
      "outputs": [
        {
          "internalType": "address",
          "name": "",
          "type": "address"
        }
      ],
      "stateMutability": "view",
      "type": "function"
    },
    {
      "inputs": [
        {
          "internalType": "uint256",
          "name": "tokenId",
          "type": "uint256"
        }
      ],
      "name": "ownerOf",
      "outputs": [
        {
          "internalType": "address",
          "name": "",
          "type": "address"
        }
      ],
      "stateMutability": "view",
      "type": "function"
    },
    {
      "inputs": [
        {
          "internalType": "uint256",
          "name": "id",
          "type": "uint256"
        },
        {
          "internalType": "address",
          "name": "owner",
          "type": "address"
        }
      ],
      "name": "reclaim",
      "outputs": [],
      "stateMutability": "nonpayable",
      "type": "function"
    },
    {
      "inputs": [
        {
          "internalType": "uint256",
          "name": "id",
          "type": "uint256"
        },
        {
          "internalType": "address",
          "name": "owner",
          "type": "address"
        }
      ],
      "name": "register",
      "outputs": [],
      "stateMutability": "nonpayable",
      "type": "function"
    },
    {
      "inputs": [
        {
          "internalType": "uint256",
          "name": "id",
          "type": "uint256"
        },
        {
          "internalType": "address",
          "name": "owner",
          "type": "address"
        }
      ],
      "name": "registerOnly",
      "outputs": [],
      "stateMutability": "nonpayable",
      "type": "function"
    },
    {
      "inputs": [
        {
          "internalType": "address",
          "name": "controller",
          "type": "address"
        }
      ],
      "name": "removeController",
      "outputs": [],
      "stateMutability": "nonpayable",
      "type": "function"
    },
    {
      "inputs": [],
      "name": "renounceOwnership",
      "outputs": [],
      "stateMutability": "nonpayable",
      "type": "function"
    },
    {
      "inputs": [
        {
          "internalType": "address",
          "name": "from",
          "type": "address"
        },
        {
          "internalType": "address",
          "name": "to",
          "type": "address"
        },
        {
          "internalType": "uint256",
          "name": "tokenId",
          "type": "uint256"
        }
      ],
      "name": "safeTransferFrom",
      "outputs": [],
      "stateMutability": "nonpayable",
      "type": "function"
    },
    {
      "inputs": [
        {
          "internalType": "address",
          "name": "from",
          "type": "address"
        },
        {
          "internalType": "address",
          "name": "to",
          "type": "address"
        },
        {
          "internalType": "uint256",
          "name": "tokenId",
          "type": "uint256"
        },
        {
          "internalType": "bytes",
          "name": "data",
          "type": "bytes"
        }
      ],
      "name": "safeTransferFrom",
      "outputs": [],
      "stateMutability": "nonpayable",
      "type": "function"
    },
    {
      "inputs": [
        {
          "internalType": "address",
          "name": "operator",
          "type": "address"
        },
        {
          "internalType": "bool",
          "name": "approved",
          "type": "bool"
        }
      ],
      "name": "setApprovalForAll",
      "outputs": [],
      "stateMutability": "nonpayable",
      "type": "function"
    },
    {
      "inputs": [
        {
          "internalType": "string",
          "name": "_newBaseURI",
          "type": "string"
        }
      ],
      "name": "setBaseURI",
      "outputs": [],
      "stateMutability": "nonpayable",
      "type": "function"
    },
    {
      "inputs": [
        {
          "internalType": "address",
          "name": "resolver",
          "type": "address"
        }
      ],
      "name": "setResolver",
      "outputs": [],
      "stateMutability": "nonpayable",
      "type": "function"
    },
    {
      "inputs": [
        {
          "internalType": "bytes4",
          "name": "interfaceID",
          "type": "bytes4"
        }
      ],
      "name": "supportsInterface",
      "outputs": [
        {
          "internalType": "bool",
          "name": "",
          "type": "bool"
        }
      ],
      "stateMutability": "view",
      "type": "function"
    },
    {
      "inputs": [],
      "name": "symbol",
      "outputs": [
        {
          "internalType": "string",
          "name": "",
          "type": "string"
        }
      ],
      "stateMutability": "view",
      "type": "function"
    },
    {
      "inputs": [
        {
          "internalType": "uint256",
          "name": "index",
          "type": "uint256"
        }
      ],
      "name": "tokenByIndex",
      "outputs": [
        {
          "internalType": "uint256",
          "name": "",
          "type": "uint256"
        }
      ],
      "stateMutability": "view",
      "type": "function"
    },
    {
      "inputs": [
        {
          "internalType": "address",
          "name": "owner",
          "type": "address"
        },
        {
          "internalType": "uint256",
          "name": "index",
          "type": "uint256"
        }
      ],
      "name": "tokenOfOwnerByIndex",
      "outputs": [
        {
          "internalType": "uint256",
          "name": "",
          "type": "uint256"
        }
      ],
      "stateMutability": "view",
      "type": "function"
    },
    {
      "inputs": [
        {
          "internalType": "uint256",
          "name": "tokenId",
          "type": "uint256"
        }
      ],
      "name": "tokenURI",
      "outputs": [
        {
          "internalType": "string",
          "name": "",
          "type": "string"
        }
      ],
      "stateMutability": "view",
      "type": "function"
    },
    {
      "inputs": [],
      "name": "totalSupply",
      "outputs": [
        {
          "internalType": "uint256",
          "name": "",
          "type": "uint256"
        }
      ],
      "stateMutability": "view",
      "type": "function"
    },
    {
      "inputs": [
        {
          "internalType": "address",
          "name": "from",
          "type": "address"
        },
        {
          "internalType": "address",
          "name": "to",
          "type": "address"
        },
        {
          "internalType": "uint256",
          "name": "tokenId",
          "type": "uint256"
        }
      ],
      "name": "transferFrom",
      "outputs": [],
      "stateMutability": "nonpayable",
      "type": "function"
    },
    {
      "inputs": [
        {
          "internalType": "address",
          "name": "newOwner",
          "type": "address"
        }
      ],
      "name": "transferOwnership",
      "outputs": [],
      "stateMutability": "nonpayable",
      "type": "function"
    }
  ],
  "transactionHash": "0x35c50c4d229c9c02d2be9891e1fdf00f2a74ae95416e147a0bf412774bd3bcd9",
  "args": [
    "0x562F812346a7078B5304705cE65C48929E61050c",
    "0x456b2fc8f8d0e69c7692da4ac45c1337cd08999944aa5aa106b9863c31799ef3"
  ],
  "solcInputHash": "21ba4ada1d852ba7e96b3f7744df5040",
  "bytecode": "0x60806040523480156200001157600080fd5b506040516200438c3803806200438c8339818101604052810190620000379190620002a5565b6040518060200160405280600081525060405180602001604052806000815250620000776200006b620000fb60201b60201c565b6200010360201b60201c565b81600190805190602001906200008f929190620001c7565b508060029080519060200190620000a8929190620001c7565b50505081600b60006101000a81548173ffffffffffffffffffffffffffffffffffffffff021916908373ffffffffffffffffffffffffffffffffffffffff16021790555080600c819055505050620003d1565b600033905090565b60008060009054906101000a900473ffffffffffffffffffffffffffffffffffffffff169050816000806101000a81548173ffffffffffffffffffffffffffffffffffffffff021916908373ffffffffffffffffffffffffffffffffffffffff1602179055508173ffffffffffffffffffffffffffffffffffffffff168173ffffffffffffffffffffffffffffffffffffffff167f8be0079c531659141344cd1fd0a4f28419497f9722a3daafe3b4186f6b6457e060405160405180910390a35050565b828054620001d59062000338565b90600052602060002090601f016020900481019282620001f9576000855562000245565b82601f106200021457805160ff191683800117855562000245565b8280016001018555821562000245579182015b828111156200024457825182559160200191906001019062000227565b5b50905062000254919062000258565b5090565b5b808211156200027357600081600090555060010162000259565b5090565b60008151905062000288816200039d565b92915050565b6000815190506200029f81620003b7565b92915050565b60008060408385031215620002b957600080fd5b6000620002c9858286016200028e565b9250506020620002dc8582860162000277565b9150509250929050565b6000620002f38262000318565b9050919050565b6000819050919050565b60006200031182620002e6565b9050919050565b600073ffffffffffffffffffffffffffffffffffffffff82169050919050565b600060028204905060018216806200035157607f821691505b602082108114156200036857620003676200036e565b5b50919050565b7f4e487b7100000000000000000000000000000000000000000000000000000000600052602260045260246000fd5b620003a881620002fa565b8114620003b457600080fd5b50565b620003c28162000304565b8114620003ce57600080fd5b50565b613fab80620003e16000396000f3fe608060405234801561001057600080fd5b50600436106101e55760003560e01c80636c0360eb1161010f578063b88d4fde116100a2578063ddf7fcb011610071578063ddf7fcb01461058c578063e985e9c5146105aa578063f2fde38b146105da578063f6a74ed7146105f6576101e5565b8063b88d4fde146104f4578063c87b56dd14610510578063da8c229e14610540578063dbbdf08314610570576101e5565b806395d89b41116100de57806395d89b411461046e57806396e494e81461048c578063a22cb465146104bc578063a7fc7a07146104d8576101e5565b80636c0360eb146103f857806370a0823114610416578063715018a6146104465780638da5cb5b14610450576101e5565b80632f745c59116101875780634f6ccce7116101565780634f6ccce71461036057806352dc67161461039057806355f804b3146103ac5780636352211e146103c8576101e5565b80632f745c59146102da5780633f15457f1461030a57806342842e0e146103285780634e543b2614610344576101e5565b8063095ea7b3116101c3578063095ea7b31461026857806318160ddd1461028457806323b872dd146102a257806328ed4f6c146102be576101e5565b806301ffc9a7146101ea57806306fdde031461021a578063081812fc14610238575b600080fd5b61020460048036038101906101ff919061305e565b610612565b60405161021191906134ff565b60405180910390f35b61022261085c565b60405161022f91906135b0565b60405180910390f35b610252600480360381019061024d91906130f1565b6108ee565b60405161025f9190613498565b60405180910390f35b610282600480360381019061027d9190612ff9565b610934565b005b61028c610a4c565b60405161029991906137d2565b60405180910390f35b6102bc60048036038101906102b79190612ef3565b610a59565b005b6102d860048036038101906102d3919061311a565b610ab9565b005b6102f460048036038101906102ef9190612ff9565b610c6b565b60405161030191906137d2565b60405180910390f35b610312610d10565b60405161031f9190613595565b60405180910390f35b610342600480360381019061033d9190612ef3565b610d36565b005b61035e60048036038101906103599190612e65565b610d56565b005b61037a600480360381019061037591906130f1565b610df2565b60405161038791906137d2565b60405180910390f35b6103aa60048036038101906103a5919061311a565b610e89565b005b6103c660048036038101906103c191906130b0565b610e99565b005b6103e260048036038101906103dd91906130f1565b610ebb565b6040516103ef9190613498565b60405180910390f35b610400610f42565b60405161040d91906135b0565b60405180910390f35b610430600480360381019061042b9190612e65565b610fd0565b60405161043d91906137d2565b60405180910390f35b61044e611088565b005b61045861109c565b6040516104659190613498565b60405180910390f35b6104766110c5565b60405161048391906135b0565b60405180910390f35b6104a660048036038101906104a191906130f1565b611157565b6040516104b391906134ff565b60405180910390f35b6104d660048036038101906104d19190612fbd565b61116a565b005b6104f260048036038101906104ed9190612e65565b611180565b005b61050e60048036038101906105099190612f42565b611226565b005b61052a600480360381019061052591906130f1565b611288565b60405161053791906135b0565b60405180910390f35b61055a60048036038101906105559190612e65565b6112f0565b60405161056791906134ff565b60405180910390f35b61058a6004803603810190610585919061311a565b611310565b005b610594611320565b6040516105a1919061351a565b60405180910390f35b6105c460048036038101906105bf9190612eb7565b611326565b6040516105d191906134ff565b60405180910390f35b6105f460048036038101906105ef9190612e65565b6113ba565b005b610610600480360381019061060b9190612e65565b61143e565b005b60007f01ffc9a7a5cef8baa21ed3c5c0d7e23accb804b619e9333b597f47a0d84076e27bffffffffffffffffffffffffffffffffffffffffffffffffffffffff1916827bffffffffffffffffffffffffffffffffffffffffffffffffffffffff191614806107ed57507fb88d4fde60196325a28bb7f99a2582e0b46de55b18761e960c14ad7a320994657f42842e0eb38857a7775b4e7364b2775df7325074d088e7fb39590cd6281184ed7f23b872dd7302113369cda2901243429419bec145408fa8b352b3dd92b66c680b7fe985e9c5c6636c6879256001057b28ccac7718ef0ac56553ff9b926452cab8a37fa22cb4651ab9570f89bb516380c40ce76762284fb1f21337ceaf6adab99e7d4a7f081812fc55e34fdc7cf5d8b5cf4e3621fa6423fde952ec6ab24afdc0d85c0b2e7f095ea7b334ae44009aa867bfb386f5c3b4b443ac6f0ee573fa91c4608fbadfba7f6352211e6566aa027e75ac9dbf2423197fbd9b82b9d981a3ab367d355866aa1c7f70a08231b98ef4ca268c9cc3f6b4590e4bfec28280db06bb5d45e689f2a360be18181818181818187bffffffffffffffffffffffffffffffffffffffffffffffffffffffff1916827bffffffffffffffffffffffffffffffffffffffffffffffffffffffff1916145b8061085557507f28ed4f6c74b219a5819055dfbcd2f1837c046c364cf01fabb6799e4f440d6f137bffffffffffffffffffffffffffffffffffffffffffffffffffffffff1916827bffffffffffffffffffffffffffffffffffffffffffffffffffffffff1916145b9050919050565b60606001805461086b906139cf565b80601f0160208091040260200160405190810160405280929190818152602001828054610897906139cf565b80156108e45780601f106108b9576101008083540402835291602001916108e4565b820191906000526020600020905b8154815290600101906020018083116108c757829003601f168201915b5050505050905090565b60006108f9826114e4565b6005600083815260200190815260200160002060009054906101000a900473ffffffffffffffffffffffffffffffffffffffff169050919050565b600061093f82610ebb565b90508073ffffffffffffffffffffffffffffffffffffffff168373ffffffffffffffffffffffffffffffffffffffff1614156109b0576040517f08c379a00000000000000000000000000000000000000000000000000000000081526004016109a790613752565b60405180910390fd5b8073ffffffffffffffffffffffffffffffffffffffff166109cf61152f565b73ffffffffffffffffffffffffffffffffffffffff1614806109fe57506109fd816109f861152f565b611326565b5b610a3d576040517f08c379a0000000000000000000000000000000000000000000000000000000008152600401610a3490613772565b60405180910390fd5b610a478383611537565b505050565b6000600980549050905090565b610a6a610a6461152f565b826115f0565b610aa9576040517f08c379a0000000000000000000000000000000000000000000000000000000008152600401610aa0906135d2565b60405180910390fd5b610ab4838383611685565b505050565b3073ffffffffffffffffffffffffffffffffffffffff16600b60009054906101000a900473ffffffffffffffffffffffffffffffffffffffff1673ffffffffffffffffffffffffffffffffffffffff166302571be3600c546040518263ffffffff1660e01b8152600401610b2d919061351a565b60206040518083038186803b158015610b4557600080fd5b505afa158015610b59573d6000803e3d6000fd5b505050506040513d601f19601f82011682018060405250810190610b7d9190612e8e565b73ffffffffffffffffffffffffffffffffffffffff1614610b9d57600080fd5b610ba733836115f0565b610bb057600080fd5b600b60009054906101000a900473ffffffffffffffffffffffffffffffffffffffff1673ffffffffffffffffffffffffffffffffffffffff166306ab5923600c548460001b846040518463ffffffff1660e01b8152600401610c149392919061355e565b602060405180830381600087803b158015610c2e57600080fd5b505af1158015610c42573d6000803e3d6000fd5b505050506040513d601f19601f82011682018060405250810190610c669190613035565b505050565b6000610c7683610fd0565b8210610cb7576040517f08c379a0000000000000000000000000000000000000000000000000000000008152600401610cae906135f2565b60405180910390fd5b600760008473ffffffffffffffffffffffffffffffffffffffff1673ffffffffffffffffffffffffffffffffffffffff168152602001908152602001600020600083815260200190815260200160002054905092915050565b600b60009054906101000a900473ffffffffffffffffffffffffffffffffffffffff1681565b610d5183838360405180602001604052806000815250611226565b505050565b610d5e61197f565b600b60009054906101000a900473ffffffffffffffffffffffffffffffffffffffff1673ffffffffffffffffffffffffffffffffffffffff16631896f70a600c54836040518363ffffffff1660e01b8152600401610dbd929190613535565b600060405180830381600087803b158015610dd757600080fd5b505af1158015610deb573d6000803e3d6000fd5b5050505050565b6000610dfc610a4c565b8210610e3d576040517f08c379a0000000000000000000000000000000000000000000000000000000008152600401610e3490613792565b60405180910390fd5b60098281548110610e77577f4e487b7100000000000000000000000000000000000000000000000000000000600052603260045260246000fd5b90600052602060002001549050919050565b610e95828260006119fd565b5050565b610ea161197f565b80600e9080519060200190610eb7929190612c5f565b5050565b600080610ec783611c62565b9050600073ffffffffffffffffffffffffffffffffffffffff168173ffffffffffffffffffffffffffffffffffffffff161415610f39576040517f08c379a0000000000000000000000000000000000000000000000000000000008152600401610f3090613732565b60405180910390fd5b80915050919050565b600e8054610f4f906139cf565b80601f0160208091040260200160405190810160405280929190818152602001828054610f7b906139cf565b8015610fc85780601f10610f9d57610100808354040283529160200191610fc8565b820191906000526020600020905b815481529060010190602001808311610fab57829003601f168201915b505050505081565b60008073ffffffffffffffffffffffffffffffffffffffff168273ffffffffffffffffffffffffffffffffffffffff161415611041576040517f08c379a0000000000000000000000000000000000000000000000000000000008152600401611038906136d2565b60405180910390fd5b600460008373ffffffffffffffffffffffffffffffffffffffff1673ffffffffffffffffffffffffffffffffffffffff168152602001908152602001600020549050919050565b61109061197f565b61109a6000611c9f565b565b60008060009054906101000a900473ffffffffffffffffffffffffffffffffffffffff16905090565b6060600280546110d4906139cf565b80601f0160208091040260200160405190810160405280929190818152602001828054611100906139cf565b801561114d5780601f106111225761010080835404028352916020019161114d565b820191906000526020600020905b81548152906001019060200180831161113057829003601f168201915b5050505050905090565b600061116282611d63565b159050919050565b61117c61117561152f565b8383611da4565b5050565b61118861197f565b6001600d60008373ffffffffffffffffffffffffffffffffffffffff1673ffffffffffffffffffffffffffffffffffffffff16815260200190815260200160002060006101000a81548160ff0219169083151502179055508073ffffffffffffffffffffffffffffffffffffffff167f0a8bb31534c0ed46f380cb867bd5c803a189ced9a764e30b3a4991a9901d747460405160405180910390a250565b61123761123161152f565b836115f0565b611276576040517f08c379a000000000000000000000000000000000000000000000000000000000815260040161126d906135d2565b60405180910390fd5b61128284848484611f11565b50505050565b6060611293826114e4565b600061129d611f6d565b905060008151116112bd57604051806020016040528060008152506112e8565b806112c784611fff565b6040516020016112d8929190613474565b6040516020818303038152906040525b915050919050565b600d6020528060005260406000206000915054906101000a900460ff1681565b61131c828260016119fd565b5050565b600c5481565b6000600660008473ffffffffffffffffffffffffffffffffffffffff1673ffffffffffffffffffffffffffffffffffffffff16815260200190815260200160002060008373ffffffffffffffffffffffffffffffffffffffff1673ffffffffffffffffffffffffffffffffffffffff16815260200190815260200160002060009054906101000a900460ff16905092915050565b6113c261197f565b600073ffffffffffffffffffffffffffffffffffffffff168173ffffffffffffffffffffffffffffffffffffffff161415611432576040517f08c379a000000000000000000000000000000000000000000000000000000000815260040161142990613632565b60405180910390fd5b61143b81611c9f565b50565b61144661197f565b6000600d60008373ffffffffffffffffffffffffffffffffffffffff1673ffffffffffffffffffffffffffffffffffffffff16815260200190815260200160002060006101000a81548160ff0219169083151502179055508073ffffffffffffffffffffffffffffffffffffffff167f33d83959be2573f5453b12eb9d43b3499bc57d96bd2f067ba44803c859e8111360405160405180910390a250565b6114ed81611d63565b61152c576040517f08c379a000000000000000000000000000000000000000000000000000000000815260040161152390613732565b60405180910390fd5b50565b600033905090565b816005600083815260200190815260200160002060006101000a81548173ffffffffffffffffffffffffffffffffffffffff021916908373ffffffffffffffffffffffffffffffffffffffff160217905550808273ffffffffffffffffffffffffffffffffffffffff166115aa83610ebb565b73ffffffffffffffffffffffffffffffffffffffff167f8c5be1e5ebec7d5bd14f71427d1e84f3dd0314c0f7b2291e5b200ac8c7c3b92560405160405180910390a45050565b6000806115fc83610ebb565b90508073ffffffffffffffffffffffffffffffffffffffff168473ffffffffffffffffffffffffffffffffffffffff16148061163e575061163d8185611326565b5b8061167c57508373ffffffffffffffffffffffffffffffffffffffff16611664846108ee565b73ffffffffffffffffffffffffffffffffffffffff16145b91505092915050565b8273ffffffffffffffffffffffffffffffffffffffff166116a582610ebb565b73ffffffffffffffffffffffffffffffffffffffff16146116fb576040517f08c379a00000000000000000000000000000000000000000000000000000000081526004016116f290613652565b60405180910390fd5b600073ffffffffffffffffffffffffffffffffffffffff168273ffffffffffffffffffffffffffffffffffffffff16141561176b576040517f08c379a000000000000000000000000000000000000000000000000000000000815260040161176290613692565b60405180910390fd5b6117788383836001612123565b8273ffffffffffffffffffffffffffffffffffffffff1661179882610ebb565b73ffffffffffffffffffffffffffffffffffffffff16146117ee576040517f08c379a00000000000000000000000000000000000000000000000000000000081526004016117e590613652565b60405180910390fd5b6005600082815260200190815260200160002060006101000a81549073ffffffffffffffffffffffffffffffffffffffff02191690556001600460008573ffffffffffffffffffffffffffffffffffffffff1673ffffffffffffffffffffffffffffffffffffffff168152602001908152602001600020600082825403925050819055506001600460008473ffffffffffffffffffffffffffffffffffffffff1673ffffffffffffffffffffffffffffffffffffffff16815260200190815260200160002060008282540192505081905550816003600083815260200190815260200160002060006101000a81548173ffffffffffffffffffffffffffffffffffffffff021916908373ffffffffffffffffffffffffffffffffffffffff160217905550808273ffffffffffffffffffffffffffffffffffffffff168473ffffffffffffffffffffffffffffffffffffffff167fddf252ad1be2c89b69c2b068fc378daa952ba7f163c4a11628f55a4df523b3ef60405160405180910390a461197a8383836001612283565b505050565b61198761152f565b73ffffffffffffffffffffffffffffffffffffffff166119a561109c565b73ffffffffffffffffffffffffffffffffffffffff16146119fb576040517f08c379a00000000000000000000000000000000000000000000000000000000081526004016119f290613712565b60405180910390fd5b565b3073ffffffffffffffffffffffffffffffffffffffff16600b60009054906101000a900473ffffffffffffffffffffffffffffffffffffffff1673ffffffffffffffffffffffffffffffffffffffff166302571be3600c546040518263ffffffff1660e01b8152600401611a71919061351a565b60206040518083038186803b158015611a8957600080fd5b505afa158015611a9d573d6000803e3d6000fd5b505050506040513d601f19601f82011682018060405250810190611ac19190612e8e565b73ffffffffffffffffffffffffffffffffffffffff1614611ae157600080fd5b600d60003373ffffffffffffffffffffffffffffffffffffffff1673ffffffffffffffffffffffffffffffffffffffff16815260200190815260200160002060009054906101000a900460ff16611b3757600080fd5b611b4083611157565b611b4957600080fd5b611b538284612289565b611b5c836124a7565b8015611c1a57600b60009054906101000a900473ffffffffffffffffffffffffffffffffffffffff1673ffffffffffffffffffffffffffffffffffffffff166306ab5923600c548560001b856040518463ffffffff1660e01b8152600401611bc69392919061355e565b602060405180830381600087803b158015611be057600080fd5b505af1158015611bf4573d6000803e3d6000fd5b505050506040513d601f19601f82011682018060405250810190611c189190613035565b505b8173ffffffffffffffffffffffffffffffffffffffff16837e834ad8d7a1d8421d149549c7292d11385f5a042a008771d26ffd2d76db6e7460405160405180910390a3505050565b60006003600083815260200190815260200160002060009054906101000a900473ffffffffffffffffffffffffffffffffffffffff169050919050565b60008060009054906101000a900473ffffffffffffffffffffffffffffffffffffffff169050816000806101000a81548173ffffffffffffffffffffffffffffffffffffffff021916908373ffffffffffffffffffffffffffffffffffffffff1602179055508173ffffffffffffffffffffffffffffffffffffffff168173ffffffffffffffffffffffffffffffffffffffff167f8be0079c531659141344cd1fd0a4f28419497f9722a3daafe3b4186f6b6457e060405160405180910390a35050565b60008073ffffffffffffffffffffffffffffffffffffffff16611d8583611c62565b73ffffffffffffffffffffffffffffffffffffffff1614159050919050565b8173ffffffffffffffffffffffffffffffffffffffff168373ffffffffffffffffffffffffffffffffffffffff161415611e13576040517f08c379a0000000000000000000000000000000000000000000000000000000008152600401611e0a906136b2565b60405180910390fd5b80600660008573ffffffffffffffffffffffffffffffffffffffff1673ffffffffffffffffffffffffffffffffffffffff16815260200190815260200160002060008473ffffffffffffffffffffffffffffffffffffffff1673ffffffffffffffffffffffffffffffffffffffff16815260200190815260200160002060006101000a81548160ff0219169083151502179055508173ffffffffffffffffffffffffffffffffffffffff168373ffffffffffffffffffffffffffffffffffffffff167f17307eab39ab6107e8899845ad3d59bd9653f200f220920489ca2b5937696c3183604051611f0491906134ff565b60405180910390a3505050565b611f1c848484611685565b611f28848484846124f0565b611f67576040517f08c379a0000000000000000000000000000000000000000000000000000000008152600401611f5e90613612565b60405180910390fd5b50505050565b6060600e8054611f7c906139cf565b80601f0160208091040260200160405190810160405280929190818152602001828054611fa8906139cf565b8015611ff55780601f10611fca57610100808354040283529160200191611ff5565b820191906000526020600020905b815481529060010190602001808311611fd857829003601f168201915b5050505050905090565b60606000600161200e84612687565b01905060008167ffffffffffffffff811115612053577f4e487b7100000000000000000000000000000000000000000000000000000000600052604160045260246000fd5b6040519080825280601f01601f1916602001820160405280156120855781602001600182028036833780820191505090505b509050600082602001820190505b600115612118578080600190039150507f3031323334353637383961626364656600000000000000000000000000000000600a86061a8153600a8581612102577f4e487b7100000000000000000000000000000000000000000000000000000000600052601260045260246000fd5b049450600085141561211357612118565b612093565b819350505050919050565b61212f848484846128be565b6001811115612173576040517f08c379a000000000000000000000000000000000000000000000000000000000815260040161216a906137b2565b60405180910390fd5b6000829050600073ffffffffffffffffffffffffffffffffffffffff168573ffffffffffffffffffffffffffffffffffffffff1614156121bb576121b6816128c4565b6121fa565b8373ffffffffffffffffffffffffffffffffffffffff168573ffffffffffffffffffffffffffffffffffffffff16146121f9576121f8858261290d565b5b5b600073ffffffffffffffffffffffffffffffffffffffff168473ffffffffffffffffffffffffffffffffffffffff16141561223d5761223881612a7a565b61227c565b8473ffffffffffffffffffffffffffffffffffffffff168473ffffffffffffffffffffffffffffffffffffffff161461227b5761227a8482612bbd565b5b5b5050505050565b50505050565b600073ffffffffffffffffffffffffffffffffffffffff168273ffffffffffffffffffffffffffffffffffffffff1614156122f9576040517f08c379a00000000000000000000000000000000000000000000000000000000081526004016122f0906136f2565b60405180910390fd5b61230281611d63565b15612342576040517f08c379a000000000000000000000000000000000000000000000000000000000815260040161233990613672565b60405180910390fd5b612350600083836001612123565b61235981611d63565b15612399576040517f08c379a000000000000000000000000000000000000000000000000000000000815260040161239090613672565b60405180910390fd5b6001600460008473ffffffffffffffffffffffffffffffffffffffff1673ffffffffffffffffffffffffffffffffffffffff16815260200190815260200160002060008282540192505081905550816003600083815260200190815260200160002060006101000a81548173ffffffffffffffffffffffffffffffffffffffff021916908373ffffffffffffffffffffffffffffffffffffffff160217905550808273ffffffffffffffffffffffffffffffffffffffff16600073ffffffffffffffffffffffffffffffffffffffff167fddf252ad1be2c89b69c2b068fc378daa952ba7f163c4a11628f55a4df523b3ef60405160405180910390a46124a3600083836001612283565b5050565b600f805490506010600083815260200190815260200160002081905550600f81908060018154018082558091505060019003906000526020600020016000909190919091505550565b60006125118473ffffffffffffffffffffffffffffffffffffffff16612c3c565b1561267a578373ffffffffffffffffffffffffffffffffffffffff1663150b7a0261253a61152f565b8786866040518563ffffffff1660e01b815260040161255c94939291906134b3565b602060405180830381600087803b15801561257657600080fd5b505af19250505080156125a757506040513d601f19601f820116820180604052508101906125a49190613087565b60015b61262a573d80600081146125d7576040519150601f19603f3d011682016040523d82523d6000602084013e6125dc565b606091505b50600081511415612622576040517f08c379a000000000000000000000000000000000000000000000000000000000815260040161261990613612565b60405180910390fd5b805181602001fd5b63150b7a0260e01b7bffffffffffffffffffffffffffffffffffffffffffffffffffffffff1916817bffffffffffffffffffffffffffffffffffffffffffffffffffffffff19161491505061267f565b600190505b949350505050565b600080600090507a184f03e93ff9f4daa797ed6e38ed64bf6a1f010000000000000000831061270b577a184f03e93ff9f4daa797ed6e38ed64bf6a1f0100000000000000008381612701577f4e487b7100000000000000000000000000000000000000000000000000000000600052601260045260246000fd5b0492506040810190505b6d04ee2d6d415b85acef8100000000831061276e576d04ee2d6d415b85acef81000000008381612764577f4e487b7100000000000000000000000000000000000000000000000000000000600052601260045260246000fd5b0492506020810190505b662386f26fc1000083106127c357662386f26fc1000083816127b9577f4e487b7100000000000000000000000000000000000000000000000000000000600052601260045260246000fd5b0492506010810190505b6305f5e1008310612812576305f5e1008381612808577f4e487b7100000000000000000000000000000000000000000000000000000000600052601260045260246000fd5b0492506008810190505b612710831061285d576127108381612853577f4e487b7100000000000000000000000000000000000000000000000000000000600052601260045260246000fd5b0492506004810190505b606483106128a6576064838161289c577f4e487b7100000000000000000000000000000000000000000000000000000000600052601260045260246000fd5b0492506002810190505b600a83106128b5576001810190505b80915050919050565b50505050565b600980549050600a600083815260200190815260200160002081905550600981908060018154018082558091505060019003906000526020600020016000909190919091505550565b6000600161291a84610fd0565b61292491906138b7565b9050600060086000848152602001908152602001600020549050818114612a09576000600760008673ffffffffffffffffffffffffffffffffffffffff1673ffffffffffffffffffffffffffffffffffffffff168152602001908152602001600020600084815260200190815260200160002054905080600760008773ffffffffffffffffffffffffffffffffffffffff1673ffffffffffffffffffffffffffffffffffffffff168152602001908152602001600020600084815260200190815260200160002081905550816008600083815260200190815260200160002081905550505b6008600084815260200190815260200160002060009055600760008573ffffffffffffffffffffffffffffffffffffffff1673ffffffffffffffffffffffffffffffffffffffff16815260200190815260200160002060008381526020019081526020016000206000905550505050565b60006001600980549050612a8e91906138b7565b90506000600a6000848152602001908152602001600020549050600060098381548110612ae4577f4e487b7100000000000000000000000000000000000000000000000000000000600052603260045260246000fd5b906000526020600020015490508060098381548110612b2c577f4e487b7100000000000000000000000000000000000000000000000000000000600052603260045260246000fd5b906000526020600020018190555081600a600083815260200190815260200160002081905550600a6000858152602001908152602001600020600090556009805480612ba1577f4e487b7100000000000000000000000000000000000000000000000000000000600052603160045260246000fd5b6001900381819060005260206000200160009055905550505050565b6000612bc883610fd0565b905081600760008573ffffffffffffffffffffffffffffffffffffffff1673ffffffffffffffffffffffffffffffffffffffff168152602001908152602001600020600083815260200190815260200160002081905550806008600084815260200190815260200160002081905550505050565b6000808273ffffffffffffffffffffffffffffffffffffffff163b119050919050565b828054612c6b906139cf565b90600052602060002090601f016020900481019282612c8d5760008555612cd4565b82601f10612ca657805160ff1916838001178555612cd4565b82800160010185558215612cd4579182015b82811115612cd3578251825591602001919060010190612cb8565b5b509050612ce19190612ce5565b5090565b5b80821115612cfe576000816000905550600101612ce6565b5090565b6000612d15612d1084613812565b6137ed565b905082815260208101848484011115612d2d57600080fd5b612d3884828561398d565b509392505050565b6000612d53612d4e84613843565b6137ed565b905082815260208101848484011115612d6b57600080fd5b612d7684828561398d565b509392505050565b600081359050612d8d81613f02565b92915050565b600081519050612da281613f02565b92915050565b600081359050612db781613f19565b92915050565b600081519050612dcc81613f30565b92915050565b600081359050612de181613f47565b92915050565b600081519050612df681613f47565b92915050565b600082601f830112612e0d57600080fd5b8135612e1d848260208601612d02565b91505092915050565b600082601f830112612e3757600080fd5b8135612e47848260208601612d40565b91505092915050565b600081359050612e5f81613f5e565b92915050565b600060208284031215612e7757600080fd5b6000612e8584828501612d7e565b91505092915050565b600060208284031215612ea057600080fd5b6000612eae84828501612d93565b91505092915050565b60008060408385031215612eca57600080fd5b6000612ed885828601612d7e565b9250506020612ee985828601612d7e565b9150509250929050565b600080600060608486031215612f0857600080fd5b6000612f1686828701612d7e565b9350506020612f2786828701612d7e565b9250506040612f3886828701612e50565b9150509250925092565b60008060008060808587031215612f5857600080fd5b6000612f6687828801612d7e565b9450506020612f7787828801612d7e565b9350506040612f8887828801612e50565b925050606085013567ffffffffffffffff811115612fa557600080fd5b612fb187828801612dfc565b91505092959194509250565b60008060408385031215612fd057600080fd5b6000612fde85828601612d7e565b9250506020612fef85828601612da8565b9150509250929050565b6000806040838503121561300c57600080fd5b600061301a85828601612d7e565b925050602061302b85828601612e50565b9150509250929050565b60006020828403121561304757600080fd5b600061305584828501612dbd565b91505092915050565b60006020828403121561307057600080fd5b600061307e84828501612dd2565b91505092915050565b60006020828403121561309957600080fd5b60006130a784828501612de7565b91505092915050565b6000602082840312156130c257600080fd5b600082013567ffffffffffffffff8111156130dc57600080fd5b6130e884828501612e26565b91505092915050565b60006020828403121561310357600080fd5b600061311184828501612e50565b91505092915050565b6000806040838503121561312d57600080fd5b600061313b85828601612e50565b925050602061314c85828601612d7e565b9150509250929050565b61315f816138eb565b82525050565b61316e816138fd565b82525050565b61317d81613909565b82525050565b600061318e82613874565b613198818561388a565b93506131a881856020860161399c565b6131b181613abf565b840191505092915050565b6131c581613969565b82525050565b60006131d68261387f565b6131e0818561389b565b93506131f081856020860161399c565b6131f981613abf565b840191505092915050565b600061320f8261387f565b61321981856138ac565b935061322981856020860161399c565b80840191505092915050565b6000613242602d8361389b565b915061324d82613ad0565b604082019050919050565b6000613265602b8361389b565b915061327082613b1f565b604082019050919050565b600061328860328361389b565b915061329382613b6e565b604082019050919050565b60006132ab60268361389b565b91506132b682613bbd565b604082019050919050565b60006132ce60258361389b565b91506132d982613c0c565b604082019050919050565b60006132f1601c8361389b565b91506132fc82613c5b565b602082019050919050565b600061331460248361389b565b915061331f82613c84565b604082019050919050565b600061333760198361389b565b915061334282613cd3565b602082019050919050565b600061335a60298361389b565b915061336582613cfc565b604082019050919050565b600061337d60208361389b565b915061338882613d4b565b602082019050919050565b60006133a060208361389b565b91506133ab82613d74565b602082019050919050565b60006133c360188361389b565b91506133ce82613d9d565b602082019050919050565b60006133e660218361389b565b91506133f182613dc6565b604082019050919050565b6000613409603d8361389b565b915061341482613e15565b604082019050919050565b600061342c602c8361389b565b915061343782613e64565b604082019050919050565b600061344f60358361389b565b915061345a82613eb3565b604082019050919050565b61346e8161395f565b82525050565b60006134808285613204565b915061348c8284613204565b91508190509392505050565b60006020820190506134ad6000830184613156565b92915050565b60006080820190506134c86000830187613156565b6134d56020830186613156565b6134e26040830185613465565b81810360608301526134f48184613183565b905095945050505050565b60006020820190506135146000830184613165565b92915050565b600060208201905061352f6000830184613174565b92915050565b600060408201905061354a6000830185613174565b6135576020830184613156565b9392505050565b60006060820190506135736000830186613174565b6135806020830185613174565b61358d6040830184613156565b949350505050565b60006020820190506135aa60008301846131bc565b92915050565b600060208201905081810360008301526135ca81846131cb565b905092915050565b600060208201905081810360008301526135eb81613235565b9050919050565b6000602082019050818103600083015261360b81613258565b9050919050565b6000602082019050818103600083015261362b8161327b565b9050919050565b6000602082019050818103600083015261364b8161329e565b9050919050565b6000602082019050818103600083015261366b816132c1565b9050919050565b6000602082019050818103600083015261368b816132e4565b9050919050565b600060208201905081810360008301526136ab81613307565b9050919050565b600060208201905081810360008301526136cb8161332a565b9050919050565b600060208201905081810360008301526136eb8161334d565b9050919050565b6000602082019050818103600083015261370b81613370565b9050919050565b6000602082019050818103600083015261372b81613393565b9050919050565b6000602082019050818103600083015261374b816133b6565b9050919050565b6000602082019050818103600083015261376b816133d9565b9050919050565b6000602082019050818103600083015261378b816133fc565b9050919050565b600060208201905081810360008301526137ab8161341f565b9050919050565b600060208201905081810360008301526137cb81613442565b9050919050565b60006020820190506137e76000830184613465565b92915050565b60006137f7613808565b90506138038282613a01565b919050565b6000604051905090565b600067ffffffffffffffff82111561382d5761382c613a90565b5b61383682613abf565b9050602081019050919050565b600067ffffffffffffffff82111561385e5761385d613a90565b5b61386782613abf565b9050602081019050919050565b600081519050919050565b600081519050919050565b600082825260208201905092915050565b600082825260208201905092915050565b600081905092915050565b60006138c28261395f565b91506138cd8361395f565b9250828210156138e0576138df613a32565b5b828203905092915050565b60006138f68261393f565b9050919050565b60008115159050919050565b6000819050919050565b60007fffffffff0000000000000000000000000000000000000000000000000000000082169050919050565b600073ffffffffffffffffffffffffffffffffffffffff82169050919050565b6000819050919050565b60006139748261397b565b9050919050565b60006139868261393f565b9050919050565b82818337600083830152505050565b60005b838110156139ba57808201518184015260208101905061399f565b838111156139c9576000848401525b50505050565b600060028204905060018216806139e757607f821691505b602082108114156139fb576139fa613a61565b5b50919050565b613a0a82613abf565b810181811067ffffffffffffffff82111715613a2957613a28613a90565b5b80604052505050565b7f4e487b7100000000000000000000000000000000000000000000000000000000600052601160045260246000fd5b7f4e487b7100000000000000000000000000000000000000000000000000000000600052602260045260246000fd5b7f4e487b7100000000000000000000000000000000000000000000000000000000600052604160045260246000fd5b6000601f19601f8301169050919050565b7f4552433732313a2063616c6c6572206973206e6f7420746f6b656e206f776e6560008201527f72206f7220617070726f76656400000000000000000000000000000000000000602082015250565b7f455243373231456e756d657261626c653a206f776e657220696e646578206f7560008201527f74206f6620626f756e6473000000000000000000000000000000000000000000602082015250565b7f4552433732313a207472616e7366657220746f206e6f6e20455243373231526560008201527f63656976657220696d706c656d656e7465720000000000000000000000000000602082015250565b7f4f776e61626c653a206e6577206f776e657220697320746865207a65726f206160008201527f6464726573730000000000000000000000000000000000000000000000000000602082015250565b7f4552433732313a207472616e736665722066726f6d20696e636f72726563742060008201527f6f776e6572000000000000000000000000000000000000000000000000000000602082015250565b7f4552433732313a20746f6b656e20616c7265616479206d696e74656400000000600082015250565b7f4552433732313a207472616e7366657220746f20746865207a65726f2061646460008201527f7265737300000000000000000000000000000000000000000000000000000000602082015250565b7f4552433732313a20617070726f766520746f2063616c6c657200000000000000600082015250565b7f4552433732313a2061646472657373207a65726f206973206e6f74206120766160008201527f6c6964206f776e65720000000000000000000000000000000000000000000000602082015250565b7f4552433732313a206d696e7420746f20746865207a65726f2061646472657373600082015250565b7f4f776e61626c653a2063616c6c6572206973206e6f7420746865206f776e6572600082015250565b7f4552433732313a20696e76616c696420746f6b656e2049440000000000000000600082015250565b7f4552433732313a20617070726f76616c20746f2063757272656e74206f776e6560008201527f7200000000000000000000000000000000000000000000000000000000000000602082015250565b7f4552433732313a20617070726f76652063616c6c6572206973206e6f7420746f60008201527f6b656e206f776e6572206f7220617070726f76656420666f7220616c6c000000602082015250565b7f455243373231456e756d657261626c653a20676c6f62616c20696e646578206f60008201527f7574206f6620626f756e64730000000000000000000000000000000000000000602082015250565b7f455243373231456e756d657261626c653a20636f6e736563757469766520747260008201527f616e7366657273206e6f7420737570706f727465640000000000000000000000602082015250565b613f0b816138eb565b8114613f1657600080fd5b50565b613f22816138fd565b8114613f2d57600080fd5b50565b613f3981613909565b8114613f4457600080fd5b50565b613f5081613913565b8114613f5b57600080fd5b50565b613f678161395f565b8114613f7257600080fd5b5056fea264697066735822122069c1c045fa3ed468f3762382534bbeccacb0fa5113c1bd2ab4c20bbdb982f5c464736f6c63430008040033",
  "devdoc": {
    "kind": "dev",
    "methods": {
      "approve(address,uint256)": {
        "details": "See {IERC721-approve}."
      },
      "balanceOf(address)": {
        "details": "See {IERC721-balanceOf}."
      },
      "getApproved(uint256)": {
        "details": "See {IERC721-getApproved}."
      },
      "isApprovedForAll(address,address)": {
        "details": "See {IERC721-isApprovedForAll}."
      },
      "name()": {
        "details": "See {IERC721Metadata-name}."
      },
      "owner()": {
        "details": "Returns the address of the current owner."
      },
      "ownerOf(uint256)": {
        "details": "See {IERC721-ownerOf}."
      },
      "reclaim(uint256,address)": {
        "details": "Reclaim ownership of a name in ENS, if you own it in the registrar."
      },
      "register(uint256,address)": {
        "details": "Register a name.",
        "params": {
          "id": "The token ID (keccak256 of the label).",
          "owner": "The address that should own the registration."
        }
      },
      "registerOnly(uint256,address)": {
        "details": "Register a name, without modifying the registry.",
        "params": {
          "id": "The token ID (keccak256 of the label).",
          "owner": "The address that should own the registration."
        }
      },
      "renounceOwnership()": {
        "details": "Leaves the contract without owner. It will not be possible to call `onlyOwner` functions. Can only be called by the current owner. NOTE: Renouncing ownership will leave the contract without an owner, thereby disabling any functionality that is only available to the owner."
      },
      "safeTransferFrom(address,address,uint256)": {
        "details": "See {IERC721-safeTransferFrom}."
      },
      "safeTransferFrom(address,address,uint256,bytes)": {
        "details": "See {IERC721-safeTransferFrom}."
      },
      "setApprovalForAll(address,bool)": {
        "details": "See {IERC721-setApprovalForAll}."
      },
      "symbol()": {
        "details": "See {IERC721Metadata-symbol}."
      },
      "tokenByIndex(uint256)": {
        "details": "See {IERC721Enumerable-tokenByIndex}."
      },
      "tokenOfOwnerByIndex(address,uint256)": {
        "details": "See {IERC721Enumerable-tokenOfOwnerByIndex}."
      },
      "tokenURI(uint256)": {
        "details": "See {IERC721Metadata-tokenURI}."
      },
      "totalSupply()": {
        "details": "See {IERC721Enumerable-totalSupply}."
      },
      "transferFrom(address,address,uint256)": {
        "details": "See {IERC721-transferFrom}."
      },
      "transferOwnership(address)": {
        "details": "Transfers ownership of the contract to a new account (`newOwner`). Can only be called by the current owner."
      }
    },
    "version": 1
  },
  "userdoc": {
    "kind": "user",
    "methods": {},
    "version": 1
  },
  "storageLayout": {
    "storage": [
      {
        "astId": 7,
        "contract": "contracts/ethregistrar/BaseRegistrarImplementation.sol:BaseRegistrarImplementation",
        "label": "_owner",
        "offset": 0,
        "slot": "0",
        "type": "t_address"
      },
      {
        "astId": 138,
        "contract": "contracts/ethregistrar/BaseRegistrarImplementation.sol:BaseRegistrarImplementation",
        "label": "_name",
        "offset": 0,
        "slot": "1",
        "type": "t_string_storage"
      },
      {
        "astId": 140,
        "contract": "contracts/ethregistrar/BaseRegistrarImplementation.sol:BaseRegistrarImplementation",
        "label": "_symbol",
        "offset": 0,
        "slot": "2",
        "type": "t_string_storage"
      },
      {
        "astId": 144,
        "contract": "contracts/ethregistrar/BaseRegistrarImplementation.sol:BaseRegistrarImplementation",
        "label": "_owners",
        "offset": 0,
        "slot": "3",
        "type": "t_mapping(t_uint256,t_address)"
      },
      {
        "astId": 148,
        "contract": "contracts/ethregistrar/BaseRegistrarImplementation.sol:BaseRegistrarImplementation",
        "label": "_balances",
        "offset": 0,
        "slot": "4",
        "type": "t_mapping(t_address,t_uint256)"
      },
      {
        "astId": 152,
        "contract": "contracts/ethregistrar/BaseRegistrarImplementation.sol:BaseRegistrarImplementation",
        "label": "_tokenApprovals",
        "offset": 0,
        "slot": "5",
        "type": "t_mapping(t_uint256,t_address)"
      },
      {
        "astId": 158,
        "contract": "contracts/ethregistrar/BaseRegistrarImplementation.sol:BaseRegistrarImplementation",
        "label": "_operatorApprovals",
        "offset": 0,
        "slot": "6",
        "type": "t_mapping(t_address,t_mapping(t_address,t_bool))"
      },
      {
        "astId": 1188,
        "contract": "contracts/ethregistrar/BaseRegistrarImplementation.sol:BaseRegistrarImplementation",
        "label": "_ownedTokens",
        "offset": 0,
        "slot": "7",
        "type": "t_mapping(t_address,t_mapping(t_uint256,t_uint256))"
      },
      {
        "astId": 1192,
        "contract": "contracts/ethregistrar/BaseRegistrarImplementation.sol:BaseRegistrarImplementation",
        "label": "_ownedTokensIndex",
        "offset": 0,
        "slot": "8",
        "type": "t_mapping(t_uint256,t_uint256)"
      },
      {
        "astId": 1195,
        "contract": "contracts/ethregistrar/BaseRegistrarImplementation.sol:BaseRegistrarImplementation",
        "label": "_allTokens",
        "offset": 0,
        "slot": "9",
        "type": "t_array(t_uint256)dyn_storage"
      },
      {
        "astId": 1199,
        "contract": "contracts/ethregistrar/BaseRegistrarImplementation.sol:BaseRegistrarImplementation",
        "label": "_allTokensIndex",
        "offset": 0,
        "slot": "10",
        "type": "t_mapping(t_uint256,t_uint256)"
      },
      {
        "astId": 3207,
        "contract": "contracts/ethregistrar/BaseRegistrarImplementation.sol:BaseRegistrarImplementation",
        "label": "ens",
        "offset": 0,
        "slot": "11",
        "type": "t_contract(ENS)4502"
      },
      {
        "astId": 3209,
        "contract": "contracts/ethregistrar/BaseRegistrarImplementation.sol:BaseRegistrarImplementation",
        "label": "baseNode",
        "offset": 0,
        "slot": "12",
        "type": "t_bytes32"
      },
      {
        "astId": 3213,
        "contract": "contracts/ethregistrar/BaseRegistrarImplementation.sol:BaseRegistrarImplementation",
        "label": "controllers",
        "offset": 0,
        "slot": "13",
        "type": "t_mapping(t_address,t_bool)"
      },
      {
        "astId": 3319,
        "contract": "contracts/ethregistrar/BaseRegistrarImplementation.sol:BaseRegistrarImplementation",
        "label": "baseURI",
        "offset": 0,
        "slot": "14",
        "type": "t_string_storage"
      },
      {
        "astId": 3322,
        "contract": "contracts/ethregistrar/BaseRegistrarImplementation.sol:BaseRegistrarImplementation",
        "label": "_allTokenIds",
        "offset": 0,
        "slot": "15",
        "type": "t_array(t_uint256)dyn_storage"
      },
      {
        "astId": 3326,
        "contract": "contracts/ethregistrar/BaseRegistrarImplementation.sol:BaseRegistrarImplementation",
        "label": "_allTokenIdsIndex",
        "offset": 0,
        "slot": "16",
        "type": "t_mapping(t_uint256,t_uint256)"
      }
    ],
    "types": {
      "t_address": {
        "encoding": "inplace",
        "label": "address",
        "numberOfBytes": "20"
      },
      "t_array(t_uint256)dyn_storage": {
        "base": "t_uint256",
        "encoding": "dynamic_array",
        "label": "uint256[]",
        "numberOfBytes": "32"
      },
      "t_bool": {
        "encoding": "inplace",
        "label": "bool",
        "numberOfBytes": "1"
      },
      "t_bytes32": {
        "encoding": "inplace",
        "label": "bytes32",
        "numberOfBytes": "32"
      },
      "t_contract(ENS)4502": {
        "encoding": "inplace",
        "label": "contract ENS",
        "numberOfBytes": "20"
      },
      "t_mapping(t_address,t_bool)": {
        "encoding": "mapping",
        "key": "t_address",
        "label": "mapping(address => bool)",
        "numberOfBytes": "32",
        "value": "t_bool"
      },
      "t_mapping(t_address,t_mapping(t_address,t_bool))": {
        "encoding": "mapping",
        "key": "t_address",
        "label": "mapping(address => mapping(address => bool))",
        "numberOfBytes": "32",
        "value": "t_mapping(t_address,t_bool)"
      },
      "t_mapping(t_address,t_mapping(t_uint256,t_uint256))": {
        "encoding": "mapping",
        "key": "t_address",
        "label": "mapping(address => mapping(uint256 => uint256))",
        "numberOfBytes": "32",
        "value": "t_mapping(t_uint256,t_uint256)"
      },
      "t_mapping(t_address,t_uint256)": {
        "encoding": "mapping",
        "key": "t_address",
        "label": "mapping(address => uint256)",
        "numberOfBytes": "32",
        "value": "t_uint256"
      },
      "t_mapping(t_uint256,t_address)": {
        "encoding": "mapping",
        "key": "t_uint256",
        "label": "mapping(uint256 => address)",
        "numberOfBytes": "32",
        "value": "t_address"
      },
      "t_mapping(t_uint256,t_uint256)": {
        "encoding": "mapping",
        "key": "t_uint256",
        "label": "mapping(uint256 => uint256)",
        "numberOfBytes": "32",
        "value": "t_uint256"
      },
      "t_string_storage": {
        "encoding": "bytes",
        "label": "string",
        "numberOfBytes": "32"
      },
      "t_uint256": {
        "encoding": "inplace",
        "label": "uint256",
        "numberOfBytes": "32"
      }
    }
  }
}