{
  "_format": "hh-sol-artifact-1",
  "contractName": "PublicResolver",
  "sourceName": "contracts/resolvers/PublicResolver.sol",
  "abi": [
    {
      "inputs": [
        {
          "internalType": "contract ENS",
          "name": "_ens",
          "type": "address"
        }
      ],
      "stateMutability": "nonpayable",
      "type": "constructor"
    },
    {
      "anonymous": false,
      "inputs": [
        {
          "indexed": true,
          "internalType": "bytes32",
          "name": "node",
          "type": "bytes32"
        },
        {
          "indexed": true,
          "internalType": "uint256",
          "name": "contentType",
          "type": "uint256"
        }
      ],
      "name": "ABIChanged",
      "type": "event"
    },
    {
      "anonymous": false,
      "inputs": [
        {
          "indexed": true,
          "internalType": "bytes32",
          "name": "node",
          "type": "bytes32"
        },
        {
          "indexed": false,
          "internalType": "address",
          "name": "a",
          "type": "address"
        }
      ],
      "name": "AddrChanged",
      "type": "event"
    },
    {
      "anonymous": false,
      "inputs": [
        {
          "indexed": true,
          "internalType": "bytes32",
          "name": "node",
          "type": "bytes32"
        },
        {
          "indexed": false,
          "internalType": "uint256",
          "name": "coinType",
          "type": "uint256"
        },
        {
          "indexed": false,
          "internalType": "bytes",
          "name": "newAddress",
          "type": "bytes"
        }
      ],
      "name": "AddressChanged",
      "type": "event"
    },
    {
      "anonymous": false,
      "inputs": [
        {
          "indexed": true,
          "internalType": "bytes32",
          "name": "node",
          "type": "bytes32"
        },
        {
          "indexed": true,
          "internalType": "address",
          "name": "owner",
          "type": "address"
        },
        {
          "indexed": true,
          "internalType": "address",
          "name": "target",
          "type": "address"
        },
        {
          "indexed": false,
          "internalType": "bool",
          "name": "isAuthorised",
          "type": "bool"
        }
      ],
      "name": "AuthorisationChanged",
      "type": "event"
    },
    {
      "anonymous": false,
      "inputs": [
        {
          "indexed": true,
          "internalType": "bytes32",
          "name": "node",
          "type": "bytes32"
        },
        {
          "indexed": false,
          "internalType": "bytes",
          "name": "hash",
          "type": "bytes"
        }
      ],
      "name": "ContenthashChanged",
      "type": "event"
    },
    {
      "anonymous": false,
      "inputs": [
        {
          "indexed": true,
          "internalType": "bytes32",
          "name": "node",
          "type": "bytes32"
        },
        {
          "indexed": false,
          "internalType": "bytes",
          "name": "name",
          "type": "bytes"
        },
        {
          "indexed": false,
          "internalType": "uint16",
          "name": "resource",
          "type": "uint16"
        },
        {
          "indexed": false,
          "internalType": "bytes",
          "name": "record",
          "type": "bytes"
        }
      ],
      "name": "DNSRecordChanged",
      "type": "event"
    },
    {
      "anonymous": false,
      "inputs": [
        {
          "indexed": true,
          "internalType": "bytes32",
          "name": "node",
          "type": "bytes32"
        },
        {
          "indexed": false,
          "internalType": "bytes",
          "name": "name",
          "type": "bytes"
        },
        {
          "indexed": false,
          "internalType": "uint16",
          "name": "resource",
          "type": "uint16"
        }
      ],
      "name": "DNSRecordDeleted",
      "type": "event"
    },
    {
      "anonymous": false,
      "inputs": [
        {
          "indexed": true,
          "internalType": "bytes32",
          "name": "node",
          "type": "bytes32"
        }
      ],
      "name": "DNSZoneCleared",
      "type": "event"
    },
    {
      "anonymous": false,
      "inputs": [
        {
          "indexed": true,
          "internalType": "bytes32",
          "name": "node",
          "type": "bytes32"
        },
        {
          "indexed": false,
          "internalType": "bytes",
          "name": "lastzonehash",
          "type": "bytes"
        },
        {
          "indexed": false,
          "internalType": "bytes",
          "name": "zonehash",
          "type": "bytes"
        }
      ],
      "name": "DNSZonehashChanged",
      "type": "event"
    },
    {
      "anonymous": false,
      "inputs": [
        {
          "indexed": true,
          "internalType": "bytes32",
          "name": "node",
          "type": "bytes32"
        },
        {
          "indexed": true,
          "internalType": "bytes4",
          "name": "interfaceID",
          "type": "bytes4"
        },
        {
          "indexed": false,
          "internalType": "address",
          "name": "implementer",
          "type": "address"
        }
      ],
      "name": "InterfaceChanged",
      "type": "event"
    },
    {
      "anonymous": false,
      "inputs": [
        {
          "indexed": true,
          "internalType": "bytes32",
          "name": "node",
          "type": "bytes32"
        },
        {
          "indexed": false,
          "internalType": "string",
          "name": "name",
          "type": "string"
        }
      ],
      "name": "NameChanged",
      "type": "event"
    },
    {
      "anonymous": false,
      "inputs": [
        {
          "indexed": true,
          "internalType": "bytes32",
          "name": "node",
          "type": "bytes32"
        },
        {
          "indexed": false,
          "internalType": "bytes32",
          "name": "x",
          "type": "bytes32"
        },
        {
          "indexed": false,
          "internalType": "bytes32",
          "name": "y",
          "type": "bytes32"
        }
      ],
      "name": "PubkeyChanged",
      "type": "event"
    },
    {
      "anonymous": false,
      "inputs": [
        {
          "indexed": true,
          "internalType": "bytes32",
          "name": "node",
          "type": "bytes32"
        },
        {
          "indexed": true,
          "internalType": "string",
          "name": "indexedKey",
          "type": "string"
        },
        {
          "indexed": false,
          "internalType": "string",
          "name": "key",
          "type": "string"
        }
      ],
      "name": "TextChanged",
      "type": "event"
    },
    {
      "inputs": [
        {
          "internalType": "bytes32",
          "name": "node",
          "type": "bytes32"
        },
        {
          "internalType": "uint256",
          "name": "contentTypes",
          "type": "uint256"
        }
      ],
      "name": "ABI",
      "outputs": [
        {
          "internalType": "uint256",
          "name": "",
          "type": "uint256"
        },
        {
          "internalType": "bytes",
          "name": "",
          "type": "bytes"
        }
      ],
      "stateMutability": "view",
      "type": "function"
    },
    {
      "inputs": [
        {
          "internalType": "bytes32",
          "name": "node",
          "type": "bytes32"
        }
      ],
      "name": "addr",
      "outputs": [
        {
          "internalType": "address payable",
          "name": "",
          "type": "address"
        }
      ],
      "stateMutability": "view",
      "type": "function"
    },
    {
      "inputs": [
        {
          "internalType": "bytes32",
          "name": "node",
          "type": "bytes32"
        },
        {
          "internalType": "uint256",
          "name": "coinType",
          "type": "uint256"
        }
      ],
      "name": "addr",
      "outputs": [
        {
          "internalType": "bytes",
          "name": "",
          "type": "bytes"
        }
      ],
      "stateMutability": "view",
      "type": "function"
    },
    {
      "inputs": [
        {
          "internalType": "bytes32",
          "name": "",
          "type": "bytes32"
        },
        {
          "internalType": "address",
          "name": "",
          "type": "address"
        },
        {
          "internalType": "address",
          "name": "",
          "type": "address"
        }
      ],
      "name": "authorisations",
      "outputs": [
        {
          "internalType": "bool",
          "name": "",
          "type": "bool"
        }
      ],
      "stateMutability": "view",
      "type": "function"
    },
    {
      "inputs": [
        {
          "internalType": "bytes32",
          "name": "node",
          "type": "bytes32"
        }
      ],
      "name": "clearDNSZone",
      "outputs": [],
      "stateMutability": "nonpayable",
      "type": "function"
    },
    {
      "inputs": [
        {
          "internalType": "bytes32",
          "name": "node",
          "type": "bytes32"
        }
      ],
      "name": "contenthash",
      "outputs": [
        {
          "internalType": "bytes",
          "name": "",
          "type": "bytes"
        }
      ],
      "stateMutability": "view",
      "type": "function"
    },
    {
      "inputs": [
        {
          "internalType": "bytes32",
          "name": "node",
          "type": "bytes32"
        },
        {
          "internalType": "bytes32",
          "name": "name",
          "type": "bytes32"
        },
        {
          "internalType": "uint16",
          "name": "resource",
          "type": "uint16"
        }
      ],
      "name": "dnsRecord",
      "outputs": [
        {
          "internalType": "bytes",
          "name": "",
          "type": "bytes"
        }
      ],
      "stateMutability": "view",
      "type": "function"
    },
    {
      "inputs": [
        {
          "internalType": "bytes32",
          "name": "node",
          "type": "bytes32"
        },
        {
          "internalType": "bytes32",
          "name": "name",
          "type": "bytes32"
        }
      ],
      "name": "hasDNSRecords",
      "outputs": [
        {
          "internalType": "bool",
          "name": "",
          "type": "bool"
        }
      ],
      "stateMutability": "view",
      "type": "function"
    },
    {
      "inputs": [
        {
          "internalType": "bytes32",
          "name": "node",
          "type": "bytes32"
        },
        {
          "internalType": "bytes4",
          "name": "interfaceID",
          "type": "bytes4"
        }
      ],
      "name": "interfaceImplementer",
      "outputs": [
        {
          "internalType": "address",
          "name": "",
          "type": "address"
        }
      ],
      "stateMutability": "view",
      "type": "function"
    },
    {
      "inputs": [
        {
          "internalType": "bytes[]",
          "name": "data",
          "type": "bytes[]"
        }
      ],
      "name": "multicall",
      "outputs": [
        {
          "internalType": "bytes[]",
          "name": "results",
          "type": "bytes[]"
        }
      ],
      "stateMutability": "nonpayable",
      "type": "function"
    },
    {
      "inputs": [
        {
          "internalType": "bytes32",
          "name": "node",
          "type": "bytes32"
        }
      ],
      "name": "name",
      "outputs": [
        {
          "internalType": "string",
          "name": "",
          "type": "string"
        }
      ],
      "stateMutability": "view",
      "type": "function"
    },
    {
      "inputs": [
        {
          "internalType": "bytes32",
          "name": "node",
          "type": "bytes32"
        }
      ],
      "name": "pubkey",
      "outputs": [
        {
          "internalType": "bytes32",
          "name": "x",
          "type": "bytes32"
        },
        {
          "internalType": "bytes32",
          "name": "y",
          "type": "bytes32"
        }
      ],
      "stateMutability": "view",
      "type": "function"
    },
    {
      "inputs": [
        {
          "internalType": "bytes32",
          "name": "node",
          "type": "bytes32"
        },
        {
          "internalType": "uint256",
          "name": "contentType",
          "type": "uint256"
        },
        {
          "internalType": "bytes",
          "name": "data",
          "type": "bytes"
        }
      ],
      "name": "setABI",
      "outputs": [],
      "stateMutability": "nonpayable",
      "type": "function"
    },
    {
      "inputs": [
        {
          "internalType": "bytes32",
          "name": "node",
          "type": "bytes32"
        },
        {
          "internalType": "uint256",
          "name": "coinType",
          "type": "uint256"
        },
        {
          "internalType": "bytes",
          "name": "a",
          "type": "bytes"
        }
      ],
      "name": "setAddr",
      "outputs": [],
      "stateMutability": "nonpayable",
      "type": "function"
    },
    {
      "inputs": [
        {
          "internalType": "bytes32",
          "name": "node",
          "type": "bytes32"
        },
        {
          "internalType": "address",
          "name": "a",
          "type": "address"
        }
      ],
      "name": "setAddr",
      "outputs": [],
      "stateMutability": "nonpayable",
      "type": "function"
    },
    {
      "inputs": [
        {
          "internalType": "bytes32",
          "name": "node",
          "type": "bytes32"
        },
        {
          "internalType": "address",
          "name": "target",
          "type": "address"
        },
        {
          "internalType": "bool",
          "name": "isAuthorised",
          "type": "bool"
        }
      ],
      "name": "setAuthorisation",
      "outputs": [],
      "stateMutability": "nonpayable",
      "type": "function"
    },
    {
      "inputs": [
        {
          "internalType": "bytes32",
          "name": "node",
          "type": "bytes32"
        },
        {
          "internalType": "bytes",
          "name": "hash",
          "type": "bytes"
        }
      ],
      "name": "setContenthash",
      "outputs": [],
      "stateMutability": "nonpayable",
      "type": "function"
    },
    {
      "inputs": [
        {
          "internalType": "bytes32",
          "name": "node",
          "type": "bytes32"
        },
        {
          "internalType": "bytes",
          "name": "data",
          "type": "bytes"
        }
      ],
      "name": "setDNSRecords",
      "outputs": [],
      "stateMutability": "nonpayable",
      "type": "function"
    },
    {
      "inputs": [
        {
          "internalType": "bytes32",
          "name": "node",
          "type": "bytes32"
        },
        {
          "internalType": "bytes4",
          "name": "interfaceID",
          "type": "bytes4"
        },
        {
          "internalType": "address",
          "name": "implementer",
          "type": "address"
        }
      ],
      "name": "setInterface",
      "outputs": [],
      "stateMutability": "nonpayable",
      "type": "function"
    },
    {
      "inputs": [
        {
          "internalType": "bytes32",
          "name": "node",
          "type": "bytes32"
        },
        {
          "internalType": "string",
          "name": "name",
          "type": "string"
        }
      ],
      "name": "setName",
      "outputs": [],
      "stateMutability": "nonpayable",
      "type": "function"
    },
    {
      "inputs": [
        {
          "internalType": "bytes32",
          "name": "node",
          "type": "bytes32"
        },
        {
          "internalType": "bytes32",
          "name": "x",
          "type": "bytes32"
        },
        {
          "internalType": "bytes32",
          "name": "y",
          "type": "bytes32"
        }
      ],
      "name": "setPubkey",
      "outputs": [],
      "stateMutability": "nonpayable",
      "type": "function"
    },
    {
      "inputs": [
        {
          "internalType": "bytes32",
          "name": "node",
          "type": "bytes32"
        },
        {
          "internalType": "string",
          "name": "key",
          "type": "string"
        },
        {
          "internalType": "string",
          "name": "value",
          "type": "string"
        }
      ],
      "name": "setText",
      "outputs": [],
      "stateMutability": "nonpayable",
      "type": "function"
    },
    {
      "inputs": [
        {
          "internalType": "bytes32",
          "name": "node",
          "type": "bytes32"
        },
        {
          "internalType": "bytes",
          "name": "hash",
          "type": "bytes"
        }
      ],
      "name": "setZonehash",
      "outputs": [],
      "stateMutability": "nonpayable",
      "type": "function"
    },
    {
      "inputs": [
        {
          "internalType": "bytes4",
          "name": "interfaceID",
          "type": "bytes4"
        }
      ],
      "name": "supportsInterface",
      "outputs": [
        {
          "internalType": "bool",
          "name": "",
          "type": "bool"
        }
      ],
      "stateMutability": "pure",
      "type": "function"
    },
    {
      "inputs": [
        {
          "internalType": "bytes32",
          "name": "node",
          "type": "bytes32"
        },
        {
          "internalType": "string",
          "name": "key",
          "type": "string"
        }
      ],
      "name": "text",
      "outputs": [
        {
          "internalType": "string",
          "name": "",
          "type": "string"
        }
      ],
      "stateMutability": "view",
      "type": "function"
    },
    {
      "inputs": [
        {
          "internalType": "bytes32",
          "name": "node",
          "type": "bytes32"
        }
      ],
      "name": "zonehash",
      "outputs": [
        {
          "internalType": "bytes",
          "name": "",
          "type": "bytes"
        }
      ],
      "stateMutability": "view",
      "type": "function"
    }
  ],
  "bytecode": "0x60806040523480156200001157600080fd5b5060405162003f1838038062003f18833981810160405281019062000037919062000096565b80600b60006101000a81548173ffffffffffffffffffffffffffffffffffffffff021916908373ffffffffffffffffffffffffffffffffffffffff1602179055505062000124565b60008151905062000090816200010a565b92915050565b600060208284031215620000a957600080fd5b6000620000b9848285016200007f565b91505092915050565b6000620000cf82620000ea565b9050919050565b6000620000e382620000c2565b9050919050565b600073ffffffffffffffffffffffffffffffffffffffff82169050919050565b6200011581620000d6565b81146200012157600080fd5b50565b613de480620001346000396000f3fe608060405234801561001057600080fd5b506004361061018e5760003560e01c8063691f3431116100de578063bc1c58d111610097578063d5fa2b0011610071578063d5fa2b00146104ed578063e59d895d14610509578063f1cb7e0614610525578063f86bc879146105555761018e565b8063bc1c58d114610470578063c8690233146104a0578063ce3decdc146104d15761018e565b8063691f34311461038c57806377372213146103bc5780638b95dd71146103d8578063a8fa5682146103f4578063ac9650d814610424578063ad5780af146104545761018e565b8063304e6ade1161014b5780634cbf6ba4116101255780634cbf6ba4146102e057806359d1d43c146103105780635c98042b14610340578063623195b0146103705761018e565b8063304e6ade146102785780633b3b57de146102945780633e9ce794146102c45761018e565b806301ffc9a7146101935780630af179d7146101c357806310f13a8c146101df578063124a319c146101fb5780632203ab561461022b57806329cd62ea1461025c575b600080fd5b6101ad60048036038101906101a89190613356565b610585565b6040516101ba91906136bc565b60405180910390f35b6101dd60048036038101906101d8919061310e565b610597565b005b6101f960048036038101906101f491906131be565b6107c9565b005b61021560048036038101906102109190613083565b610877565b6040516102229190613649565b60405180910390f35b61024560048036038101906102409190613247565b610cbb565b604051610253929190613870565b60405180910390f35b61027660048036038101906102719190612fe5565b610def565b005b610292600480360381019061028d919061310e565b610e81565b005b6102ae60048036038101906102a99190612ea6565b610ef7565b6040516102bb919061367f565b60405180910390f35b6102de60048036038101906102d99190612f5a565b610f2e565b005b6102fa60048036038101906102f59190612fa9565b61103e565b60405161030791906136bc565b60405180910390f35b61032a60048036038101906103259190613166565b6110a6565b604051610337919061384e565b60405180910390f35b61035a60048036038101906103559190612ea6565b61116b565b604051610367919061375a565b60405180910390f35b61038a60048036038101906103859190613283565b611210565b005b6103a660048036038101906103a19190612ea6565b6112a6565b6040516103b3919061384e565b60405180910390f35b6103d660048036038101906103d19190613166565b61134b565b005b6103f260048036038101906103ed91906132ef565b6113c1565b005b61040e60048036038101906104099190613034565b611498565b60405161041b919061375a565b60405180910390f35b61043e60048036038101906104399190612e61565b61158d565b60405161044b919061369a565b60405180910390f35b61046e60048036038101906104699190612ea6565b611739565b005b61048a60048036038101906104859190612ea6565b6117a6565b604051610497919061375a565b60405180910390f35b6104ba60048036038101906104b59190612ea6565b61184b565b6040516104c89291906136f2565b60405180910390f35b6104eb60048036038101906104e6919061310e565b611885565b005b61050760048036038101906105029190612ecf565b61199e565b005b610523600480360381019061051e91906130bf565b6119cb565b005b61053f600480360381019061053a9190613247565b611add565b60405161054c919061375a565b60405180910390f35b61056f600480360381019061056a9190612f0b565b611b94565b60405161057c91906136bc565b60405180910390f35b600061059082611bd0565b9050919050565b826105a181611c31565b6105aa57600080fd5b60008060608060008061060b60008a8a8080601f016020809104026020016040519081016040528093929190818152602001838380828437600081840152601f19601f82011690508083019250505050505050611dba90919063ffffffff16565b90505b61061781611de4565b61074d5760008661ffff161415610673578060400151955061063881611dfa565b93508360405160200161064b9190613619565b60405160208183030381529060405280519060200120915061066c81611e31565b925061073f565b600061067e82611dfa565b9050816040015161ffff168761ffff161415806106ab57506106a98186611e6a90919063ffffffff16565b155b1561073d576107168b86898d8d8080601f016020809104026020016040519081016040528093929190818152602001838380828437600081840152601f19601f820116905080830192505050505050508a8b886020015161070c9190613a3b565b60008b5114611e91565b81604001519650816020015195508094508480519060200120925061073a82611e31565b93505b505b610748816121bc565b61060e565b506000835111156107be576107bd8984878b8b8080601f016020809104026020016040519081016040528093929190818152602001838380828437600081840152601f19601f8201169050808301925050505050505088898e8e90506107b39190613a3b565b6000895114611e91565b5b505050505050505050565b846107d381611c31565b6107dc57600080fd5b8282600a60008981526020019081526020016000208787604051610801929190613630565b9081526020016040518091039020919061081c929190612a25565b50848460405161082d929190613630565b6040518091039020867fd8c9334b1a9c2f9da342a0a2b32629c1a229b6445dad78947f674b44444a7550878760405161086792919061382a565b60405180910390a3505050505050565b600080600760008581526020019081526020016000206000847bffffffffffffffffffffffffffffffffffffffffffffffffffffffff19167bffffffffffffffffffffffffffffffffffffffffffffffffffffffff1916815260200190815260200160002060009054906101000a900473ffffffffffffffffffffffffffffffffffffffff169050600073ffffffffffffffffffffffffffffffffffffffff168173ffffffffffffffffffffffffffffffffffffffff161461093c5780915050610cb5565b600061094785610ef7565b9050600073ffffffffffffffffffffffffffffffffffffffff168173ffffffffffffffffffffffffffffffffffffffff16141561098957600092505050610cb5565b6000808273ffffffffffffffffffffffffffffffffffffffff166301ffc9a760e01b6040516024016109bb919061371b565b6040516020818303038152906040527f01ffc9a7000000000000000000000000000000000000000000000000000000007bffffffffffffffffffffffffffffffffffffffffffffffffffffffff19166020820180517bffffffffffffffffffffffffffffffffffffffffffffffffffffffff8381831617835250505050604051610a459190613619565b600060405180830381855afa9150503d8060008114610a80576040519150601f19603f3d011682016040523d82523d6000602084013e610a85565b606091505b5091509150811580610a98575060208151105b80610b0c5750600060f81b81601f81518110610add577f4e487b7100000000000000000000000000000000000000000000000000000000600052603260045260246000fd5b602001015160f81c60f81b7effffffffffffffffffffffffffffffffffffffffffffffffffffffffffffff1916145b15610b1e576000945050505050610cb5565b8273ffffffffffffffffffffffffffffffffffffffff1686604051602401610b46919061371b565b6040516020818303038152906040527f01ffc9a7000000000000000000000000000000000000000000000000000000007bffffffffffffffffffffffffffffffffffffffffffffffffffffffff19166020820180517bffffffffffffffffffffffffffffffffffffffffffffffffffffffff8381831617835250505050604051610bd09190613619565b600060405180830381855afa9150503d8060008114610c0b576040519150601f19603f3d011682016040523d82523d6000602084013e610c10565b606091505b508092508193505050811580610c27575060208151105b80610c9b5750600060f81b81601f81518110610c6c577f4e487b7100000000000000000000000000000000000000000000000000000000600052603260045260246000fd5b602001015160f81c60f81b7effffffffffffffffffffffffffffffffffffffffffffffffffffffffffffff1916145b15610cad576000945050505050610cb5565b829450505050505b92915050565b60006060600080600086815260200190815260200160002090506000600190505b848111610dcf57600085821614158015610d14575060008260008381526020019081526020016000208054610d1090613baf565b9050115b15610dc35780826000838152602001908152602001600020808054610d3890613baf565b80601f0160208091040260200160405190810160405280929190818152602001828054610d6490613baf565b8015610db15780601f10610d8657610100808354040283529160200191610db1565b820191906000526020600020905b815481529060010190602001808311610d9457829003601f168201915b50505050509050935093505050610de8565b600181901b9050610cdc565b5060006040518060200160405280600081525092509250505b9250929050565b82610df981611c31565b610e0257600080fd5b604051806040016040528084815260200183815250600960008681526020019081526020016000206000820151816000015560208201518160010155905050837f1d6f5e03d3f63eb58751986629a5439baee5079ff04f345becb66e23eb154e468484604051610e739291906136f2565b60405180910390a250505050565b82610e8b81611c31565b610e9457600080fd5b8282600260008781526020019081526020016000209190610eb6929190612aab565b50837fe379c1624ed7e714cc0937528a32359d69d5281337765313dba4e081b72d75788484604051610ee9929190613736565b60405180910390a250505050565b600080610f06836103dc611add565b9050600081511415610f1c576000915050610f29565b610f2581612306565b9150505b919050565b80600c600085815260200190815260200160002060003373ffffffffffffffffffffffffffffffffffffffff1673ffffffffffffffffffffffffffffffffffffffff16815260200190815260200160002060008473ffffffffffffffffffffffffffffffffffffffff1673ffffffffffffffffffffffffffffffffffffffff16815260200190815260200160002060006101000a81548160ff0219169083151502179055508173ffffffffffffffffffffffffffffffffffffffff163373ffffffffffffffffffffffffffffffffffffffff16847fe1c5610a6e0cbe10764ecd182adcef1ec338dc4e199c99c32ce98f38e12791df8460405161103191906136bc565b60405180910390a4505050565b60008060066000858152602001908152602001600020600060046000878152602001908152602001600020548152602001908152602001600020600084815260200190815260200160002060009054906101000a900461ffff1661ffff161415905092915050565b6060600a600085815260200190815260200160002083836040516110cb929190613630565b908152602001604051809103902080546110e490613baf565b80601f016020809104026020016040519081016040528092919081815260200182805461111090613baf565b801561115d5780601f106111325761010080835404028352916020019161115d565b820191906000526020600020905b81548152906001019060200180831161114057829003601f168201915b505050505090509392505050565b606060036000838152602001908152602001600020805461118b90613baf565b80601f01602080910402602001604051908101604052809291908181526020018280546111b790613baf565b80156112045780601f106111d957610100808354040283529160200191611204565b820191906000526020600020905b8154815290600101906020018083116111e757829003601f168201915b50505050509050919050565b8361121a81611c31565b61122357600080fd5b6000846001866112339190613a3b565b161461123e57600080fd5b828260008088815260200190815260200160002060008781526020019081526020016000209190611270929190612aab565b5083857faa121bbeef5f32f5961a2a28966e769023910fc9479059ee3495d4c1a696efe360405160405180910390a35050505050565b60606008600083815260200190815260200160002080546112c690613baf565b80601f01602080910402602001604051908101604052809291908181526020018280546112f290613baf565b801561133f5780601f106113145761010080835404028352916020019161133f565b820191906000526020600020905b81548152906001019060200180831161132257829003601f168201915b50505050509050919050565b8261135581611c31565b61135e57600080fd5b8282600860008781526020019081526020016000209190611380929190612a25565b50837fb7d29e911041e8d9b843369e890bcb72c9388692ba48b65ac54e7214c4c348f784846040516113b392919061382a565b60405180910390a250505050565b826113cb81611c31565b6113d457600080fd5b837f65412581168e88a1e60c6459d7f44ae83ad0832e670826c05a4e2476b57af7528484604051611406929190613870565b60405180910390a26103dc83141561145957837f52d7d861f09ab3d26239d492e8968629f95e9e318cf0b73bfddc441522a15fd261144384612306565b6040516114509190613664565b60405180910390a25b816001600086815260200190815260200160002060008581526020019081526020016000209080519060200190611491929190612b31565b5050505050565b606060056000858152602001908152602001600020600060046000878152602001908152602001600020548152602001908152602001600020600084815260200190815260200160002060008361ffff1661ffff168152602001908152602001600020805461150690613baf565b80601f016020809104026020016040519081016040528092919081815260200182805461153290613baf565b801561157f5780601f106115545761010080835404028352916020019161157f565b820191906000526020600020905b81548152906001019060200180831161156257829003601f168201915b505050505090509392505050565b60608282905067ffffffffffffffff8111156115d2577f4e487b7100000000000000000000000000000000000000000000000000000000600052604160045260246000fd5b60405190808252806020026020018201604052801561160557816020015b60608152602001906001900390816115f05790505b50905060005b83839050811015611732576000803073ffffffffffffffffffffffffffffffffffffffff16868685818110611669577f4e487b7100000000000000000000000000000000000000000000000000000000600052603260045260246000fd5b905060200281019061167b91906138a0565b604051611689929190613600565b600060405180830381855af49150503d80600081146116c4576040519150601f19603f3d011682016040523d82523d6000602084013e6116c9565b606091505b5091509150816116d857600080fd5b80848481518110611712577f4e487b7100000000000000000000000000000000000000000000000000000000600052603260045260246000fd5b60200260200101819052505050808061172a90613c3d565b91505061160b565b5092915050565b8061174381611c31565b61174c57600080fd5b60046000838152602001908152602001600020600081548092919061177090613c3d565b9190505550817fb757169b8492ca2f1c6619d9d76ce22803035c3b1d5f6930dffe7b127c1a198360405160405180910390a25050565b60606002600083815260200190815260200160002080546117c690613baf565b80601f01602080910402602001604051908101604052809291908181526020018280546117f290613baf565b801561183f5780601f106118145761010080835404028352916020019161183f565b820191906000526020600020905b81548152906001019060200180831161182257829003601f168201915b50505050509050919050565b6000806009600084815260200190815260200160002060000154600960008581526020019081526020016000206001015491509150915091565b8261188f81611c31565b61189857600080fd5b60006003600086815260200190815260200160002080546118b890613baf565b80601f01602080910402602001604051908101604052809291908181526020018280546118e490613baf565b80156119315780601f1061190657610100808354040283529160200191611931565b820191906000526020600020905b81548152906001019060200180831161191457829003601f168201915b50505050509050838360036000888152602001908152602001600020919061195a929190612aab565b50847f8f15ed4b723ef428f250961da8315675b507046737e19319fc1a4d81bfe87f8582868660405161198f9392919061377c565b60405180910390a25050505050565b816119a881611c31565b6119b157600080fd5b6119c6836103dc6119c185612329565b6113c1565b505050565b826119d581611c31565b6119de57600080fd5b81600760008681526020019081526020016000206000857bffffffffffffffffffffffffffffffffffffffffffffffffffffffff19167bffffffffffffffffffffffffffffffffffffffffffffffffffffffff1916815260200190815260200160002060006101000a81548173ffffffffffffffffffffffffffffffffffffffff021916908373ffffffffffffffffffffffffffffffffffffffff160217905550827bffffffffffffffffffffffffffffffffffffffffffffffffffffffff1916847f7c69f06bea0bdef565b709e93a147836b0063ba2dd89f02d0b7e8d931e6a6daa84604051611acf9190613649565b60405180910390a350505050565b60606001600084815260200190815260200160002060008381526020019081526020016000208054611b0e90613baf565b80601f0160208091040260200160405190810160405280929190818152602001828054611b3a90613baf565b8015611b875780601f10611b5c57610100808354040283529160200191611b87565b820191906000526020600020905b815481529060010190602001808311611b6a57829003601f168201915b5050505050905092915050565b600c602052826000526040600020602052816000526040600020602052806000526040600020600092509250509054906101000a900460ff1681565b60006359d1d43c60e01b7bffffffffffffffffffffffffffffffffffffffffffffffffffffffff1916827bffffffffffffffffffffffffffffffffffffffffffffffffffffffff19161480611c2a5750611c29826123b3565b5b9050919050565b600080600b60009054906101000a900473ffffffffffffffffffffffffffffffffffffffff1673ffffffffffffffffffffffffffffffffffffffff166302571be3846040518263ffffffff1660e01b8152600401611c8f91906136d7565b60206040518083038186803b158015611ca757600080fd5b505afa158015611cbb573d6000803e3d6000fd5b505050506040513d601f19601f82011682018060405250810190611cdf9190612e38565b90503373ffffffffffffffffffffffffffffffffffffffff168173ffffffffffffffffffffffffffffffffffffffff161480611db25750600c600084815260200190815260200160002060008273ffffffffffffffffffffffffffffffffffffffff1673ffffffffffffffffffffffffffffffffffffffff16815260200190815260200160002060003373ffffffffffffffffffffffffffffffffffffffff1673ffffffffffffffffffffffffffffffffffffffff16815260200190815260200160002060009054906101000a900460ff165b915050919050565b611dc2612bb7565b828160000181905250818160c0018181525050611dde816121bc565b92915050565b6000816000015151826020015110159050919050565b6060611e2a8260200151611e1684600001518560200151612414565b84600001516124b79092919063ffffffff16565b9050919050565b6060611e638260a001518360a001518460c00151611e4f9190613a3b565b84600001516124b79092919063ffffffff16565b9050919050565b600081518351148015611e895750611e888360008460008751612572565b5b905092915050565b6000600460008981526020019081526020016000205490506000878051906020012090506000611ecc8686896124b79092919063ffffffff16565b9050831561203e576000600560008c81526020019081526020016000206000858152602001908152602001600020600084815260200190815260200160002060008a61ffff1661ffff1681526020019081526020016000208054611f2f90613baf565b905014611fa557600660008b815260200190815260200160002060008481526020019081526020016000206000838152602001908152602001600020600081819054906101000a900461ffff1680929190611f8990613b85565b91906101000a81548161ffff021916908361ffff160217905550505b600560008b81526020019081526020016000206000848152602001908152602001600020600083815260200190815260200160002060008961ffff1661ffff1681526020019081526020016000206000611fff9190612c02565b897f03528ed0c2a3ebc993b12ce3c16bb382f9c7d88ef7d8a1bf290eaf35955a12078a8a6040516120319291906137b5565b60405180910390a26121b0565b6000600560008c81526020019081526020016000206000858152602001908152602001600020600084815260200190815260200160002060008a61ffff1661ffff168152602001908152602001600020805461209990613baf565b9050141561211057600660008b815260200190815260200160002060008481526020019081526020016000206000838152602001908152602001600020600081819054906101000a900461ffff16809291906120f490613c12565b91906101000a81548161ffff021916908361ffff160217905550505b80600560008c81526020019081526020016000206000858152602001908152602001600020600084815260200190815260200160002060008a61ffff1661ffff1681526020019081526020016000209080519060200190612172929190612b31565b50897f52a608b3303a48862d07a73d82fa221318c0027fbbcfb1b2329bface3f19ff2b8a8a846040516121a7939291906137e5565b60405180910390a25b50505050505050505050565b8060c001518160200181815250508060000151518160200151106121df57612303565b60006121f382600001518360200151612414565b826020015161220291906139e5565b905061221b81836000015161259690919063ffffffff16565b826040019061ffff16908161ffff168152505060028161223b91906139e5565b905061225481836000015161259690919063ffffffff16565b826060019061ffff16908161ffff168152505060028161227491906139e5565b905061228d8183600001516125c590919063ffffffff16565b826080019063ffffffff16908163ffffffff16815250506004816122b191906139e5565b905060006122cc82846000015161259690919063ffffffff16565b61ffff1690506002826122df91906139e5565b9150818360a001818152505080826122f791906139e5565b8360c001818152505050505b50565b6000601482511461231657600080fd5b600c6101000a6020830151049050919050565b6060601467ffffffffffffffff81111561236c577f4e487b7100000000000000000000000000000000000000000000000000000000600052604160045260246000fd5b6040519080825280601f01601f19166020018201604052801561239e5781602001600182028036833780820191505090505b509050600c6101000a82026020820152919050565b600063c869023360e01b7bffffffffffffffffffffffffffffffffffffffffffffffffffffffff1916827bffffffffffffffffffffffffffffffffffffffffffffffffffffffff1916148061240d575061240c826125f6565b5b9050919050565b6000808290505b6001156124a25783518110612459577f4e487b7100000000000000000000000000000000000000000000000000000000600052600160045260246000fd5b600061246e828661265790919063ffffffff16565b60ff16905060018161248091906139e5565b8261248b91906139e5565b9150600081141561249c57506124a2565b5061241b565b82816124ae9190613a3b565b91505092915050565b6060835182846124c791906139e5565b11156124d257600080fd5b60008267ffffffffffffffff811115612514577f4e487b7100000000000000000000000000000000000000000000000000000000600052604160045260246000fd5b6040519080825280601f01601f1916602001820160405280156125465781602001600182028036833780820191505090505b50905060008060208301915085602088010190506125658282876126a8565b8293505050509392505050565b600061257f84848461270c565b61258a87878561270c565b14905095945050505050565b600082516002836125a791906139e5565b11156125b257600080fd5b61ffff8260028501015116905092915050565b600082516004836125d691906139e5565b11156125e157600080fd5b63ffffffff8260048501015116905092915050565b600063691f343160e01b7bffffffffffffffffffffffffffffffffffffffffffffffffffffffff1916827bffffffffffffffffffffffffffffffffffffffffffffffffffffffff19161480612650575061264f82612738565b5b9050919050565b6000828281518110612692577f4e487b7100000000000000000000000000000000000000000000000000000000600052603260045260246000fd5b602001015160f81c60f81b60f81c905092915050565b5b602081106126e757815183526020836126c291906139e5565b92506020826126d191906139e5565b91506020816126e09190613a3b565b90506126a9565b60006001826020036101000a0390508019835116818551168181178652505050505050565b60008351828461271c91906139e5565b111561272757600080fd5b818360208601012090509392505050565b60007f124a319c1247f4318c3c16c7e9cc865d0fb5d80d7bf02f56cafc0d14da0208507bffffffffffffffffffffffffffffffffffffffffffffffffffffffff1916827bffffffffffffffffffffffffffffffffffffffffffffffffffffffff191614806127ab57506127aa826127b2565b5b9050919050565b600063a8fa568260e01b7bffffffffffffffffffffffffffffffffffffffffffffffffffffffff1916827bffffffffffffffffffffffffffffffffffffffffffffffffffffffff1916148061284b5750635c47637c60e01b7bffffffffffffffffffffffffffffffffffffffffffffffffffffffff1916827bffffffffffffffffffffffffffffffffffffffffffffffffffffffff1916145b8061285b575061285a82612862565b5b9050919050565b600063bc1c58d160e01b7bffffffffffffffffffffffffffffffffffffffffffffffffffffffff1916827bffffffffffffffffffffffffffffffffffffffffffffffffffffffff191614806128bc57506128bb826128c3565b5b9050919050565b6000633b3b57de60e01b7bffffffffffffffffffffffffffffffffffffffffffffffffffffffff1916827bffffffffffffffffffffffffffffffffffffffffffffffffffffffff1916148061295c575063f1cb7e0660e01b7bffffffffffffffffffffffffffffffffffffffffffffffffffffffff1916827bffffffffffffffffffffffffffffffffffffffffffffffffffffffff1916145b8061296c575061296b82612973565b5b9050919050565b6000632203ab5660e01b7bffffffffffffffffffffffffffffffffffffffffffffffffffffffff1916827bffffffffffffffffffffffffffffffffffffffffffffffffffffffff191614806129cd57506129cc826129d4565b5b9050919050565b60006301ffc9a760e01b7bffffffffffffffffffffffffffffffffffffffffffffffffffffffff1916827bffffffffffffffffffffffffffffffffffffffffffffffffffffffff1916149050919050565b828054612a3190613baf565b90600052602060002090601f016020900481019282612a535760008555612a9a565b82601f10612a6c57803560ff1916838001178555612a9a565b82800160010185558215612a9a579182015b82811115612a99578235825591602001919060010190612a7e565b5b509050612aa79190612c42565b5090565b828054612ab790613baf565b90600052602060002090601f016020900481019282612ad95760008555612b20565b82601f10612af257803560ff1916838001178555612b20565b82800160010185558215612b20579182015b82811115612b1f578235825591602001919060010190612b04565b5b509050612b2d9190612c42565b5090565b828054612b3d90613baf565b90600052602060002090601f016020900481019282612b5f5760008555612ba6565b82601f10612b7857805160ff1916838001178555612ba6565b82800160010185558215612ba6579182015b82811115612ba5578251825591602001919060010190612b8a565b5b509050612bb39190612c42565b5090565b6040518060e001604052806060815260200160008152602001600061ffff168152602001600061ffff168152602001600063ffffffff16815260200160008152602001600081525090565b508054612c0e90613baf565b6000825580601f10612c205750612c3f565b601f016020900490600052602060002090810190612c3e9190612c42565b5b50565b5b80821115612c5b576000816000905550600101612c43565b5090565b6000612c72612c6d8461391c565b6138f7565b905082815260208101848484011115612c8a57600080fd5b612c95848285613b43565b509392505050565b600081359050612cac81613d24565b92915050565b600081519050612cc181613d24565b92915050565b60008083601f840112612cd957600080fd5b8235905067ffffffffffffffff811115612cf257600080fd5b602083019150836020820283011115612d0a57600080fd5b9250929050565b600081359050612d2081613d3b565b92915050565b600081359050612d3581613d52565b92915050565b600081359050612d4a81613d69565b92915050565b60008083601f840112612d6257600080fd5b8235905067ffffffffffffffff811115612d7b57600080fd5b602083019150836001820283011115612d9357600080fd5b9250929050565b600082601f830112612dab57600080fd5b8135612dbb848260208601612c5f565b91505092915050565b60008083601f840112612dd657600080fd5b8235905067ffffffffffffffff811115612def57600080fd5b602083019150836001820283011115612e0757600080fd5b9250929050565b600081359050612e1d81613d80565b92915050565b600081359050612e3281613d97565b92915050565b600060208284031215612e4a57600080fd5b6000612e5884828501612cb2565b91505092915050565b60008060208385031215612e7457600080fd5b600083013567ffffffffffffffff811115612e8e57600080fd5b612e9a85828601612cc7565b92509250509250929050565b600060208284031215612eb857600080fd5b6000612ec684828501612d26565b91505092915050565b60008060408385031215612ee257600080fd5b6000612ef085828601612d26565b9250506020612f0185828601612c9d565b9150509250929050565b600080600060608486031215612f2057600080fd5b6000612f2e86828701612d26565b9350506020612f3f86828701612c9d565b9250506040612f5086828701612c9d565b9150509250925092565b600080600060608486031215612f6f57600080fd5b6000612f7d86828701612d26565b9350506020612f8e86828701612c9d565b9250506040612f9f86828701612d11565b9150509250925092565b60008060408385031215612fbc57600080fd5b6000612fca85828601612d26565b9250506020612fdb85828601612d26565b9150509250929050565b600080600060608486031215612ffa57600080fd5b600061300886828701612d26565b935050602061301986828701612d26565b925050604061302a86828701612d26565b9150509250925092565b60008060006060848603121561304957600080fd5b600061305786828701612d26565b935050602061306886828701612d26565b925050604061307986828701612e0e565b9150509250925092565b6000806040838503121561309657600080fd5b60006130a485828601612d26565b92505060206130b585828601612d3b565b9150509250929050565b6000806000606084860312156130d457600080fd5b60006130e286828701612d26565b93505060206130f386828701612d3b565b925050604061310486828701612c9d565b9150509250925092565b60008060006040848603121561312357600080fd5b600061313186828701612d26565b935050602084013567ffffffffffffffff81111561314e57600080fd5b61315a86828701612d50565b92509250509250925092565b60008060006040848603121561317b57600080fd5b600061318986828701612d26565b935050602084013567ffffffffffffffff8111156131a657600080fd5b6131b286828701612dc4565b92509250509250925092565b6000806000806000606086880312156131d657600080fd5b60006131e488828901612d26565b955050602086013567ffffffffffffffff81111561320157600080fd5b61320d88828901612dc4565b9450945050604086013567ffffffffffffffff81111561322c57600080fd5b61323888828901612dc4565b92509250509295509295909350565b6000806040838503121561325a57600080fd5b600061326885828601612d26565b925050602061327985828601612e23565b9150509250929050565b6000806000806060858703121561329957600080fd5b60006132a787828801612d26565b94505060206132b887828801612e23565b935050604085013567ffffffffffffffff8111156132d557600080fd5b6132e187828801612d50565b925092505092959194509250565b60008060006060848603121561330457600080fd5b600061331286828701612d26565b935050602061332386828701612e23565b925050604084013567ffffffffffffffff81111561334057600080fd5b61334c86828701612d9a565b9150509250925092565b60006020828403121561336857600080fd5b600061337684828501612d3b565b91505092915050565b600061338b83836134b4565b905092915050565b61339c81613b0d565b82525050565b6133ab81613a81565b82525050565b6133ba81613a6f565b82525050565b60006133cb8261395d565b6133d5818561398b565b9350836020820285016133e78561394d565b8060005b858110156134235784840389528151613404858261337f565b945061340f8361397e565b925060208a019950506001810190506133eb565b50829750879550505050505092915050565b61343e81613a93565b82525050565b61344d81613a9f565b82525050565b61345c81613aa9565b82525050565b600061346e83856139ad565b935061347b838584613b43565b61348483613d13565b840190509392505050565b600061349b83856139be565b93506134a8838584613b43565b82840190509392505050565b60006134bf82613968565b6134c9818561399c565b93506134d9818560208601613b52565b6134e281613d13565b840191505092915050565b60006134f882613968565b61350281856139ad565b9350613512818560208601613b52565b61351b81613d13565b840191505092915050565b600061353182613968565b61353b81856139be565b935061354b818560208601613b52565b80840191505092915050565b600061356383856139c9565b9350613570838584613b43565b61357983613d13565b840190509392505050565b600061359083856139da565b935061359d838584613b43565b82840190509392505050565b60006135b482613973565b6135be81856139c9565b93506135ce818560208601613b52565b6135d781613d13565b840191505092915050565b6135eb81613ad5565b82525050565b6135fa81613b03565b82525050565b600061360d82848661348f565b91508190509392505050565b60006136258284613526565b915081905092915050565b600061363d828486613584565b91508190509392505050565b600060208201905061365e60008301846133b1565b92915050565b60006020820190506136796000830184613393565b92915050565b600060208201905061369460008301846133a2565b92915050565b600060208201905081810360008301526136b481846133c0565b905092915050565b60006020820190506136d16000830184613435565b92915050565b60006020820190506136ec6000830184613444565b92915050565b60006040820190506137076000830185613444565b6137146020830184613444565b9392505050565b60006020820190506137306000830184613453565b92915050565b60006020820190508181036000830152613751818486613462565b90509392505050565b6000602082019050818103600083015261377481846134ed565b905092915050565b6000604082019050818103600083015261379681866134ed565b905081810360208301526137ab818486613462565b9050949350505050565b600060408201905081810360008301526137cf81856134ed565b90506137de60208301846135e2565b9392505050565b600060608201905081810360008301526137ff81866134ed565b905061380e60208301856135e2565b818103604083015261382081846134ed565b9050949350505050565b60006020820190508181036000830152613845818486613557565b90509392505050565b6000602082019050818103600083015261386881846135a9565b905092915050565b600060408201905061388560008301856135f1565b818103602083015261389781846134ed565b90509392505050565b600080833560016020038436030381126138b957600080fd5b80840192508235915067ffffffffffffffff8211156138d757600080fd5b6020830192506001820236038313156138ef57600080fd5b509250929050565b6000613901613912565b905061390d8282613be1565b919050565b6000604051905090565b600067ffffffffffffffff82111561393757613936613ce4565b5b61394082613d13565b9050602081019050919050565b6000819050602082019050919050565b600081519050919050565b600081519050919050565b600081519050919050565b6000602082019050919050565b600082825260208201905092915050565b600082825260208201905092915050565b600082825260208201905092915050565b600081905092915050565b600082825260208201905092915050565b600081905092915050565b60006139f082613b03565b91506139fb83613b03565b9250827fffffffffffffffffffffffffffffffffffffffffffffffffffffffffffffffff03821115613a3057613a2f613c86565b5b828201905092915050565b6000613a4682613b03565b9150613a5183613b03565b925082821015613a6457613a63613c86565b5b828203905092915050565b6000613a7a82613ae3565b9050919050565b6000613a8c82613ae3565b9050919050565b60008115159050919050565b6000819050919050565b60007fffffffff0000000000000000000000000000000000000000000000000000000082169050919050565b600061ffff82169050919050565b600073ffffffffffffffffffffffffffffffffffffffff82169050919050565b6000819050919050565b6000613b1882613b1f565b9050919050565b6000613b2a82613b31565b9050919050565b6000613b3c82613ae3565b9050919050565b82818337600083830152505050565b60005b83811015613b70578082015181840152602081019050613b55565b83811115613b7f576000848401525b50505050565b6000613b9082613ad5565b91506000821415613ba457613ba3613c86565b5b600182039050919050565b60006002820490506001821680613bc757607f821691505b60208210811415613bdb57613bda613cb5565b5b50919050565b613bea82613d13565b810181811067ffffffffffffffff82111715613c0957613c08613ce4565b5b80604052505050565b6000613c1d82613ad5565b915061ffff821415613c3257613c31613c86565b5b600182019050919050565b6000613c4882613b03565b91507fffffffffffffffffffffffffffffffffffffffffffffffffffffffffffffffff821415613c7b57613c7a613c86565b5b600182019050919050565b7f4e487b7100000000000000000000000000000000000000000000000000000000600052601160045260246000fd5b7f4e487b7100000000000000000000000000000000000000000000000000000000600052602260045260246000fd5b7f4e487b7100000000000000000000000000000000000000000000000000000000600052604160045260246000fd5b6000601f19601f8301169050919050565b613d2d81613a6f565b8114613d3857600080fd5b50565b613d4481613a93565b8114613d4f57600080fd5b50565b613d5b81613a9f565b8114613d6657600080fd5b50565b613d7281613aa9565b8114613d7d57600080fd5b50565b613d8981613ad5565b8114613d9457600080fd5b50565b613da081613b03565b8114613dab57600080fd5b5056fea26469706673582212207940b855e223c0a453d8da970403fe827129c13a3ae19c858044eff5926d837564736f6c63430008040033",
  "linkReferences": {},
  "deployedLinkReferences": {}
}