{
  "_format": "hh-sol-artifact-1",
  "contractName": "BaseRegistrarImplementation",
  "sourceName": "contracts/ethregistrar/BaseRegistrarImplementation.sol",
  "abi": [
    {
      "inputs": [
        {
          "internalType": "contract ENS",
          "name": "_ens",
          "type": "address"
        },
        {
          "internalType": "bytes32",
          "name": "_baseNode",
          "type": "bytes32"
        }
      ],
      "stateMutability": "nonpayable",
      "type": "constructor"
    },
    {
      "anonymous": false,
      "inputs": [
        {
          "indexed": true,
          "internalType": "address",
          "name": "owner",
          "type": "address"
        },
        {
          "indexed": true,
          "internalType": "address",
          "name": "approved",
          "type": "address"
        },
        {
          "indexed": true,
          "internalType": "uint256",
          "name": "tokenId",
          "type": "uint256"
        }
      ],
      "name": "Approval",
      "type": "event"
    },
    {
      "anonymous": false,
      "inputs": [
        {
          "indexed": true,
          "internalType": "address",
          "name": "owner",
          "type": "address"
        },
        {
          "indexed": true,
          "internalType": "address",
          "name": "operator",
          "type": "address"
        },
        {
          "indexed": false,
          "internalType": "bool",
          "name": "approved",
          "type": "bool"
        }
      ],
      "name": "ApprovalForAll",
      "type": "event"
    },
    {
      "anonymous": false,
      "inputs": [
        {
          "indexed": true,
          "internalType": "address",
          "name": "controller",
          "type": "address"
        }
      ],
      "name": "ControllerAdded",
      "type": "event"
    },
    {
      "anonymous": false,
      "inputs": [
        {
          "indexed": true,
          "internalType": "address",
          "name": "controller",
          "type": "address"
        }
      ],
      "name": "ControllerRemoved",
      "type": "event"
    },
    {
      "anonymous": false,
      "inputs": [
        {
          "indexed": true,
          "internalType": "uint256",
          "name": "id",
          "type": "uint256"
        },
        {
          "indexed": true,
          "internalType": "address",
          "name": "owner",
          "type": "address"
        }
      ],
      "name": "NameRegistered",
      "type": "event"
    },
    {
      "anonymous": false,
      "inputs": [
        {
          "indexed": true,
          "internalType": "address",
          "name": "previousOwner",
          "type": "address"
        },
        {
          "indexed": true,
          "internalType": "address",
          "name": "newOwner",
          "type": "address"
        }
      ],
      "name": "OwnershipTransferred",
      "type": "event"
    },
    {
      "anonymous": false,
      "inputs": [
        {
          "indexed": true,
          "internalType": "address",
          "name": "from",
          "type": "address"
        },
        {
          "indexed": true,
          "internalType": "address",
          "name": "to",
          "type": "address"
        },
        {
          "indexed": true,
          "internalType": "uint256",
          "name": "tokenId",
          "type": "uint256"
        }
      ],
      "name": "Transfer",
      "type": "event"
    },
    {
      "inputs": [
        {
          "internalType": "address",
          "name": "controller",
          "type": "address"
        }
      ],
      "name": "addController",
      "outputs": [],
      "stateMutability": "nonpayable",
      "type": "function"
    },
    {
      "inputs": [
        {
          "internalType": "address",
          "name": "to",
          "type": "address"
        },
        {
          "internalType": "uint256",
          "name": "tokenId",
          "type": "uint256"
        }
      ],
      "name": "approve",
      "outputs": [],
      "stateMutability": "nonpayable",
      "type": "function"
    },
    {
      "inputs": [
        {
          "internalType": "uint256",
          "name": "id",
          "type": "uint256"
        }
      ],
      "name": "available",
      "outputs": [
        {
          "internalType": "bool",
          "name": "",
          "type": "bool"
        }
      ],
      "stateMutability": "view",
      "type": "function"
    },
    {
      "inputs": [
        {
          "internalType": "address",
          "name": "owner",
          "type": "address"
        }
      ],
      "name": "balanceOf",
      "outputs": [
        {
          "internalType": "uint256",
          "name": "",
          "type": "uint256"
        }
      ],
      "stateMutability": "view",
      "type": "function"
    },
    {
      "inputs": [],
      "name": "baseNode",
      "outputs": [
        {
          "internalType": "bytes32",
          "name": "",
          "type": "bytes32"
        }
      ],
      "stateMutability": "view",
      "type": "function"
    },
    {
      "inputs": [],
      "name": "baseURI",
      "outputs": [
        {
          "internalType": "string",
          "name": "",
          "type": "string"
        }
      ],
      "stateMutability": "view",
      "type": "function"
    },
    {
      "inputs": [
        {
          "internalType": "address",
          "name": "",
          "type": "address"
        }
      ],
      "name": "controllers",
      "outputs": [
        {
          "internalType": "bool",
          "name": "",
          "type": "bool"
        }
      ],
      "stateMutability": "view",
      "type": "function"
    },
    {
      "inputs": [],
      "name": "ens",
      "outputs": [
        {
          "internalType": "contract ENS",
          "name": "",
          "type": "address"
        }
      ],
      "stateMutability": "view",
      "type": "function"
    },
    {
      "inputs": [
        {
          "internalType": "uint256",
          "name": "tokenId",
          "type": "uint256"
        }
      ],
      "name": "getApproved",
      "outputs": [
        {
          "internalType": "address",
          "name": "",
          "type": "address"
        }
      ],
      "stateMutability": "view",
      "type": "function"
    },
    {
      "inputs": [
        {
          "internalType": "address",
          "name": "owner",
          "type": "address"
        },
        {
          "internalType": "address",
          "name": "operator",
          "type": "address"
        }
      ],
      "name": "isApprovedForAll",
      "outputs": [
        {
          "internalType": "bool",
          "name": "",
          "type": "bool"
        }
      ],
      "stateMutability": "view",
      "type": "function"
    },
    {
      "inputs": [],
      "name": "name",
      "outputs": [
        {
          "internalType": "string",
          "name": "",
          "type": "string"
        }
      ],
      "stateMutability": "view",
      "type": "function"
    },
    {
      "inputs": [],
      "name": "owner",
      "outputs": [
        {
          "internalType": "address",
          "name": "",
          "type": "address"
        }
      ],
      "stateMutability": "view",
      "type": "function"
    },
    {
      "inputs": [
        {
          "internalType": "uint256",
          "name": "tokenId",
          "type": "uint256"
        }
      ],
      "name": "ownerOf",
      "outputs": [
        {
          "internalType": "address",
          "name": "",
          "type": "address"
        }
      ],
      "stateMutability": "view",
      "type": "function"
    },
    {
      "inputs": [
        {
          "internalType": "uint256",
          "name": "id",
          "type": "uint256"
        },
        {
          "internalType": "address",
          "name": "owner",
          "type": "address"
        }
      ],
      "name": "reclaim",
      "outputs": [],
      "stateMutability": "nonpayable",
      "type": "function"
    },
    {
      "inputs": [
        {
          "internalType": "uint256",
          "name": "id",
          "type": "uint256"
        },
        {
          "internalType": "address",
          "name": "owner",
          "type": "address"
        }
      ],
      "name": "register",
      "outputs": [],
      "stateMutability": "nonpayable",
      "type": "function"
    },
    {
      "inputs": [
        {
          "internalType": "uint256",
          "name": "id",
          "type": "uint256"
        },
        {
          "internalType": "address",
          "name": "owner",
          "type": "address"
        }
      ],
      "name": "registerOnly",
      "outputs": [],
      "stateMutability": "nonpayable",
      "type": "function"
    },
    {
      "inputs": [
        {
          "internalType": "address",
          "name": "controller",
          "type": "address"
        }
      ],
      "name": "removeController",
      "outputs": [],
      "stateMutability": "nonpayable",
      "type": "function"
    },
    {
      "inputs": [],
      "name": "renounceOwnership",
      "outputs": [],
      "stateMutability": "nonpayable",
      "type": "function"
    },
    {
      "inputs": [
        {
          "internalType": "address",
          "name": "from",
          "type": "address"
        },
        {
          "internalType": "address",
          "name": "to",
          "type": "address"
        },
        {
          "internalType": "uint256",
          "name": "tokenId",
          "type": "uint256"
        }
      ],
      "name": "safeTransferFrom",
      "outputs": [],
      "stateMutability": "nonpayable",
      "type": "function"
    },
    {
      "inputs": [
        {
          "internalType": "address",
          "name": "from",
          "type": "address"
        },
        {
          "internalType": "address",
          "name": "to",
          "type": "address"
        },
        {
          "internalType": "uint256",
          "name": "tokenId",
          "type": "uint256"
        },
        {
          "internalType": "bytes",
          "name": "data",
          "type": "bytes"
        }
      ],
      "name": "safeTransferFrom",
      "outputs": [],
      "stateMutability": "nonpayable",
      "type": "function"
    },
    {
      "inputs": [
        {
          "internalType": "address",
          "name": "operator",
          "type": "address"
        },
        {
          "internalType": "bool",
          "name": "approved",
          "type": "bool"
        }
      ],
      "name": "setApprovalForAll",
      "outputs": [],
      "stateMutability": "nonpayable",
      "type": "function"
    },
    {
      "inputs": [
        {
          "internalType": "string",
          "name": "_newBaseURI",
          "type": "string"
        }
      ],
      "name": "setBaseURI",
      "outputs": [],
      "stateMutability": "nonpayable",
      "type": "function"
    },
    {
      "inputs": [
        {
          "internalType": "address",
          "name": "resolver",
          "type": "address"
        }
      ],
      "name": "setResolver",
      "outputs": [],
      "stateMutability": "nonpayable",
      "type": "function"
    },
    {
      "inputs": [
        {
          "internalType": "bytes4",
          "name": "interfaceID",
          "type": "bytes4"
        }
      ],
      "name": "supportsInterface",
      "outputs": [
        {
          "internalType": "bool",
          "name": "",
          "type": "bool"
        }
      ],
      "stateMutability": "view",
      "type": "function"
    },
    {
      "inputs": [],
      "name": "symbol",
      "outputs": [
        {
          "internalType": "string",
          "name": "",
          "type": "string"
        }
      ],
      "stateMutability": "view",
      "type": "function"
    },
    {
      "inputs": [
        {
          "internalType": "uint256",
          "name": "index",
          "type": "uint256"
        }
      ],
      "name": "tokenByIndex",
      "outputs": [
        {
          "internalType": "uint256",
          "name": "",
          "type": "uint256"
        }
      ],
      "stateMutability": "view",
      "type": "function"
    },
    {
      "inputs": [
        {
          "internalType": "address",
          "name": "owner",
          "type": "address"
        },
        {
          "internalType": "uint256",
          "name": "index",
          "type": "uint256"
        }
      ],
      "name": "tokenOfOwnerByIndex",
      "outputs": [
        {
          "internalType": "uint256",
          "name": "",
          "type": "uint256"
        }
      ],
      "stateMutability": "view",
      "type": "function"
    },
    {
      "inputs": [
        {
          "internalType": "uint256",
          "name": "tokenId",
          "type": "uint256"
        }
      ],
      "name": "tokenURI",
      "outputs": [
        {
          "internalType": "string",
          "name": "",
          "type": "string"
        }
      ],
      "stateMutability": "view",
      "type": "function"
    },
    {
      "inputs": [],
      "name": "totalSupply",
      "outputs": [
        {
          "internalType": "uint256",
          "name": "",
          "type": "uint256"
        }
      ],
      "stateMutability": "view",
      "type": "function"
    },
    {
      "inputs": [
        {
          "internalType": "address",
          "name": "from",
          "type": "address"
        },
        {
          "internalType": "address",
          "name": "to",
          "type": "address"
        },
        {
          "internalType": "uint256",
          "name": "tokenId",
          "type": "uint256"
        }
      ],
      "name": "transferFrom",
      "outputs": [],
      "stateMutability": "nonpayable",
      "type": "function"
    },
    {
      "inputs": [
        {
          "internalType": "address",
          "name": "newOwner",
          "type": "address"
        }
      ],
      "name": "transferOwnership",
      "outputs": [],
      "stateMutability": "nonpayable",
      "type": "function"
    }
  ],
  "bytecode": "0x60806040523480156200001157600080fd5b506040516200411e3803806200411e8339818101604052810190620000379190620002a5565b6040518060200160405280600081525060405180602001604052806000815250620000776200006b620000fb60201b60201c565b6200010360201b60201c565b81600190805190602001906200008f929190620001c7565b508060029080519060200190620000a8929190620001c7565b50505081600b60006101000a81548173ffffffffffffffffffffffffffffffffffffffff021916908373ffffffffffffffffffffffffffffffffffffffff16021790555080600c819055505050620003d1565b600033905090565b60008060009054906101000a900473ffffffffffffffffffffffffffffffffffffffff169050816000806101000a81548173ffffffffffffffffffffffffffffffffffffffff021916908373ffffffffffffffffffffffffffffffffffffffff1602179055508173ffffffffffffffffffffffffffffffffffffffff168173ffffffffffffffffffffffffffffffffffffffff167f8be0079c531659141344cd1fd0a4f28419497f9722a3daafe3b4186f6b6457e060405160405180910390a35050565b828054620001d59062000338565b90600052602060002090601f016020900481019282620001f9576000855562000245565b82601f106200021457805160ff191683800117855562000245565b8280016001018555821562000245579182015b828111156200024457825182559160200191906001019062000227565b5b50905062000254919062000258565b5090565b5b808211156200027357600081600090555060010162000259565b5090565b60008151905062000288816200039d565b92915050565b6000815190506200029f81620003b7565b92915050565b60008060408385031215620002b957600080fd5b6000620002c9858286016200028e565b9250506020620002dc8582860162000277565b9150509250929050565b6000620002f38262000318565b9050919050565b6000819050919050565b60006200031182620002e6565b9050919050565b600073ffffffffffffffffffffffffffffffffffffffff82169050919050565b600060028204905060018216806200035157607f821691505b602082108114156200036857620003676200036e565b5b50919050565b7f4e487b7100000000000000000000000000000000000000000000000000000000600052602260045260246000fd5b620003a881620002fa565b8114620003b457600080fd5b50565b620003c28162000304565b8114620003ce57600080fd5b50565b613d3d80620003e16000396000f3fe608060405234801561001057600080fd5b50600436106101e55760003560e01c80636c0360eb1161010f578063b88d4fde116100a2578063ddf7fcb011610071578063ddf7fcb01461058c578063e985e9c5146105aa578063f2fde38b146105da578063f6a74ed7146105f6576101e5565b8063b88d4fde146104f4578063c87b56dd14610510578063da8c229e14610540578063dbbdf08314610570576101e5565b806395d89b41116100de57806395d89b411461046e57806396e494e81461048c578063a22cb465146104bc578063a7fc7a07146104d8576101e5565b80636c0360eb146103f857806370a0823114610416578063715018a6146104465780638da5cb5b14610450576101e5565b80632f745c59116101875780634f6ccce7116101565780634f6ccce71461036057806352dc67161461039057806355f804b3146103ac5780636352211e146103c8576101e5565b80632f745c59146102da5780633f15457f1461030a57806342842e0e146103285780634e543b2614610344576101e5565b8063095ea7b3116101c3578063095ea7b31461026857806318160ddd1461028457806323b872dd146102a257806328ed4f6c146102be576101e5565b806301ffc9a7146101ea57806306fdde031461021a578063081812fc14610238575b600080fd5b61020460048036038101906101ff9190612d52565b610612565b60405161021191906131d0565b60405180910390f35b61022261085c565b60405161022f9190613281565b60405180910390f35b610252600480360381019061024d9190612de5565b6108ee565b60405161025f9190613169565b60405180910390f35b610282600480360381019061027d9190612ced565b610934565b005b61028c610a4c565b6040516102999190613483565b60405180910390f35b6102bc60048036038101906102b79190612be7565b610a59565b005b6102d860048036038101906102d39190612e0e565b610ab9565b005b6102f460048036038101906102ef9190612ced565b610c6b565b6040516103019190613483565b60405180910390f35b610312610d10565b60405161031f9190613266565b60405180910390f35b610342600480360381019061033d9190612be7565b610d36565b005b61035e60048036038101906103599190612b59565b610d56565b005b61037a60048036038101906103759190612de5565b610df2565b6040516103879190613483565b60405180910390f35b6103aa60048036038101906103a59190612e0e565b610e89565b005b6103c660048036038101906103c19190612da4565b610e99565b005b6103e260048036038101906103dd9190612de5565b610ebb565b6040516103ef9190613169565b60405180910390f35b610400610f6d565b60405161040d9190613281565b60405180910390f35b610430600480360381019061042b9190612b59565b610ffb565b60405161043d9190613483565b60405180910390f35b61044e6110b3565b005b6104586110c7565b6040516104659190613169565b60405180910390f35b6104766110f0565b6040516104839190613281565b60405180910390f35b6104a660048036038101906104a19190612de5565b611182565b6040516104b391906131d0565b60405180910390f35b6104d660048036038101906104d19190612cb1565b611195565b005b6104f260048036038101906104ed9190612b59565b6111ab565b005b61050e60048036038101906105099190612c36565b611251565b005b61052a60048036038101906105259190612de5565b6112b3565b6040516105379190613281565b60405180910390f35b61055a60048036038101906105559190612b59565b61131b565b60405161056791906131d0565b60405180910390f35b61058a60048036038101906105859190612e0e565b61133b565b005b61059461134b565b6040516105a191906131eb565b60405180910390f35b6105c460048036038101906105bf9190612bab565b611351565b6040516105d191906131d0565b60405180910390f35b6105f460048036038101906105ef9190612b59565b6113e5565b005b610610600480360381019061060b9190612b59565b611469565b005b60007f01ffc9a7a5cef8baa21ed3c5c0d7e23accb804b619e9333b597f47a0d84076e27bffffffffffffffffffffffffffffffffffffffffffffffffffffffff1916827bffffffffffffffffffffffffffffffffffffffffffffffffffffffff191614806107ed57507fb88d4fde60196325a28bb7f99a2582e0b46de55b18761e960c14ad7a320994657f42842e0eb38857a7775b4e7364b2775df7325074d088e7fb39590cd6281184ed7f23b872dd7302113369cda2901243429419bec145408fa8b352b3dd92b66c680b7fe985e9c5c6636c6879256001057b28ccac7718ef0ac56553ff9b926452cab8a37fa22cb4651ab9570f89bb516380c40ce76762284fb1f21337ceaf6adab99e7d4a7f081812fc55e34fdc7cf5d8b5cf4e3621fa6423fde952ec6ab24afdc0d85c0b2e7f095ea7b334ae44009aa867bfb386f5c3b4b443ac6f0ee573fa91c4608fbadfba7f6352211e6566aa027e75ac9dbf2423197fbd9b82b9d981a3ab367d355866aa1c7f70a08231b98ef4ca268c9cc3f6b4590e4bfec28280db06bb5d45e689f2a360be18181818181818187bffffffffffffffffffffffffffffffffffffffffffffffffffffffff1916827bffffffffffffffffffffffffffffffffffffffffffffffffffffffff1916145b8061085557507f28ed4f6c74b219a5819055dfbcd2f1837c046c364cf01fabb6799e4f440d6f137bffffffffffffffffffffffffffffffffffffffffffffffffffffffff1916827bffffffffffffffffffffffffffffffffffffffffffffffffffffffff1916145b9050919050565b60606001805461086b90613707565b80601f016020809104026020016040519081016040528092919081815260200182805461089790613707565b80156108e45780601f106108b9576101008083540402835291602001916108e4565b820191906000526020600020905b8154815290600101906020018083116108c757829003601f168201915b5050505050905090565b60006108f98261150f565b6005600083815260200190815260200160002060009054906101000a900473ffffffffffffffffffffffffffffffffffffffff169050919050565b600061093f82610ebb565b90508073ffffffffffffffffffffffffffffffffffffffff168373ffffffffffffffffffffffffffffffffffffffff1614156109b0576040517f08c379a00000000000000000000000000000000000000000000000000000000081526004016109a790613423565b60405180910390fd5b8073ffffffffffffffffffffffffffffffffffffffff166109cf61155a565b73ffffffffffffffffffffffffffffffffffffffff1614806109fe57506109fd816109f861155a565b611351565b5b610a3d576040517f08c379a0000000000000000000000000000000000000000000000000000000008152600401610a34906133a3565b60405180910390fd5b610a478383611562565b505050565b6000600980549050905090565b610a6a610a6461155a565b8261161b565b610aa9576040517f08c379a0000000000000000000000000000000000000000000000000000000008152600401610aa090613463565b60405180910390fd5b610ab48383836116b0565b505050565b3073ffffffffffffffffffffffffffffffffffffffff16600b60009054906101000a900473ffffffffffffffffffffffffffffffffffffffff1673ffffffffffffffffffffffffffffffffffffffff166302571be3600c546040518263ffffffff1660e01b8152600401610b2d91906131eb565b60206040518083038186803b158015610b4557600080fd5b505afa158015610b59573d6000803e3d6000fd5b505050506040513d601f19601f82011682018060405250810190610b7d9190612b82565b73ffffffffffffffffffffffffffffffffffffffff1614610b9d57600080fd5b610ba7338361161b565b610bb057600080fd5b600b60009054906101000a900473ffffffffffffffffffffffffffffffffffffffff1673ffffffffffffffffffffffffffffffffffffffff166306ab5923600c548460001b846040518463ffffffff1660e01b8152600401610c149392919061322f565b602060405180830381600087803b158015610c2e57600080fd5b505af1158015610c42573d6000803e3d6000fd5b505050506040513d601f19601f82011682018060405250810190610c669190612d29565b505050565b6000610c7683610ffb565b8210610cb7576040517f08c379a0000000000000000000000000000000000000000000000000000000008152600401610cae906132a3565b60405180910390fd5b600760008473ffffffffffffffffffffffffffffffffffffffff1673ffffffffffffffffffffffffffffffffffffffff168152602001908152602001600020600083815260200190815260200160002054905092915050565b600b60009054906101000a900473ffffffffffffffffffffffffffffffffffffffff1681565b610d5183838360405180602001604052806000815250611251565b505050565b610d5e611917565b600b60009054906101000a900473ffffffffffffffffffffffffffffffffffffffff1673ffffffffffffffffffffffffffffffffffffffff16631896f70a600c54836040518363ffffffff1660e01b8152600401610dbd929190613206565b600060405180830381600087803b158015610dd757600080fd5b505af1158015610deb573d6000803e3d6000fd5b5050505050565b6000610dfc610a4c565b8210610e3d576040517f08c379a0000000000000000000000000000000000000000000000000000000008152600401610e3490613443565b60405180910390fd5b60098281548110610e77577f4e487b7100000000000000000000000000000000000000000000000000000000600052603260045260246000fd5b90600052602060002001549050919050565b610e9582826000611995565b5050565b610ea1611917565b80600e9080519060200190610eb7929190612953565b5050565b6000806003600084815260200190815260200160002060009054906101000a900473ffffffffffffffffffffffffffffffffffffffff169050600073ffffffffffffffffffffffffffffffffffffffff168173ffffffffffffffffffffffffffffffffffffffff161415610f64576040517f08c379a0000000000000000000000000000000000000000000000000000000008152600401610f5b90613403565b60405180910390fd5b80915050919050565b600e8054610f7a90613707565b80601f0160208091040260200160405190810160405280929190818152602001828054610fa690613707565b8015610ff35780601f10610fc857610100808354040283529160200191610ff3565b820191906000526020600020905b815481529060010190602001808311610fd657829003601f168201915b505050505081565b60008073ffffffffffffffffffffffffffffffffffffffff168273ffffffffffffffffffffffffffffffffffffffff16141561106c576040517f08c379a000000000000000000000000000000000000000000000000000000000815260040161106390613383565b60405180910390fd5b600460008373ffffffffffffffffffffffffffffffffffffffff1673ffffffffffffffffffffffffffffffffffffffff168152602001908152602001600020549050919050565b6110bb611917565b6110c56000611bf1565b565b60008060009054906101000a900473ffffffffffffffffffffffffffffffffffffffff16905090565b6060600280546110ff90613707565b80601f016020809104026020016040519081016040528092919081815260200182805461112b90613707565b80156111785780601f1061114d57610100808354040283529160200191611178565b820191906000526020600020905b81548152906001019060200180831161115b57829003601f168201915b5050505050905090565b600061118d82611cb5565b159050919050565b6111a76111a061155a565b8383611d21565b5050565b6111b3611917565b6001600d60008373ffffffffffffffffffffffffffffffffffffffff1673ffffffffffffffffffffffffffffffffffffffff16815260200190815260200160002060006101000a81548160ff0219169083151502179055508073ffffffffffffffffffffffffffffffffffffffff167f0a8bb31534c0ed46f380cb867bd5c803a189ced9a764e30b3a4991a9901d747460405160405180910390a250565b61126261125c61155a565b8361161b565b6112a1576040517f08c379a000000000000000000000000000000000000000000000000000000000815260040161129890613463565b60405180910390fd5b6112ad84848484611e8e565b50505050565b60606112be8261150f565b60006112c8611eea565b905060008151116112e85760405180602001604052806000815250611313565b806112f284611f7c565b604051602001611303929190613145565b6040516020818303038152906040525b915050919050565b600d6020528060005260406000206000915054906101000a900460ff1681565b61134782826001611995565b5050565b600c5481565b6000600660008473ffffffffffffffffffffffffffffffffffffffff1673ffffffffffffffffffffffffffffffffffffffff16815260200190815260200160002060008373ffffffffffffffffffffffffffffffffffffffff1673ffffffffffffffffffffffffffffffffffffffff16815260200190815260200160002060009054906101000a900460ff16905092915050565b6113ed611917565b600073ffffffffffffffffffffffffffffffffffffffff168173ffffffffffffffffffffffffffffffffffffffff16141561145d576040517f08c379a0000000000000000000000000000000000000000000000000000000008152600401611454906132e3565b60405180910390fd5b61146681611bf1565b50565b611471611917565b6000600d60008373ffffffffffffffffffffffffffffffffffffffff1673ffffffffffffffffffffffffffffffffffffffff16815260200190815260200160002060006101000a81548160ff0219169083151502179055508073ffffffffffffffffffffffffffffffffffffffff167f33d83959be2573f5453b12eb9d43b3499bc57d96bd2f067ba44803c859e8111360405160405180910390a250565b61151881611cb5565b611557576040517f08c379a000000000000000000000000000000000000000000000000000000000815260040161154e90613403565b60405180910390fd5b50565b600033905090565b816005600083815260200190815260200160002060006101000a81548173ffffffffffffffffffffffffffffffffffffffff021916908373ffffffffffffffffffffffffffffffffffffffff160217905550808273ffffffffffffffffffffffffffffffffffffffff166115d583610ebb565b73ffffffffffffffffffffffffffffffffffffffff167f8c5be1e5ebec7d5bd14f71427d1e84f3dd0314c0f7b2291e5b200ac8c7c3b92560405160405180910390a45050565b60008061162783610ebb565b90508073ffffffffffffffffffffffffffffffffffffffff168473ffffffffffffffffffffffffffffffffffffffff16148061166957506116688185611351565b5b806116a757508373ffffffffffffffffffffffffffffffffffffffff1661168f846108ee565b73ffffffffffffffffffffffffffffffffffffffff16145b91505092915050565b8273ffffffffffffffffffffffffffffffffffffffff166116d082610ebb565b73ffffffffffffffffffffffffffffffffffffffff1614611726576040517f08c379a000000000000000000000000000000000000000000000000000000000815260040161171d90613303565b60405180910390fd5b600073ffffffffffffffffffffffffffffffffffffffff168273ffffffffffffffffffffffffffffffffffffffff161415611796576040517f08c379a000000000000000000000000000000000000000000000000000000000815260040161178d90613343565b60405180910390fd5b6117a1838383612129565b6117ac600082611562565b6001600460008573ffffffffffffffffffffffffffffffffffffffff1673ffffffffffffffffffffffffffffffffffffffff16815260200190815260200160002060008282546117fc91906135ef565b925050819055506001600460008473ffffffffffffffffffffffffffffffffffffffff1673ffffffffffffffffffffffffffffffffffffffff16815260200190815260200160002060008282546118539190613568565b92505081905550816003600083815260200190815260200160002060006101000a81548173ffffffffffffffffffffffffffffffffffffffff021916908373ffffffffffffffffffffffffffffffffffffffff160217905550808273ffffffffffffffffffffffffffffffffffffffff168473ffffffffffffffffffffffffffffffffffffffff167fddf252ad1be2c89b69c2b068fc378daa952ba7f163c4a11628f55a4df523b3ef60405160405180910390a461191283838361223d565b505050565b61191f61155a565b73ffffffffffffffffffffffffffffffffffffffff1661193d6110c7565b73ffffffffffffffffffffffffffffffffffffffff1614611993576040517f08c379a000000000000000000000000000000000000000000000000000000000815260040161198a906133e3565b60405180910390fd5b565b3073ffffffffffffffffffffffffffffffffffffffff16600b60009054906101000a900473ffffffffffffffffffffffffffffffffffffffff1673ffffffffffffffffffffffffffffffffffffffff166302571be3600c546040518263ffffffff1660e01b8152600401611a0991906131eb565b60206040518083038186803b158015611a2157600080fd5b505afa158015611a35573d6000803e3d6000fd5b505050506040513d601f19601f82011682018060405250810190611a599190612b82565b73ffffffffffffffffffffffffffffffffffffffff1614611a7957600080fd5b600d60003373ffffffffffffffffffffffffffffffffffffffff1673ffffffffffffffffffffffffffffffffffffffff16815260200190815260200160002060009054906101000a900460ff16611acf57600080fd5b611ad883611182565b611ae157600080fd5b611aeb8284612242565b8015611ba957600b60009054906101000a900473ffffffffffffffffffffffffffffffffffffffff1673ffffffffffffffffffffffffffffffffffffffff166306ab5923600c548560001b856040518463ffffffff1660e01b8152600401611b559392919061322f565b602060405180830381600087803b158015611b6f57600080fd5b505af1158015611b83573d6000803e3d6000fd5b505050506040513d601f19601f82011682018060405250810190611ba79190612d29565b505b8173ffffffffffffffffffffffffffffffffffffffff16837e834ad8d7a1d8421d149549c7292d11385f5a042a008771d26ffd2d76db6e7460405160405180910390a3505050565b60008060009054906101000a900473ffffffffffffffffffffffffffffffffffffffff169050816000806101000a81548173ffffffffffffffffffffffffffffffffffffffff021916908373ffffffffffffffffffffffffffffffffffffffff1602179055508173ffffffffffffffffffffffffffffffffffffffff168173ffffffffffffffffffffffffffffffffffffffff167f8be0079c531659141344cd1fd0a4f28419497f9722a3daafe3b4186f6b6457e060405160405180910390a35050565b60008073ffffffffffffffffffffffffffffffffffffffff166003600084815260200190815260200160002060009054906101000a900473ffffffffffffffffffffffffffffffffffffffff1673ffffffffffffffffffffffffffffffffffffffff1614159050919050565b8173ffffffffffffffffffffffffffffffffffffffff168373ffffffffffffffffffffffffffffffffffffffff161415611d90576040517f08c379a0000000000000000000000000000000000000000000000000000000008152600401611d8790613363565b60405180910390fd5b80600660008573ffffffffffffffffffffffffffffffffffffffff1673ffffffffffffffffffffffffffffffffffffffff16815260200190815260200160002060008473ffffffffffffffffffffffffffffffffffffffff1673ffffffffffffffffffffffffffffffffffffffff16815260200190815260200160002060006101000a81548160ff0219169083151502179055508173ffffffffffffffffffffffffffffffffffffffff168373ffffffffffffffffffffffffffffffffffffffff167f17307eab39ab6107e8899845ad3d59bd9653f200f220920489ca2b5937696c3183604051611e8191906131d0565b60405180910390a3505050565b611e998484846116b0565b611ea58484848461241c565b611ee4576040517f08c379a0000000000000000000000000000000000000000000000000000000008152600401611edb906132c3565b60405180910390fd5b50505050565b6060600e8054611ef990613707565b80601f0160208091040260200160405190810160405280929190818152602001828054611f2590613707565b8015611f725780601f10611f4757610100808354040283529160200191611f72565b820191906000526020600020905b815481529060010190602001808311611f5557829003601f168201915b5050505050905090565b60606000821415611fc4576040518060400160405280600181526020017f30000000000000000000000000000000000000000000000000000000000000008152509050612124565b600082905060005b60008214611ff6578080611fdf9061376a565b915050600a82611fef91906135be565b9150611fcc565b60008167ffffffffffffffff811115612038577f4e487b7100000000000000000000000000000000000000000000000000000000600052604160045260246000fd5b6040519080825280601f01601f19166020018201604052801561206a5781602001600182028036833780820191505090505b5090505b6000851461211d5760018261208391906135ef565b9150600a8561209291906137b3565b603061209e9190613568565b60f81b8183815181106120da577f4e487b7100000000000000000000000000000000000000000000000000000000600052603260045260246000fd5b60200101907effffffffffffffffffffffffffffffffffffffffffffffffffffffffffffff1916908160001a905350600a8561211691906135be565b945061206e565b8093505050505b919050565b6121348383836125b3565b600073ffffffffffffffffffffffffffffffffffffffff168373ffffffffffffffffffffffffffffffffffffffff16141561217757612172816125b8565b6121b6565b8173ffffffffffffffffffffffffffffffffffffffff168373ffffffffffffffffffffffffffffffffffffffff16146121b5576121b48382612601565b5b5b600073ffffffffffffffffffffffffffffffffffffffff168273ffffffffffffffffffffffffffffffffffffffff1614156121f9576121f48161276e565b612238565b8273ffffffffffffffffffffffffffffffffffffffff168273ffffffffffffffffffffffffffffffffffffffff16146122375761223682826128b1565b5b5b505050565b505050565b600073ffffffffffffffffffffffffffffffffffffffff168273ffffffffffffffffffffffffffffffffffffffff1614156122b2576040517f08c379a00000000000000000000000000000000000000000000000000000000081526004016122a9906133c3565b60405180910390fd5b6122bb81611cb5565b156122fb576040517f08c379a00000000000000000000000000000000000000000000000000000000081526004016122f290613323565b60405180910390fd5b61230760008383612129565b6001600460008473ffffffffffffffffffffffffffffffffffffffff1673ffffffffffffffffffffffffffffffffffffffff16815260200190815260200160002060008282546123579190613568565b92505081905550816003600083815260200190815260200160002060006101000a81548173ffffffffffffffffffffffffffffffffffffffff021916908373ffffffffffffffffffffffffffffffffffffffff160217905550808273ffffffffffffffffffffffffffffffffffffffff16600073ffffffffffffffffffffffffffffffffffffffff167fddf252ad1be2c89b69c2b068fc378daa952ba7f163c4a11628f55a4df523b3ef60405160405180910390a46124186000838361223d565b5050565b600061243d8473ffffffffffffffffffffffffffffffffffffffff16612930565b156125a6578373ffffffffffffffffffffffffffffffffffffffff1663150b7a0261246661155a565b8786866040518563ffffffff1660e01b81526004016124889493929190613184565b602060405180830381600087803b1580156124a257600080fd5b505af19250505080156124d357506040513d601f19601f820116820180604052508101906124d09190612d7b565b60015b612556573d8060008114612503576040519150601f19603f3d011682016040523d82523d6000602084013e612508565b606091505b5060008151141561254e576040517f08c379a0000000000000000000000000000000000000000000000000000000008152600401612545906132c3565b60405180910390fd5b805181602001fd5b63150b7a0260e01b7bffffffffffffffffffffffffffffffffffffffffffffffffffffffff1916817bffffffffffffffffffffffffffffffffffffffffffffffffffffffff1916149150506125ab565b600190505b949350505050565b505050565b600980549050600a600083815260200190815260200160002081905550600981908060018154018082558091505060019003906000526020600020016000909190919091505550565b6000600161260e84610ffb565b61261891906135ef565b90506000600860008481526020019081526020016000205490508181146126fd576000600760008673ffffffffffffffffffffffffffffffffffffffff1673ffffffffffffffffffffffffffffffffffffffff168152602001908152602001600020600084815260200190815260200160002054905080600760008773ffffffffffffffffffffffffffffffffffffffff1673ffffffffffffffffffffffffffffffffffffffff168152602001908152602001600020600084815260200190815260200160002081905550816008600083815260200190815260200160002081905550505b6008600084815260200190815260200160002060009055600760008573ffffffffffffffffffffffffffffffffffffffff1673ffffffffffffffffffffffffffffffffffffffff16815260200190815260200160002060008381526020019081526020016000206000905550505050565b6000600160098054905061278291906135ef565b90506000600a60008481526020019081526020016000205490506000600983815481106127d8577f4e487b7100000000000000000000000000000000000000000000000000000000600052603260045260246000fd5b906000526020600020015490508060098381548110612820577f4e487b7100000000000000000000000000000000000000000000000000000000600052603260045260246000fd5b906000526020600020018190555081600a600083815260200190815260200160002081905550600a6000858152602001908152602001600020600090556009805480612895577f4e487b7100000000000000000000000000000000000000000000000000000000600052603160045260246000fd5b6001900381819060005260206000200160009055905550505050565b60006128bc83610ffb565b905081600760008573ffffffffffffffffffffffffffffffffffffffff1673ffffffffffffffffffffffffffffffffffffffff168152602001908152602001600020600083815260200190815260200160002081905550806008600084815260200190815260200160002081905550505050565b6000808273ffffffffffffffffffffffffffffffffffffffff163b119050919050565b82805461295f90613707565b90600052602060002090601f01602090048101928261298157600085556129c8565b82601f1061299a57805160ff19168380011785556129c8565b828001600101855582156129c8579182015b828111156129c75782518255916020019190600101906129ac565b5b5090506129d591906129d9565b5090565b5b808211156129f25760008160009055506001016129da565b5090565b6000612a09612a04846134c3565b61349e565b905082815260208101848484011115612a2157600080fd5b612a2c8482856136c5565b509392505050565b6000612a47612a42846134f4565b61349e565b905082815260208101848484011115612a5f57600080fd5b612a6a8482856136c5565b509392505050565b600081359050612a8181613c94565b92915050565b600081519050612a9681613c94565b92915050565b600081359050612aab81613cab565b92915050565b600081519050612ac081613cc2565b92915050565b600081359050612ad581613cd9565b92915050565b600081519050612aea81613cd9565b92915050565b600082601f830112612b0157600080fd5b8135612b118482602086016129f6565b91505092915050565b600082601f830112612b2b57600080fd5b8135612b3b848260208601612a34565b91505092915050565b600081359050612b5381613cf0565b92915050565b600060208284031215612b6b57600080fd5b6000612b7984828501612a72565b91505092915050565b600060208284031215612b9457600080fd5b6000612ba284828501612a87565b91505092915050565b60008060408385031215612bbe57600080fd5b6000612bcc85828601612a72565b9250506020612bdd85828601612a72565b9150509250929050565b600080600060608486031215612bfc57600080fd5b6000612c0a86828701612a72565b9350506020612c1b86828701612a72565b9250506040612c2c86828701612b44565b9150509250925092565b60008060008060808587031215612c4c57600080fd5b6000612c5a87828801612a72565b9450506020612c6b87828801612a72565b9350506040612c7c87828801612b44565b925050606085013567ffffffffffffffff811115612c9957600080fd5b612ca587828801612af0565b91505092959194509250565b60008060408385031215612cc457600080fd5b6000612cd285828601612a72565b9250506020612ce385828601612a9c565b9150509250929050565b60008060408385031215612d0057600080fd5b6000612d0e85828601612a72565b9250506020612d1f85828601612b44565b9150509250929050565b600060208284031215612d3b57600080fd5b6000612d4984828501612ab1565b91505092915050565b600060208284031215612d6457600080fd5b6000612d7284828501612ac6565b91505092915050565b600060208284031215612d8d57600080fd5b6000612d9b84828501612adb565b91505092915050565b600060208284031215612db657600080fd5b600082013567ffffffffffffffff811115612dd057600080fd5b612ddc84828501612b1a565b91505092915050565b600060208284031215612df757600080fd5b6000612e0584828501612b44565b91505092915050565b60008060408385031215612e2157600080fd5b6000612e2f85828601612b44565b9250506020612e4085828601612a72565b9150509250929050565b612e5381613623565b82525050565b612e6281613635565b82525050565b612e7181613641565b82525050565b6000612e8282613525565b612e8c818561353b565b9350612e9c8185602086016136d4565b612ea5816138a0565b840191505092915050565b612eb9816136a1565b82525050565b6000612eca82613530565b612ed4818561354c565b9350612ee48185602086016136d4565b612eed816138a0565b840191505092915050565b6000612f0382613530565b612f0d818561355d565b9350612f1d8185602086016136d4565b80840191505092915050565b6000612f36602b8361354c565b9150612f41826138b1565b604082019050919050565b6000612f5960328361354c565b9150612f6482613900565b604082019050919050565b6000612f7c60268361354c565b9150612f878261394f565b604082019050919050565b6000612f9f60258361354c565b9150612faa8261399e565b604082019050919050565b6000612fc2601c8361354c565b9150612fcd826139ed565b602082019050919050565b6000612fe560248361354c565b9150612ff082613a16565b604082019050919050565b600061300860198361354c565b915061301382613a65565b602082019050919050565b600061302b60298361354c565b915061303682613a8e565b604082019050919050565b600061304e603e8361354c565b915061305982613add565b604082019050919050565b600061307160208361354c565b915061307c82613b2c565b602082019050919050565b600061309460208361354c565b915061309f82613b55565b602082019050919050565b60006130b760188361354c565b91506130c282613b7e565b602082019050919050565b60006130da60218361354c565b91506130e582613ba7565b604082019050919050565b60006130fd602c8361354c565b915061310882613bf6565b604082019050919050565b6000613120602e8361354c565b915061312b82613c45565b604082019050919050565b61313f81613697565b82525050565b60006131518285612ef8565b915061315d8284612ef8565b91508190509392505050565b600060208201905061317e6000830184612e4a565b92915050565b60006080820190506131996000830187612e4a565b6131a66020830186612e4a565b6131b36040830185613136565b81810360608301526131c58184612e77565b905095945050505050565b60006020820190506131e56000830184612e59565b92915050565b60006020820190506132006000830184612e68565b92915050565b600060408201905061321b6000830185612e68565b6132286020830184612e4a565b9392505050565b60006060820190506132446000830186612e68565b6132516020830185612e68565b61325e6040830184612e4a565b949350505050565b600060208201905061327b6000830184612eb0565b92915050565b6000602082019050818103600083015261329b8184612ebf565b905092915050565b600060208201905081810360008301526132bc81612f29565b9050919050565b600060208201905081810360008301526132dc81612f4c565b9050919050565b600060208201905081810360008301526132fc81612f6f565b9050919050565b6000602082019050818103600083015261331c81612f92565b9050919050565b6000602082019050818103600083015261333c81612fb5565b9050919050565b6000602082019050818103600083015261335c81612fd8565b9050919050565b6000602082019050818103600083015261337c81612ffb565b9050919050565b6000602082019050818103600083015261339c8161301e565b9050919050565b600060208201905081810360008301526133bc81613041565b9050919050565b600060208201905081810360008301526133dc81613064565b9050919050565b600060208201905081810360008301526133fc81613087565b9050919050565b6000602082019050818103600083015261341c816130aa565b9050919050565b6000602082019050818103600083015261343c816130cd565b9050919050565b6000602082019050818103600083015261345c816130f0565b9050919050565b6000602082019050818103600083015261347c81613113565b9050919050565b60006020820190506134986000830184613136565b92915050565b60006134a86134b9565b90506134b48282613739565b919050565b6000604051905090565b600067ffffffffffffffff8211156134de576134dd613871565b5b6134e7826138a0565b9050602081019050919050565b600067ffffffffffffffff82111561350f5761350e613871565b5b613518826138a0565b9050602081019050919050565b600081519050919050565b600081519050919050565b600082825260208201905092915050565b600082825260208201905092915050565b600081905092915050565b600061357382613697565b915061357e83613697565b9250827fffffffffffffffffffffffffffffffffffffffffffffffffffffffffffffffff038211156135b3576135b26137e4565b5b828201905092915050565b60006135c982613697565b91506135d483613697565b9250826135e4576135e3613813565b5b828204905092915050565b60006135fa82613697565b915061360583613697565b925082821015613618576136176137e4565b5b828203905092915050565b600061362e82613677565b9050919050565b60008115159050919050565b6000819050919050565b60007fffffffff0000000000000000000000000000000000000000000000000000000082169050919050565b600073ffffffffffffffffffffffffffffffffffffffff82169050919050565b6000819050919050565b60006136ac826136b3565b9050919050565b60006136be82613677565b9050919050565b82818337600083830152505050565b60005b838110156136f25780820151818401526020810190506136d7565b83811115613701576000848401525b50505050565b6000600282049050600182168061371f57607f821691505b6020821081141561373357613732613842565b5b50919050565b613742826138a0565b810181811067ffffffffffffffff8211171561376157613760613871565b5b80604052505050565b600061377582613697565b91507fffffffffffffffffffffffffffffffffffffffffffffffffffffffffffffffff8214156137a8576137a76137e4565b5b600182019050919050565b60006137be82613697565b91506137c983613697565b9250826137d9576137d8613813565b5b828206905092915050565b7f4e487b7100000000000000000000000000000000000000000000000000000000600052601160045260246000fd5b7f4e487b7100000000000000000000000000000000000000000000000000000000600052601260045260246000fd5b7f4e487b7100000000000000000000000000000000000000000000000000000000600052602260045260246000fd5b7f4e487b7100000000000000000000000000000000000000000000000000000000600052604160045260246000fd5b6000601f19601f8301169050919050565b7f455243373231456e756d657261626c653a206f776e657220696e646578206f7560008201527f74206f6620626f756e6473000000000000000000000000000000000000000000602082015250565b7f4552433732313a207472616e7366657220746f206e6f6e20455243373231526560008201527f63656976657220696d706c656d656e7465720000000000000000000000000000602082015250565b7f4f776e61626c653a206e6577206f776e657220697320746865207a65726f206160008201527f6464726573730000000000000000000000000000000000000000000000000000602082015250565b7f4552433732313a207472616e736665722066726f6d20696e636f72726563742060008201527f6f776e6572000000000000000000000000000000000000000000000000000000602082015250565b7f4552433732313a20746f6b656e20616c7265616479206d696e74656400000000600082015250565b7f4552433732313a207472616e7366657220746f20746865207a65726f2061646460008201527f7265737300000000000000000000000000000000000000000000000000000000602082015250565b7f4552433732313a20617070726f766520746f2063616c6c657200000000000000600082015250565b7f4552433732313a2061646472657373207a65726f206973206e6f74206120766160008201527f6c6964206f776e65720000000000000000000000000000000000000000000000602082015250565b7f4552433732313a20617070726f76652063616c6c6572206973206e6f7420746f60008201527f6b656e206f776e6572206e6f7220617070726f76656420666f7220616c6c0000602082015250565b7f4552433732313a206d696e7420746f20746865207a65726f2061646472657373600082015250565b7f4f776e61626c653a2063616c6c6572206973206e6f7420746865206f776e6572600082015250565b7f4552433732313a20696e76616c696420746f6b656e2049440000000000000000600082015250565b7f4552433732313a20617070726f76616c20746f2063757272656e74206f776e6560008201527f7200000000000000000000000000000000000000000000000000000000000000602082015250565b7f455243373231456e756d657261626c653a20676c6f62616c20696e646578206f60008201527f7574206f6620626f756e64730000000000000000000000000000000000000000602082015250565b7f4552433732313a2063616c6c6572206973206e6f7420746f6b656e206f776e6560008201527f72206e6f7220617070726f766564000000000000000000000000000000000000602082015250565b613c9d81613623565b8114613ca857600080fd5b50565b613cb481613635565b8114613cbf57600080fd5b50565b613ccb81613641565b8114613cd657600080fd5b50565b613ce28161364b565b8114613ced57600080fd5b50565b613cf981613697565b8114613d0457600080fd5b5056fea264697066735822122020d5393f2825d08a66dd98102a463d66e5a2e73de2df9cd55be74936ed79f45f64736f6c63430008040033",
  "linkReferences": {},
  "deployedLinkReferences": {}
}