{
  "_format": "hh-sol-artifact-1",
  "contractName": "OwnedResolver",
  "sourceName": "contracts/resolvers/OwnedResolver.sol",
  "abi": [
    {
      "anonymous": false,
      "inputs": [
        {
          "indexed": true,
          "internalType": "bytes32",
          "name": "node",
          "type": "bytes32"
        },
        {
          "indexed": true,
          "internalType": "uint256",
          "name": "contentType",
          "type": "uint256"
        }
      ],
      "name": "ABIChanged",
      "type": "event"
    },
    {
      "anonymous": false,
      "inputs": [
        {
          "indexed": true,
          "internalType": "bytes32",
          "name": "node",
          "type": "bytes32"
        },
        {
          "indexed": false,
          "internalType": "address",
          "name": "a",
          "type": "address"
        }
      ],
      "name": "AddrChanged",
      "type": "event"
    },
    {
      "anonymous": false,
      "inputs": [
        {
          "indexed": true,
          "internalType": "bytes32",
          "name": "node",
          "type": "bytes32"
        },
        {
          "indexed": false,
          "internalType": "uint256",
          "name": "coinType",
          "type": "uint256"
        },
        {
          "indexed": false,
          "internalType": "bytes",
          "name": "newAddress",
          "type": "bytes"
        }
      ],
      "name": "AddressChanged",
      "type": "event"
    },
    {
      "anonymous": false,
      "inputs": [
        {
          "indexed": true,
          "internalType": "bytes32",
          "name": "node",
          "type": "bytes32"
        },
        {
          "indexed": false,
          "internalType": "bytes",
          "name": "hash",
          "type": "bytes"
        }
      ],
      "name": "ContenthashChanged",
      "type": "event"
    },
    {
      "anonymous": false,
      "inputs": [
        {
          "indexed": true,
          "internalType": "bytes32",
          "name": "node",
          "type": "bytes32"
        },
        {
          "indexed": false,
          "internalType": "bytes",
          "name": "name",
          "type": "bytes"
        },
        {
          "indexed": false,
          "internalType": "uint16",
          "name": "resource",
          "type": "uint16"
        },
        {
          "indexed": false,
          "internalType": "bytes",
          "name": "record",
          "type": "bytes"
        }
      ],
      "name": "DNSRecordChanged",
      "type": "event"
    },
    {
      "anonymous": false,
      "inputs": [
        {
          "indexed": true,
          "internalType": "bytes32",
          "name": "node",
          "type": "bytes32"
        },
        {
          "indexed": false,
          "internalType": "bytes",
          "name": "name",
          "type": "bytes"
        },
        {
          "indexed": false,
          "internalType": "uint16",
          "name": "resource",
          "type": "uint16"
        }
      ],
      "name": "DNSRecordDeleted",
      "type": "event"
    },
    {
      "anonymous": false,
      "inputs": [
        {
          "indexed": true,
          "internalType": "bytes32",
          "name": "node",
          "type": "bytes32"
        }
      ],
      "name": "DNSZoneCleared",
      "type": "event"
    },
    {
      "anonymous": false,
      "inputs": [
        {
          "indexed": true,
          "internalType": "bytes32",
          "name": "node",
          "type": "bytes32"
        },
        {
          "indexed": false,
          "internalType": "bytes",
          "name": "lastzonehash",
          "type": "bytes"
        },
        {
          "indexed": false,
          "internalType": "bytes",
          "name": "zonehash",
          "type": "bytes"
        }
      ],
      "name": "DNSZonehashChanged",
      "type": "event"
    },
    {
      "anonymous": false,
      "inputs": [
        {
          "indexed": true,
          "internalType": "bytes32",
          "name": "node",
          "type": "bytes32"
        },
        {
          "indexed": true,
          "internalType": "bytes4",
          "name": "interfaceID",
          "type": "bytes4"
        },
        {
          "indexed": false,
          "internalType": "address",
          "name": "implementer",
          "type": "address"
        }
      ],
      "name": "InterfaceChanged",
      "type": "event"
    },
    {
      "anonymous": false,
      "inputs": [
        {
          "indexed": true,
          "internalType": "bytes32",
          "name": "node",
          "type": "bytes32"
        },
        {
          "indexed": false,
          "internalType": "string",
          "name": "name",
          "type": "string"
        }
      ],
      "name": "NameChanged",
      "type": "event"
    },
    {
      "anonymous": false,
      "inputs": [
        {
          "indexed": true,
          "internalType": "address",
          "name": "previousOwner",
          "type": "address"
        },
        {
          "indexed": true,
          "internalType": "address",
          "name": "newOwner",
          "type": "address"
        }
      ],
      "name": "OwnershipTransferred",
      "type": "event"
    },
    {
      "anonymous": false,
      "inputs": [
        {
          "indexed": true,
          "internalType": "bytes32",
          "name": "node",
          "type": "bytes32"
        },
        {
          "indexed": false,
          "internalType": "bytes32",
          "name": "x",
          "type": "bytes32"
        },
        {
          "indexed": false,
          "internalType": "bytes32",
          "name": "y",
          "type": "bytes32"
        }
      ],
      "name": "PubkeyChanged",
      "type": "event"
    },
    {
      "anonymous": false,
      "inputs": [
        {
          "indexed": true,
          "internalType": "bytes32",
          "name": "node",
          "type": "bytes32"
        },
        {
          "indexed": true,
          "internalType": "string",
          "name": "indexedKey",
          "type": "string"
        },
        {
          "indexed": false,
          "internalType": "string",
          "name": "key",
          "type": "string"
        }
      ],
      "name": "TextChanged",
      "type": "event"
    },
    {
      "inputs": [
        {
          "internalType": "bytes32",
          "name": "node",
          "type": "bytes32"
        },
        {
          "internalType": "uint256",
          "name": "contentTypes",
          "type": "uint256"
        }
      ],
      "name": "ABI",
      "outputs": [
        {
          "internalType": "uint256",
          "name": "",
          "type": "uint256"
        },
        {
          "internalType": "bytes",
          "name": "",
          "type": "bytes"
        }
      ],
      "stateMutability": "view",
      "type": "function"
    },
    {
      "inputs": [
        {
          "internalType": "bytes32",
          "name": "node",
          "type": "bytes32"
        }
      ],
      "name": "addr",
      "outputs": [
        {
          "internalType": "address payable",
          "name": "",
          "type": "address"
        }
      ],
      "stateMutability": "view",
      "type": "function"
    },
    {
      "inputs": [
        {
          "internalType": "bytes32",
          "name": "node",
          "type": "bytes32"
        },
        {
          "internalType": "uint256",
          "name": "coinType",
          "type": "uint256"
        }
      ],
      "name": "addr",
      "outputs": [
        {
          "internalType": "bytes",
          "name": "",
          "type": "bytes"
        }
      ],
      "stateMutability": "view",
      "type": "function"
    },
    {
      "inputs": [
        {
          "internalType": "bytes32",
          "name": "node",
          "type": "bytes32"
        }
      ],
      "name": "clearDNSZone",
      "outputs": [],
      "stateMutability": "nonpayable",
      "type": "function"
    },
    {
      "inputs": [
        {
          "internalType": "bytes32",
          "name": "node",
          "type": "bytes32"
        }
      ],
      "name": "contenthash",
      "outputs": [
        {
          "internalType": "bytes",
          "name": "",
          "type": "bytes"
        }
      ],
      "stateMutability": "view",
      "type": "function"
    },
    {
      "inputs": [
        {
          "internalType": "bytes32",
          "name": "node",
          "type": "bytes32"
        },
        {
          "internalType": "bytes32",
          "name": "name",
          "type": "bytes32"
        },
        {
          "internalType": "uint16",
          "name": "resource",
          "type": "uint16"
        }
      ],
      "name": "dnsRecord",
      "outputs": [
        {
          "internalType": "bytes",
          "name": "",
          "type": "bytes"
        }
      ],
      "stateMutability": "view",
      "type": "function"
    },
    {
      "inputs": [
        {
          "internalType": "bytes32",
          "name": "node",
          "type": "bytes32"
        },
        {
          "internalType": "bytes32",
          "name": "name",
          "type": "bytes32"
        }
      ],
      "name": "hasDNSRecords",
      "outputs": [
        {
          "internalType": "bool",
          "name": "",
          "type": "bool"
        }
      ],
      "stateMutability": "view",
      "type": "function"
    },
    {
      "inputs": [
        {
          "internalType": "bytes32",
          "name": "node",
          "type": "bytes32"
        },
        {
          "internalType": "bytes4",
          "name": "interfaceID",
          "type": "bytes4"
        }
      ],
      "name": "interfaceImplementer",
      "outputs": [
        {
          "internalType": "address",
          "name": "",
          "type": "address"
        }
      ],
      "stateMutability": "view",
      "type": "function"
    },
    {
      "inputs": [
        {
          "internalType": "bytes32",
          "name": "node",
          "type": "bytes32"
        }
      ],
      "name": "name",
      "outputs": [
        {
          "internalType": "string",
          "name": "",
          "type": "string"
        }
      ],
      "stateMutability": "view",
      "type": "function"
    },
    {
      "inputs": [],
      "name": "owner",
      "outputs": [
        {
          "internalType": "address",
          "name": "",
          "type": "address"
        }
      ],
      "stateMutability": "view",
      "type": "function"
    },
    {
      "inputs": [
        {
          "internalType": "bytes32",
          "name": "node",
          "type": "bytes32"
        }
      ],
      "name": "pubkey",
      "outputs": [
        {
          "internalType": "bytes32",
          "name": "x",
          "type": "bytes32"
        },
        {
          "internalType": "bytes32",
          "name": "y",
          "type": "bytes32"
        }
      ],
      "stateMutability": "view",
      "type": "function"
    },
    {
      "inputs": [],
      "name": "renounceOwnership",
      "outputs": [],
      "stateMutability": "nonpayable",
      "type": "function"
    },
    {
      "inputs": [
        {
          "internalType": "bytes32",
          "name": "node",
          "type": "bytes32"
        },
        {
          "internalType": "uint256",
          "name": "contentType",
          "type": "uint256"
        },
        {
          "internalType": "bytes",
          "name": "data",
          "type": "bytes"
        }
      ],
      "name": "setABI",
      "outputs": [],
      "stateMutability": "nonpayable",
      "type": "function"
    },
    {
      "inputs": [
        {
          "internalType": "bytes32",
          "name": "node",
          "type": "bytes32"
        },
        {
          "internalType": "uint256",
          "name": "coinType",
          "type": "uint256"
        },
        {
          "internalType": "bytes",
          "name": "a",
          "type": "bytes"
        }
      ],
      "name": "setAddr",
      "outputs": [],
      "stateMutability": "nonpayable",
      "type": "function"
    },
    {
      "inputs": [
        {
          "internalType": "bytes32",
          "name": "node",
          "type": "bytes32"
        },
        {
          "internalType": "address",
          "name": "a",
          "type": "address"
        }
      ],
      "name": "setAddr",
      "outputs": [],
      "stateMutability": "nonpayable",
      "type": "function"
    },
    {
      "inputs": [
        {
          "internalType": "bytes32",
          "name": "node",
          "type": "bytes32"
        },
        {
          "internalType": "bytes",
          "name": "hash",
          "type": "bytes"
        }
      ],
      "name": "setContenthash",
      "outputs": [],
      "stateMutability": "nonpayable",
      "type": "function"
    },
    {
      "inputs": [
        {
          "internalType": "bytes32",
          "name": "node",
          "type": "bytes32"
        },
        {
          "internalType": "bytes",
          "name": "data",
          "type": "bytes"
        }
      ],
      "name": "setDNSRecords",
      "outputs": [],
      "stateMutability": "nonpayable",
      "type": "function"
    },
    {
      "inputs": [
        {
          "internalType": "bytes32",
          "name": "node",
          "type": "bytes32"
        },
        {
          "internalType": "bytes4",
          "name": "interfaceID",
          "type": "bytes4"
        },
        {
          "internalType": "address",
          "name": "implementer",
          "type": "address"
        }
      ],
      "name": "setInterface",
      "outputs": [],
      "stateMutability": "nonpayable",
      "type": "function"
    },
    {
      "inputs": [
        {
          "internalType": "bytes32",
          "name": "node",
          "type": "bytes32"
        },
        {
          "internalType": "string",
          "name": "name",
          "type": "string"
        }
      ],
      "name": "setName",
      "outputs": [],
      "stateMutability": "nonpayable",
      "type": "function"
    },
    {
      "inputs": [
        {
          "internalType": "bytes32",
          "name": "node",
          "type": "bytes32"
        },
        {
          "internalType": "bytes32",
          "name": "x",
          "type": "bytes32"
        },
        {
          "internalType": "bytes32",
          "name": "y",
          "type": "bytes32"
        }
      ],
      "name": "setPubkey",
      "outputs": [],
      "stateMutability": "nonpayable",
      "type": "function"
    },
    {
      "inputs": [
        {
          "internalType": "bytes32",
          "name": "node",
          "type": "bytes32"
        },
        {
          "internalType": "string",
          "name": "key",
          "type": "string"
        },
        {
          "internalType": "string",
          "name": "value",
          "type": "string"
        }
      ],
      "name": "setText",
      "outputs": [],
      "stateMutability": "nonpayable",
      "type": "function"
    },
    {
      "inputs": [
        {
          "internalType": "bytes32",
          "name": "node",
          "type": "bytes32"
        },
        {
          "internalType": "bytes",
          "name": "hash",
          "type": "bytes"
        }
      ],
      "name": "setZonehash",
      "outputs": [],
      "stateMutability": "nonpayable",
      "type": "function"
    },
    {
      "inputs": [
        {
          "internalType": "bytes4",
          "name": "interfaceID",
          "type": "bytes4"
        }
      ],
      "name": "supportsInterface",
      "outputs": [
        {
          "internalType": "bool",
          "name": "",
          "type": "bool"
        }
      ],
      "stateMutability": "pure",
      "type": "function"
    },
    {
      "inputs": [
        {
          "internalType": "bytes32",
          "name": "node",
          "type": "bytes32"
        },
        {
          "internalType": "string",
          "name": "key",
          "type": "string"
        }
      ],
      "name": "text",
      "outputs": [
        {
          "internalType": "string",
          "name": "",
          "type": "string"
        }
      ],
      "stateMutability": "view",
      "type": "function"
    },
    {
      "inputs": [
        {
          "internalType": "address",
          "name": "newOwner",
          "type": "address"
        }
      ],
      "name": "transferOwnership",
      "outputs": [],
      "stateMutability": "nonpayable",
      "type": "function"
    },
    {
      "inputs": [
        {
          "internalType": "bytes32",
          "name": "node",
          "type": "bytes32"
        }
      ],
      "name": "zonehash",
      "outputs": [
        {
          "internalType": "bytes",
          "name": "",
          "type": "bytes"
        }
      ],
      "stateMutability": "view",
      "type": "function"
    }
  ],
  "bytecode": "0x60806040523480156200001157600080fd5b5062000032620000266200003860201b60201c565b6200004060201b60201c565b62000104565b600033905090565b60008060009054906101000a900473ffffffffffffffffffffffffffffffffffffffff169050816000806101000a81548173ffffffffffffffffffffffffffffffffffffffff021916908373ffffffffffffffffffffffffffffffffffffffff1602179055508173ffffffffffffffffffffffffffffffffffffffff168173ffffffffffffffffffffffffffffffffffffffff167f8be0079c531659141344cd1fd0a4f28419497f9722a3daafe3b4186f6b6457e060405160405180910390a35050565b61392980620001146000396000f3fe608060405234801561001057600080fd5b506004361061018e5760003560e01c8063715018a6116100de578063bc1c58d111610097578063d5fa2b0011610071578063d5fa2b00146104c9578063e59d895d146104e5578063f1cb7e0614610501578063f2fde38b146105315761018e565b8063bc1c58d11461044c578063c86902331461047c578063ce3decdc146104ad5761018e565b8063715018a6146103a057806377372213146103aa5780638b95dd71146103c65780638da5cb5b146103e2578063a8fa568214610400578063ad5780af146104305761018e565b8063304e6ade1161014b57806359d1d43c1161012557806359d1d43c146102f45780635c98042b14610324578063623195b014610354578063691f3431146103705761018e565b8063304e6ade146102785780633b3b57de146102945780634cbf6ba4146102c45761018e565b806301ffc9a7146101935780630af179d7146101c357806310f13a8c146101df578063124a319c146101fb5780632203ab561461022b57806329cd62ea1461025c575b600080fd5b6101ad60048036038101906101a89190612f92565b61054d565b6040516101ba919061321c565b60405180910390f35b6101dd60048036038101906101d89190612d4a565b61055f565b005b6101f960048036038101906101f49190612dfa565b610791565b005b61021560048036038101906102109190612cbf565b61083f565b60405161022291906131cb565b60405180910390f35b61024560048036038101906102409190612e83565b610c83565b6040516102539291906133f5565b60405180910390f35b61027660048036038101906102719190612c21565b610db8565b005b610292600480360381019061028d9190612d4a565b610e4a565b005b6102ae60048036038101906102a99190612b80565b610ec0565b6040516102bb9190613201565b60405180910390f35b6102de60048036038101906102d99190612be5565b610ef7565b6040516102eb919061321c565b60405180910390f35b61030e60048036038101906103099190612da2565b610f5f565b60405161031b9190613393565b60405180910390f35b61033e60048036038101906103399190612b80565b611024565b60405161034b919061329f565b60405180910390f35b61036e60048036038101906103699190612ebf565b6110c9565b005b61038a60048036038101906103859190612b80565b611160565b6040516103979190613393565b60405180910390f35b6103a8611205565b005b6103c460048036038101906103bf9190612da2565b611219565b005b6103e060048036038101906103db9190612f2b565b61128f565b005b6103ea611366565b6040516103f791906131cb565b60405180910390f35b61041a60048036038101906104159190612c70565b61138f565b604051610427919061329f565b60405180910390f35b61044a60048036038101906104459190612b80565b611484565b005b61046660048036038101906104619190612b80565b6114f1565b604051610473919061329f565b60405180910390f35b61049660048036038101906104919190612b80565b611596565b6040516104a4929190613237565b60405180910390f35b6104c760048036038101906104c29190612d4a565b6115d0565b005b6104e360048036038101906104de9190612ba9565b6116e9565b005b6104ff60048036038101906104fa9190612cfb565b611716565b005b61051b60048036038101906105169190612e83565b611828565b604051610528919061329f565b60405180910390f35b61054b60048036038101906105469190612b57565b6118df565b005b600061055882611963565b9050919050565b82610569816119c4565b61057257600080fd5b6000806060806000806105d360008a8a8080601f016020809104026020016040519081016040528093929190818152602001838380828437600081840152601f19601f82011690508083019250505050505050611a0390919063ffffffff16565b90505b6105df81611a2d565b6107155760008661ffff16141561063b578060400151955061060081611a43565b935083604051602001610613919061319b565b60405160208183030381529060405280519060200120915061063481611a7a565b9250610707565b600061064682611a43565b9050816040015161ffff168761ffff1614158061067357506106718186611ab390919063ffffffff16565b155b15610705576106de8b86898d8d8080601f016020809104026020016040519081016040528093929190818152602001838380828437600081840152601f19601f820116905080830192505050505050508a8b88602001516106d4919061351f565b60008b5114611ada565b81604001519650816020015195508094508480519060200120925061070282611a7a565b93505b505b61071081611e05565b6105d6565b50600083511115610786576107858984878b8b8080601f016020809104026020016040519081016040528093929190818152602001838380828437600081840152601f19601f8201169050808301925050505050505088898e8e905061077b919061351f565b6000895114611ada565b5b505050505050505050565b8461079b816119c4565b6107a457600080fd5b8282600b600089815260200190815260200160002087876040516107c99291906131b2565b908152602001604051809103902091906107e49291906127b8565b5084846040516107f59291906131b2565b6040518091039020867fd8c9334b1a9c2f9da342a0a2b32629c1a229b6445dad78947f674b44444a7550878760405161082f92919061336f565b60405180910390a3505050505050565b600080600860008581526020019081526020016000206000847bffffffffffffffffffffffffffffffffffffffffffffffffffffffff19167bffffffffffffffffffffffffffffffffffffffffffffffffffffffff1916815260200190815260200160002060009054906101000a900473ffffffffffffffffffffffffffffffffffffffff169050600073ffffffffffffffffffffffffffffffffffffffff168173ffffffffffffffffffffffffffffffffffffffff16146109045780915050610c7d565b600061090f85610ec0565b9050600073ffffffffffffffffffffffffffffffffffffffff168173ffffffffffffffffffffffffffffffffffffffff16141561095157600092505050610c7d565b6000808273ffffffffffffffffffffffffffffffffffffffff166301ffc9a760e01b6040516024016109839190613260565b6040516020818303038152906040527f01ffc9a7000000000000000000000000000000000000000000000000000000007bffffffffffffffffffffffffffffffffffffffffffffffffffffffff19166020820180517bffffffffffffffffffffffffffffffffffffffffffffffffffffffff8381831617835250505050604051610a0d919061319b565b600060405180830381855afa9150503d8060008114610a48576040519150601f19603f3d011682016040523d82523d6000602084013e610a4d565b606091505b5091509150811580610a60575060208151105b80610ad45750600060f81b81601f81518110610aa5577f4e487b7100000000000000000000000000000000000000000000000000000000600052603260045260246000fd5b602001015160f81c60f81b7effffffffffffffffffffffffffffffffffffffffffffffffffffffffffffff1916145b15610ae6576000945050505050610c7d565b8273ffffffffffffffffffffffffffffffffffffffff1686604051602401610b0e9190613260565b6040516020818303038152906040527f01ffc9a7000000000000000000000000000000000000000000000000000000007bffffffffffffffffffffffffffffffffffffffffffffffffffffffff19166020820180517bffffffffffffffffffffffffffffffffffffffffffffffffffffffff8381831617835250505050604051610b98919061319b565b600060405180830381855afa9150503d8060008114610bd3576040519150601f19603f3d011682016040523d82523d6000602084013e610bd8565b606091505b508092508193505050811580610bef575060208151105b80610c635750600060f81b81601f81518110610c34577f4e487b7100000000000000000000000000000000000000000000000000000000600052603260045260246000fd5b602001015160f81c60f81b7effffffffffffffffffffffffffffffffffffffffffffffffffffffffffffff1916145b15610c75576000945050505050610c7d565b829450505050505b92915050565b6000606060006001600086815260200190815260200160002090506000600190505b848111610d9857600085821614158015610cdd575060008260008381526020019081526020016000208054610cd990613693565b9050115b15610d8c5780826000838152602001908152602001600020808054610d0190613693565b80601f0160208091040260200160405190810160405280929190818152602001828054610d2d90613693565b8015610d7a5780601f10610d4f57610100808354040283529160200191610d7a565b820191906000526020600020905b815481529060010190602001808311610d5d57829003601f168201915b50505050509050935093505050610db1565b600181901b9050610ca5565b5060006040518060200160405280600081525092509250505b9250929050565b82610dc2816119c4565b610dcb57600080fd5b604051806040016040528084815260200183815250600a60008681526020019081526020016000206000820151816000015560208201518160010155905050837f1d6f5e03d3f63eb58751986629a5439baee5079ff04f345becb66e23eb154e468484604051610e3c929190613237565b60405180910390a250505050565b82610e54816119c4565b610e5d57600080fd5b8282600360008781526020019081526020016000209190610e7f92919061283e565b50837fe379c1624ed7e714cc0937528a32359d69d5281337765313dba4e081b72d75788484604051610eb292919061327b565b60405180910390a250505050565b600080610ecf836103dc611828565b9050600081511415610ee5576000915050610ef2565b610eee81611f4f565b9150505b919050565b60008060076000858152602001908152602001600020600060056000878152602001908152602001600020548152602001908152602001600020600084815260200190815260200160002060009054906101000a900461ffff1661ffff161415905092915050565b6060600b60008581526020019081526020016000208383604051610f849291906131b2565b90815260200160405180910390208054610f9d90613693565b80601f0160208091040260200160405190810160405280929190818152602001828054610fc990613693565b80156110165780601f10610feb57610100808354040283529160200191611016565b820191906000526020600020905b815481529060010190602001808311610ff957829003601f168201915b505050505090509392505050565b606060046000838152602001908152602001600020805461104490613693565b80601f016020809104026020016040519081016040528092919081815260200182805461107090613693565b80156110bd5780601f10611092576101008083540402835291602001916110bd565b820191906000526020600020905b8154815290600101906020018083116110a057829003601f168201915b50505050509050919050565b836110d3816119c4565b6110dc57600080fd5b6000846001866110ec919061351f565b16146110f757600080fd5b8282600160008881526020019081526020016000206000878152602001908152602001600020919061112a92919061283e565b5083857faa121bbeef5f32f5961a2a28966e769023910fc9479059ee3495d4c1a696efe360405160405180910390a35050505050565b606060096000838152602001908152602001600020805461118090613693565b80601f01602080910402602001604051908101604052809291908181526020018280546111ac90613693565b80156111f95780601f106111ce576101008083540402835291602001916111f9565b820191906000526020600020905b8154815290600101906020018083116111dc57829003601f168201915b50505050509050919050565b61120d611f72565b6112176000611ff0565b565b82611223816119c4565b61122c57600080fd5b828260096000878152602001908152602001600020919061124e9291906127b8565b50837fb7d29e911041e8d9b843369e890bcb72c9388692ba48b65ac54e7214c4c348f7848460405161128192919061336f565b60405180910390a250505050565b82611299816119c4565b6112a257600080fd5b837f65412581168e88a1e60c6459d7f44ae83ad0832e670826c05a4e2476b57af75284846040516112d49291906133f5565b60405180910390a26103dc83141561132757837f52d7d861f09ab3d26239d492e8968629f95e9e318cf0b73bfddc441522a15fd261131184611f4f565b60405161131e91906131e6565b60405180910390a25b81600260008681526020019081526020016000206000858152602001908152602001600020908051906020019061135f9291906128c4565b5050505050565b60008060009054906101000a900473ffffffffffffffffffffffffffffffffffffffff16905090565b606060066000858152602001908152602001600020600060056000878152602001908152602001600020548152602001908152602001600020600084815260200190815260200160002060008361ffff1661ffff16815260200190815260200160002080546113fd90613693565b80601f016020809104026020016040519081016040528092919081815260200182805461142990613693565b80156114765780601f1061144b57610100808354040283529160200191611476565b820191906000526020600020905b81548152906001019060200180831161145957829003601f168201915b505050505090509392505050565b8061148e816119c4565b61149757600080fd5b6005600083815260200190815260200160002060008154809291906114bb90613721565b9190505550817fb757169b8492ca2f1c6619d9d76ce22803035c3b1d5f6930dffe7b127c1a198360405160405180910390a25050565b606060036000838152602001908152602001600020805461151190613693565b80601f016020809104026020016040519081016040528092919081815260200182805461153d90613693565b801561158a5780601f1061155f5761010080835404028352916020019161158a565b820191906000526020600020905b81548152906001019060200180831161156d57829003601f168201915b50505050509050919050565b600080600a600084815260200190815260200160002060000154600a60008581526020019081526020016000206001015491509150915091565b826115da816119c4565b6115e357600080fd5b600060046000868152602001908152602001600020805461160390613693565b80601f016020809104026020016040519081016040528092919081815260200182805461162f90613693565b801561167c5780601f106116515761010080835404028352916020019161167c565b820191906000526020600020905b81548152906001019060200180831161165f57829003601f168201915b5050505050905083836004600088815260200190815260200160002091906116a592919061283e565b50847f8f15ed4b723ef428f250961da8315675b507046737e19319fc1a4d81bfe87f858286866040516116da939291906132c1565b60405180910390a25050505050565b816116f3816119c4565b6116fc57600080fd5b611711836103dc61170c856120b4565b61128f565b505050565b82611720816119c4565b61172957600080fd5b81600860008681526020019081526020016000206000857bffffffffffffffffffffffffffffffffffffffffffffffffffffffff19167bffffffffffffffffffffffffffffffffffffffffffffffffffffffff1916815260200190815260200160002060006101000a81548173ffffffffffffffffffffffffffffffffffffffff021916908373ffffffffffffffffffffffffffffffffffffffff160217905550827bffffffffffffffffffffffffffffffffffffffffffffffffffffffff1916847f7c69f06bea0bdef565b709e93a147836b0063ba2dd89f02d0b7e8d931e6a6daa8460405161181a91906131cb565b60405180910390a350505050565b6060600260008481526020019081526020016000206000838152602001908152602001600020805461185990613693565b80601f016020809104026020016040519081016040528092919081815260200182805461188590613693565b80156118d25780601f106118a7576101008083540402835291602001916118d2565b820191906000526020600020905b8154815290600101906020018083116118b557829003601f168201915b5050505050905092915050565b6118e7611f72565b600073ffffffffffffffffffffffffffffffffffffffff168173ffffffffffffffffffffffffffffffffffffffff161415611957576040517f08c379a000000000000000000000000000000000000000000000000000000000815260040161194e906133b5565b60405180910390fd5b61196081611ff0565b50565b60006359d1d43c60e01b7bffffffffffffffffffffffffffffffffffffffffffffffffffffffff1916827bffffffffffffffffffffffffffffffffffffffffffffffffffffffff191614806119bd57506119bc8261213e565b5b9050919050565b60006119ce611366565b73ffffffffffffffffffffffffffffffffffffffff163373ffffffffffffffffffffffffffffffffffffffff16149050919050565b611a0b61294a565b828160000181905250818160c0018181525050611a2781611e05565b92915050565b6000816000015151826020015110159050919050565b6060611a738260200151611a5f8460000151856020015161219f565b84600001516122429092919063ffffffff16565b9050919050565b6060611aac8260a001518360a001518460c00151611a98919061351f565b84600001516122429092919063ffffffff16565b9050919050565b600081518351148015611ad25750611ad183600084600087516122fd565b5b905092915050565b6000600560008981526020019081526020016000205490506000878051906020012090506000611b158686896122429092919063ffffffff16565b90508315611c87576000600660008c81526020019081526020016000206000858152602001908152602001600020600084815260200190815260200160002060008a61ffff1661ffff1681526020019081526020016000208054611b7890613693565b905014611bee57600760008b815260200190815260200160002060008481526020019081526020016000206000838152602001908152602001600020600081819054906101000a900461ffff1680929190611bd290613669565b91906101000a81548161ffff021916908361ffff160217905550505b600660008b81526020019081526020016000206000848152602001908152602001600020600083815260200190815260200160002060008961ffff1661ffff1681526020019081526020016000206000611c489190612995565b897f03528ed0c2a3ebc993b12ce3c16bb382f9c7d88ef7d8a1bf290eaf35955a12078a8a604051611c7a9291906132fa565b60405180910390a2611df9565b6000600660008c81526020019081526020016000206000858152602001908152602001600020600084815260200190815260200160002060008a61ffff1661ffff1681526020019081526020016000208054611ce290613693565b90501415611d5957600760008b815260200190815260200160002060008481526020019081526020016000206000838152602001908152602001600020600081819054906101000a900461ffff1680929190611d3d906136f6565b91906101000a81548161ffff021916908361ffff160217905550505b80600660008c81526020019081526020016000206000858152602001908152602001600020600084815260200190815260200160002060008a61ffff1661ffff1681526020019081526020016000209080519060200190611dbb9291906128c4565b50897f52a608b3303a48862d07a73d82fa221318c0027fbbcfb1b2329bface3f19ff2b8a8a84604051611df09392919061332a565b60405180910390a25b50505050505050505050565b8060c00151816020018181525050806000015151816020015110611e2857611f4c565b6000611e3c8260000151836020015161219f565b8260200151611e4b91906134c9565b9050611e6481836000015161232190919063ffffffff16565b826040019061ffff16908161ffff1681525050600281611e8491906134c9565b9050611e9d81836000015161232190919063ffffffff16565b826060019061ffff16908161ffff1681525050600281611ebd91906134c9565b9050611ed681836000015161235090919063ffffffff16565b826080019063ffffffff16908163ffffffff1681525050600481611efa91906134c9565b90506000611f1582846000015161232190919063ffffffff16565b61ffff169050600282611f2891906134c9565b9150818360a00181815250508082611f4091906134c9565b8360c001818152505050505b50565b60006014825114611f5f57600080fd5b600c6101000a6020830151049050919050565b611f7a612381565b73ffffffffffffffffffffffffffffffffffffffff16611f98611366565b73ffffffffffffffffffffffffffffffffffffffff1614611fee576040517f08c379a0000000000000000000000000000000000000000000000000000000008152600401611fe5906133d5565b60405180910390fd5b565b60008060009054906101000a900473ffffffffffffffffffffffffffffffffffffffff169050816000806101000a81548173ffffffffffffffffffffffffffffffffffffffff021916908373ffffffffffffffffffffffffffffffffffffffff1602179055508173ffffffffffffffffffffffffffffffffffffffff168173ffffffffffffffffffffffffffffffffffffffff167f8be0079c531659141344cd1fd0a4f28419497f9722a3daafe3b4186f6b6457e060405160405180910390a35050565b6060601467ffffffffffffffff8111156120f7577f4e487b7100000000000000000000000000000000000000000000000000000000600052604160045260246000fd5b6040519080825280601f01601f1916602001820160405280156121295781602001600182028036833780820191505090505b509050600c6101000a82026020820152919050565b600063c869023360e01b7bffffffffffffffffffffffffffffffffffffffffffffffffffffffff1916827bffffffffffffffffffffffffffffffffffffffffffffffffffffffff19161480612198575061219782612389565b5b9050919050565b6000808290505b60011561222d57835181106121e4577f4e487b7100000000000000000000000000000000000000000000000000000000600052600160045260246000fd5b60006121f982866123ea90919063ffffffff16565b60ff16905060018161220b91906134c9565b8261221691906134c9565b91506000811415612227575061222d565b506121a6565b8281612239919061351f565b91505092915050565b60608351828461225291906134c9565b111561225d57600080fd5b60008267ffffffffffffffff81111561229f577f4e487b7100000000000000000000000000000000000000000000000000000000600052604160045260246000fd5b6040519080825280601f01601f1916602001820160405280156122d15781602001600182028036833780820191505090505b50905060008060208301915085602088010190506122f082828761243b565b8293505050509392505050565b600061230a84848461249f565b61231587878561249f565b14905095945050505050565b6000825160028361233291906134c9565b111561233d57600080fd5b61ffff8260028501015116905092915050565b6000825160048361236191906134c9565b111561236c57600080fd5b63ffffffff8260048501015116905092915050565b600033905090565b600063691f343160e01b7bffffffffffffffffffffffffffffffffffffffffffffffffffffffff1916827bffffffffffffffffffffffffffffffffffffffffffffffffffffffff191614806123e357506123e2826124cb565b5b9050919050565b6000828281518110612425577f4e487b7100000000000000000000000000000000000000000000000000000000600052603260045260246000fd5b602001015160f81c60f81b60f81c905092915050565b5b6020811061247a578151835260208361245591906134c9565b925060208261246491906134c9565b9150602081612473919061351f565b905061243c565b60006001826020036101000a0390508019835116818551168181178652505050505050565b6000835182846124af91906134c9565b11156124ba57600080fd5b818360208601012090509392505050565b60007f124a319c1247f4318c3c16c7e9cc865d0fb5d80d7bf02f56cafc0d14da0208507bffffffffffffffffffffffffffffffffffffffffffffffffffffffff1916827bffffffffffffffffffffffffffffffffffffffffffffffffffffffff1916148061253e575061253d82612545565b5b9050919050565b600063a8fa568260e01b7bffffffffffffffffffffffffffffffffffffffffffffffffffffffff1916827bffffffffffffffffffffffffffffffffffffffffffffffffffffffff191614806125de5750635c47637c60e01b7bffffffffffffffffffffffffffffffffffffffffffffffffffffffff1916827bffffffffffffffffffffffffffffffffffffffffffffffffffffffff1916145b806125ee57506125ed826125f5565b5b9050919050565b600063bc1c58d160e01b7bffffffffffffffffffffffffffffffffffffffffffffffffffffffff1916827bffffffffffffffffffffffffffffffffffffffffffffffffffffffff1916148061264f575061264e82612656565b5b9050919050565b6000633b3b57de60e01b7bffffffffffffffffffffffffffffffffffffffffffffffffffffffff1916827bffffffffffffffffffffffffffffffffffffffffffffffffffffffff191614806126ef575063f1cb7e0660e01b7bffffffffffffffffffffffffffffffffffffffffffffffffffffffff1916827bffffffffffffffffffffffffffffffffffffffffffffffffffffffff1916145b806126ff57506126fe82612706565b5b9050919050565b6000632203ab5660e01b7bffffffffffffffffffffffffffffffffffffffffffffffffffffffff1916827bffffffffffffffffffffffffffffffffffffffffffffffffffffffff19161480612760575061275f82612767565b5b9050919050565b60006301ffc9a760e01b7bffffffffffffffffffffffffffffffffffffffffffffffffffffffff1916827bffffffffffffffffffffffffffffffffffffffffffffffffffffffff1916149050919050565b8280546127c490613693565b90600052602060002090601f0160209004810192826127e6576000855561282d565b82601f106127ff57803560ff191683800117855561282d565b8280016001018555821561282d579182015b8281111561282c578235825591602001919060010190612811565b5b50905061283a91906129d5565b5090565b82805461284a90613693565b90600052602060002090601f01602090048101928261286c57600085556128b3565b82601f1061288557803560ff19168380011785556128b3565b828001600101855582156128b3579182015b828111156128b2578235825591602001919060010190612897565b5b5090506128c091906129d5565b5090565b8280546128d090613693565b90600052602060002090601f0160209004810192826128f25760008555612939565b82601f1061290b57805160ff1916838001178555612939565b82800160010185558215612939579182015b8281111561293857825182559160200191906001019061291d565b5b50905061294691906129d5565b5090565b6040518060e001604052806060815260200160008152602001600061ffff168152602001600061ffff168152602001600063ffffffff16815260200160008152602001600081525090565b5080546129a190613693565b6000825580601f106129b357506129d2565b601f0160209004906000526020600020908101906129d191906129d5565b5b50565b5b808211156129ee5760008160009055506001016129d6565b5090565b6000612a05612a008461344a565b613425565b905082815260208101848484011115612a1d57600080fd5b612a28848285613627565b509392505050565b600081359050612a3f81613880565b92915050565b600081359050612a5481613897565b92915050565b600081359050612a69816138ae565b92915050565b60008083601f840112612a8157600080fd5b8235905067ffffffffffffffff811115612a9a57600080fd5b602083019150836001820283011115612ab257600080fd5b9250929050565b600082601f830112612aca57600080fd5b8135612ada8482602086016129f2565b91505092915050565b60008083601f840112612af557600080fd5b8235905067ffffffffffffffff811115612b0e57600080fd5b602083019150836001820283011115612b2657600080fd5b9250929050565b600081359050612b3c816138c5565b92915050565b600081359050612b51816138dc565b92915050565b600060208284031215612b6957600080fd5b6000612b7784828501612a30565b91505092915050565b600060208284031215612b9257600080fd5b6000612ba084828501612a45565b91505092915050565b60008060408385031215612bbc57600080fd5b6000612bca85828601612a45565b9250506020612bdb85828601612a30565b9150509250929050565b60008060408385031215612bf857600080fd5b6000612c0685828601612a45565b9250506020612c1785828601612a45565b9150509250929050565b600080600060608486031215612c3657600080fd5b6000612c4486828701612a45565b9350506020612c5586828701612a45565b9250506040612c6686828701612a45565b9150509250925092565b600080600060608486031215612c8557600080fd5b6000612c9386828701612a45565b9350506020612ca486828701612a45565b9250506040612cb586828701612b2d565b9150509250925092565b60008060408385031215612cd257600080fd5b6000612ce085828601612a45565b9250506020612cf185828601612a5a565b9150509250929050565b600080600060608486031215612d1057600080fd5b6000612d1e86828701612a45565b9350506020612d2f86828701612a5a565b9250506040612d4086828701612a30565b9150509250925092565b600080600060408486031215612d5f57600080fd5b6000612d6d86828701612a45565b935050602084013567ffffffffffffffff811115612d8a57600080fd5b612d9686828701612a6f565b92509250509250925092565b600080600060408486031215612db757600080fd5b6000612dc586828701612a45565b935050602084013567ffffffffffffffff811115612de257600080fd5b612dee86828701612ae3565b92509250509250925092565b600080600080600060608688031215612e1257600080fd5b6000612e2088828901612a45565b955050602086013567ffffffffffffffff811115612e3d57600080fd5b612e4988828901612ae3565b9450945050604086013567ffffffffffffffff811115612e6857600080fd5b612e7488828901612ae3565b92509250509295509295909350565b60008060408385031215612e9657600080fd5b6000612ea485828601612a45565b9250506020612eb585828601612b42565b9150509250929050565b60008060008060608587031215612ed557600080fd5b6000612ee387828801612a45565b9450506020612ef487828801612b42565b935050604085013567ffffffffffffffff811115612f1157600080fd5b612f1d87828801612a6f565b925092505092959194509250565b600080600060608486031215612f4057600080fd5b6000612f4e86828701612a45565b9350506020612f5f86828701612b42565b925050604084013567ffffffffffffffff811115612f7c57600080fd5b612f8886828701612ab9565b9150509250925092565b600060208284031215612fa457600080fd5b6000612fb284828501612a5a565b91505092915050565b612fc4816135f1565b82525050565b612fd381613565565b82525050565b612fe281613553565b82525050565b612ff181613577565b82525050565b61300081613583565b82525050565b61300f8161358d565b82525050565b60006130218385613491565b935061302e838584613627565b613037836137f7565b840190509392505050565b600061304d8261347b565b6130578185613491565b9350613067818560208601613636565b613070816137f7565b840191505092915050565b60006130868261347b565b61309081856134a2565b93506130a0818560208601613636565b80840191505092915050565b60006130b883856134ad565b93506130c5838584613627565b6130ce836137f7565b840190509392505050565b60006130e583856134be565b93506130f2838584613627565b82840190509392505050565b600061310982613486565b61311381856134ad565b9350613123818560208601613636565b61312c816137f7565b840191505092915050565b60006131446026836134ad565b915061314f82613808565b604082019050919050565b60006131676020836134ad565b915061317282613857565b602082019050919050565b613186816135b9565b82525050565b613195816135e7565b82525050565b60006131a7828461307b565b915081905092915050565b60006131bf8284866130d9565b91508190509392505050565b60006020820190506131e06000830184612fd9565b92915050565b60006020820190506131fb6000830184612fbb565b92915050565b60006020820190506132166000830184612fca565b92915050565b60006020820190506132316000830184612fe8565b92915050565b600060408201905061324c6000830185612ff7565b6132596020830184612ff7565b9392505050565b60006020820190506132756000830184613006565b92915050565b60006020820190508181036000830152613296818486613015565b90509392505050565b600060208201905081810360008301526132b98184613042565b905092915050565b600060408201905081810360008301526132db8186613042565b905081810360208301526132f0818486613015565b9050949350505050565b600060408201905081810360008301526133148185613042565b9050613323602083018461317d565b9392505050565b600060608201905081810360008301526133448186613042565b9050613353602083018561317d565b81810360408301526133658184613042565b9050949350505050565b6000602082019050818103600083015261338a8184866130ac565b90509392505050565b600060208201905081810360008301526133ad81846130fe565b905092915050565b600060208201905081810360008301526133ce81613137565b9050919050565b600060208201905081810360008301526133ee8161315a565b9050919050565b600060408201905061340a600083018561318c565b818103602083015261341c8184613042565b90509392505050565b600061342f613440565b905061343b82826136c5565b919050565b6000604051905090565b600067ffffffffffffffff821115613465576134646137c8565b5b61346e826137f7565b9050602081019050919050565b600081519050919050565b600081519050919050565b600082825260208201905092915050565b600081905092915050565b600082825260208201905092915050565b600081905092915050565b60006134d4826135e7565b91506134df836135e7565b9250827fffffffffffffffffffffffffffffffffffffffffffffffffffffffffffffffff038211156135145761351361376a565b5b828201905092915050565b600061352a826135e7565b9150613535836135e7565b9250828210156135485761354761376a565b5b828203905092915050565b600061355e826135c7565b9050919050565b6000613570826135c7565b9050919050565b60008115159050919050565b6000819050919050565b60007fffffffff0000000000000000000000000000000000000000000000000000000082169050919050565b600061ffff82169050919050565b600073ffffffffffffffffffffffffffffffffffffffff82169050919050565b6000819050919050565b60006135fc82613603565b9050919050565b600061360e82613615565b9050919050565b6000613620826135c7565b9050919050565b82818337600083830152505050565b60005b83811015613654578082015181840152602081019050613639565b83811115613663576000848401525b50505050565b6000613674826135b9565b915060008214156136885761368761376a565b5b600182039050919050565b600060028204905060018216806136ab57607f821691505b602082108114156136bf576136be613799565b5b50919050565b6136ce826137f7565b810181811067ffffffffffffffff821117156136ed576136ec6137c8565b5b80604052505050565b6000613701826135b9565b915061ffff8214156137165761371561376a565b5b600182019050919050565b600061372c826135e7565b91507fffffffffffffffffffffffffffffffffffffffffffffffffffffffffffffffff82141561375f5761375e61376a565b5b600182019050919050565b7f4e487b7100000000000000000000000000000000000000000000000000000000600052601160045260246000fd5b7f4e487b7100000000000000000000000000000000000000000000000000000000600052602260045260246000fd5b7f4e487b7100000000000000000000000000000000000000000000000000000000600052604160045260246000fd5b6000601f19601f8301169050919050565b7f4f776e61626c653a206e6577206f776e657220697320746865207a65726f206160008201527f6464726573730000000000000000000000000000000000000000000000000000602082015250565b7f4f776e61626c653a2063616c6c6572206973206e6f7420746865206f776e6572600082015250565b61388981613553565b811461389457600080fd5b50565b6138a081613583565b81146138ab57600080fd5b50565b6138b78161358d565b81146138c257600080fd5b50565b6138ce816135b9565b81146138d957600080fd5b50565b6138e5816135e7565b81146138f057600080fd5b5056fea264697066735822122060df510cd6c50979b4fb7ddce83fd6d42134d4851564d384eae764c51bacd05564736f6c63430008040033",
  "linkReferences": {},
  "deployedLinkReferences": {}
}