{
  "_format": "hh-sol-artifact-1",
  "contractName": "ETHRegistrarController",
  "sourceName": "contracts/ethregistrar/ETHRegistrarController.sol",
  "abi": [
    {
      "inputs": [
        {
          "internalType": "contract BaseRegistrarImplementation",
          "name": "_base",
          "type": "address"
        },
        {
          "internalType": "contract PriceOracle",
          "name": "_prices",
          "type": "address"
        },
        {
          "internalType": "uint256",
          "name": "_minCommitmentAge",
          "type": "uint256"
        },
        {
          "internalType": "uint256",
          "name": "_maxCommitmentAge",
          "type": "uint256"
        },
        {
          "internalType": "uint256",
          "name": "_minDomainLength",
          "type": "uint256"
        }
      ],
      "stateMutability": "nonpayable",
      "type": "constructor"
    },
    {
      "anonymous": false,
      "inputs": [
        {
          "indexed": false,
          "internalType": "string",
          "name": "name",
          "type": "string"
        },
        {
          "indexed": true,
          "internalType": "bytes32",
          "name": "label",
          "type": "bytes32"
        },
        {
          "indexed": true,
          "internalType": "address",
          "name": "owner",
          "type": "address"
        },
        {
          "indexed": false,
          "internalType": "uint256",
          "name": "cost",
          "type": "uint256"
        }
      ],
      "name": "NameRegistered",
      "type": "event"
    },
    {
      "anonymous": false,
      "inputs": [
        {
          "indexed": true,
          "internalType": "address",
          "name": "oracle",
          "type": "address"
        }
      ],
      "name": "NewPriceOracle",
      "type": "event"
    },
    {
      "anonymous": false,
      "inputs": [
        {
          "indexed": true,
          "internalType": "address",
          "name": "previousOwner",
          "type": "address"
        },
        {
          "indexed": true,
          "internalType": "address",
          "name": "newOwner",
          "type": "address"
        }
      ],
      "name": "OwnershipTransferred",
      "type": "event"
    },
    {
      "inputs": [
        {
          "internalType": "string",
          "name": "name",
          "type": "string"
        }
      ],
      "name": "available",
      "outputs": [
        {
          "internalType": "bool",
          "name": "",
          "type": "bool"
        }
      ],
      "stateMutability": "view",
      "type": "function"
    },
    {
      "inputs": [
        {
          "internalType": "bytes32",
          "name": "commitment",
          "type": "bytes32"
        }
      ],
      "name": "commit",
      "outputs": [],
      "stateMutability": "nonpayable",
      "type": "function"
    },
    {
      "inputs": [
        {
          "internalType": "bytes32",
          "name": "",
          "type": "bytes32"
        }
      ],
      "name": "commitments",
      "outputs": [
        {
          "internalType": "uint256",
          "name": "",
          "type": "uint256"
        }
      ],
      "stateMutability": "view",
      "type": "function"
    },
    {
      "inputs": [
        {
          "internalType": "string",
          "name": "name",
          "type": "string"
        },
        {
          "internalType": "address",
          "name": "owner",
          "type": "address"
        },
        {
          "internalType": "bytes32",
          "name": "secret",
          "type": "bytes32"
        }
      ],
      "name": "makeCommitment",
      "outputs": [
        {
          "internalType": "bytes32",
          "name": "",
          "type": "bytes32"
        }
      ],
      "stateMutability": "pure",
      "type": "function"
    },
    {
      "inputs": [
        {
          "internalType": "string",
          "name": "name",
          "type": "string"
        },
        {
          "internalType": "address",
          "name": "owner",
          "type": "address"
        },
        {
          "internalType": "bytes32",
          "name": "secret",
          "type": "bytes32"
        },
        {
          "internalType": "address",
          "name": "resolver",
          "type": "address"
        },
        {
          "internalType": "address",
          "name": "addr",
          "type": "address"
        }
      ],
      "name": "makeCommitmentWithConfig",
      "outputs": [
        {
          "internalType": "bytes32",
          "name": "",
          "type": "bytes32"
        }
      ],
      "stateMutability": "pure",
      "type": "function"
    },
    {
      "inputs": [],
      "name": "maxCommitmentAge",
      "outputs": [
        {
          "internalType": "uint256",
          "name": "",
          "type": "uint256"
        }
      ],
      "stateMutability": "view",
      "type": "function"
    },
    {
      "inputs": [],
      "name": "minCommitmentAge",
      "outputs": [
        {
          "internalType": "uint256",
          "name": "",
          "type": "uint256"
        }
      ],
      "stateMutability": "view",
      "type": "function"
    },
    {
      "inputs": [],
      "name": "minDomainLength",
      "outputs": [
        {
          "internalType": "uint256",
          "name": "",
          "type": "uint256"
        }
      ],
      "stateMutability": "view",
      "type": "function"
    },
    {
      "inputs": [],
      "name": "owner",
      "outputs": [
        {
          "internalType": "address",
          "name": "",
          "type": "address"
        }
      ],
      "stateMutability": "view",
      "type": "function"
    },
    {
      "inputs": [
        {
          "internalType": "string",
          "name": "name",
          "type": "string"
        }
      ],
      "name": "price",
      "outputs": [
        {
          "internalType": "uint256",
          "name": "",
          "type": "uint256"
        }
      ],
      "stateMutability": "view",
      "type": "function"
    },
    {
      "inputs": [
        {
          "internalType": "string",
          "name": "name",
          "type": "string"
        },
        {
          "internalType": "address",
          "name": "owner",
          "type": "address"
        },
        {
          "internalType": "bytes32",
          "name": "secret",
          "type": "bytes32"
        }
      ],
      "name": "register",
      "outputs": [],
      "stateMutability": "payable",
      "type": "function"
    },
    {
      "inputs": [
        {
          "internalType": "string",
          "name": "name",
          "type": "string"
        },
        {
          "internalType": "address",
          "name": "owner",
          "type": "address"
        },
        {
          "internalType": "bytes32",
          "name": "secret",
          "type": "bytes32"
        },
        {
          "internalType": "address",
          "name": "resolver",
          "type": "address"
        },
        {
          "internalType": "address",
          "name": "addr",
          "type": "address"
        }
      ],
      "name": "registerWithConfig",
      "outputs": [],
      "stateMutability": "payable",
      "type": "function"
    },
    {
      "inputs": [],
      "name": "renounceOwnership",
      "outputs": [],
      "stateMutability": "nonpayable",
      "type": "function"
    },
    {
      "inputs": [
        {
          "internalType": "uint256",
          "name": "_minCommitmentAge",
          "type": "uint256"
        },
        {
          "internalType": "uint256",
          "name": "_maxCommitmentAge",
          "type": "uint256"
        }
      ],
      "name": "setCommitmentAges",
      "outputs": [],
      "stateMutability": "nonpayable",
      "type": "function"
    },
    {
      "inputs": [
        {
          "internalType": "uint256",
          "name": "_minDomainLength",
          "type": "uint256"
        }
      ],
      "name": "setMinDomainLength",
      "outputs": [],
      "stateMutability": "nonpayable",
      "type": "function"
    },
    {
      "inputs": [
        {
          "internalType": "contract PriceOracle",
          "name": "_prices",
          "type": "address"
        }
      ],
      "name": "setPriceOracle",
      "outputs": [],
      "stateMutability": "nonpayable",
      "type": "function"
    },
    {
      "inputs": [
        {
          "internalType": "bytes4",
          "name": "interfaceID",
          "type": "bytes4"
        }
      ],
      "name": "supportsInterface",
      "outputs": [
        {
          "internalType": "bool",
          "name": "",
          "type": "bool"
        }
      ],
      "stateMutability": "pure",
      "type": "function"
    },
    {
      "inputs": [
        {
          "internalType": "address",
          "name": "newOwner",
          "type": "address"
        }
      ],
      "name": "transferOwnership",
      "outputs": [],
      "stateMutability": "nonpayable",
      "type": "function"
    },
    {
      "inputs": [
        {
          "internalType": "string",
          "name": "name",
          "type": "string"
        }
      ],
      "name": "valid",
      "outputs": [
        {
          "internalType": "bool",
          "name": "",
          "type": "bool"
        }
      ],
      "stateMutability": "view",
      "type": "function"
    },
    {
      "inputs": [],
      "name": "withdraw",
      "outputs": [],
      "stateMutability": "nonpayable",
      "type": "function"
    }
  ],
  "bytecode": "0x60806040523480156200001157600080fd5b50604051620025af380380620025af833981810160405281019062000037919062000217565b620000576200004b6200010660201b60201c565b6200010e60201b60201c565b8282116200006457600080fd5b84600160006101000a81548173ffffffffffffffffffffffffffffffffffffffff021916908373ffffffffffffffffffffffffffffffffffffffff16021790555083600260006101000a81548173ffffffffffffffffffffffffffffffffffffffff021916908373ffffffffffffffffffffffffffffffffffffffff16021790555082600381905550816004819055508060058190555050505050506200034d565b600033905090565b60008060009054906101000a900473ffffffffffffffffffffffffffffffffffffffff169050816000806101000a81548173ffffffffffffffffffffffffffffffffffffffff021916908373ffffffffffffffffffffffffffffffffffffffff1602179055508173ffffffffffffffffffffffffffffffffffffffff168173ffffffffffffffffffffffffffffffffffffffff167f8be0079c531659141344cd1fd0a4f28419497f9722a3daafe3b4186f6b6457e060405160405180910390a35050565b600081519050620001e381620002ff565b92915050565b600081519050620001fa8162000319565b92915050565b600081519050620002118162000333565b92915050565b600080600080600060a086880312156200023057600080fd5b60006200024088828901620001d2565b95505060206200025388828901620001e9565b9450506040620002668882890162000200565b9350506060620002798882890162000200565b92505060806200028c8882890162000200565b9150509295509295909350565b6000620002a682620002d5565b9050919050565b6000620002ba8262000299565b9050919050565b6000620002ce8262000299565b9050919050565b600073ffffffffffffffffffffffffffffffffffffffff82169050919050565b6000819050919050565b6200030a81620002ad565b81146200031657600080fd5b50565b6200032481620002c1565b81146200033057600080fd5b50565b6200033e81620002f5565b81146200034a57600080fd5b50565b612252806200035d6000396000f3fe60806040526004361061011f5760003560e01c80638da5cb5b116100a0578063f14fcbc811610064578063f14fcbc8146103c6578063f2fde38b146103ef578063f34b95b314610418578063f49826be14610434578063fe2c6198146104715761011f565b80638da5cb5b146102cd5780639791c097146102f8578063aeb8ce9b14610335578063ce1e09c014610372578063d71d80a61461039d5761011f565b8063715018a6116100e7578063715018a6146101fa5780637e3244791461021157806381efe0e51461023a578063839df945146102655780638d839ffe146102a25761011f565b806301ffc9a7146101245780633ccfd60b146101615780633d86c52f14610178578063530e784f146101b55780636acb4f91146101de575b600080fd5b34801561013057600080fd5b5061014b6004803603810190610146919061181b565b6104ae565b6040516101589190611cca565b60405180910390f35b34801561016d57600080fd5b50610176610692565b005b34801561018457600080fd5b5061019f600480360381019061019a91906119aa565b6106e3565b6040516101ac9190611ce5565b60405180910390f35b3480156101c157600080fd5b506101dc60048036038101906101d7919061186d565b610806565b005b6101f860048036038101906101f391906119aa565b6108b7565b005b34801561020657600080fd5b5061020f610ecd565b005b34801561021d57600080fd5b5061023860048036038101906102339190611a8b565b610ee1565b005b34801561024657600080fd5b5061024f610efb565b60405161025c9190611dbb565b60405180910390f35b34801561027157600080fd5b5061028c600480360381019061028791906117c9565b610f01565b6040516102999190611dbb565b60405180910390f35b3480156102ae57600080fd5b506102b7610f19565b6040516102c49190611dbb565b60405180910390f35b3480156102d957600080fd5b506102e2610f1f565b6040516102ef9190611c78565b60405180910390f35b34801561030457600080fd5b5061031f600480360381019061031a9190611902565b610f48565b60405161032c9190611cca565b60405180910390f35b34801561034157600080fd5b5061035c60048036038101906103579190611902565b610f5f565b6040516103699190611cca565b60405180910390f35b34801561037e57600080fd5b50610387611033565b6040516103949190611dbb565b60405180910390f35b3480156103a957600080fd5b506103c460048036038101906103bf9190611a39565b611039565b005b3480156103d257600080fd5b506103ed60048036038101906103e891906117c9565b61104b565b005b3480156103fb57600080fd5b5061041660048036038101906104119190611777565b611092565b005b610432600480360381019061042d9190611896565b611116565b005b34801561044057600080fd5b5061045b60048036038101906104569190611943565b61116e565b6040516104689190611ce5565b60405180910390f35b34801561047d57600080fd5b5061049860048036038101906104939190611902565b611187565b6040516104a59190611dbb565b60405180910390f35b60007f01ffc9a7a5cef8baa21ed3c5c0d7e23accb804b619e9333b597f47a0d84076e27bffffffffffffffffffffffffffffffffffffffffffffffffffffffff1916827bffffffffffffffffffffffffffffffffffffffffffffffffffffffff1916148061060157507ff34b95b3ccb4c902ea244fa34aa19f86f7ea6c04d87ada0fa3d1437f04bbd1447ff14fcbc8f6996b31406143e2613e60bde3c1118cfe166c0aa27ba40ef1033df57ff49826be766d3cc8dc7e4aab3f18eb3d339eb3bce85a7b9144119bbe997b2cc37faeb8ce9b70d5d3f3fba501c34cd61a54703dbe3cfb25bd75d3574635f9ea76837ffe2c619874d0eefe2754e000f94bf8e8d25af34324c98305907f8d29c90ee618181818187bffffffffffffffffffffffffffffffffffffffffffffffffffffffff1916827bffffffffffffffffffffffffffffffffffffffffffffffffffffffff1916145b8061068b57507f3d86c52f15403f1a062ec90b8fe0792e3be0a9cb236cd8ee4ec4b45821bd2faa7f6acb4f918674e987c0300e8b629769f4d160a3155e20d335a569b3815537c15d187bffffffffffffffffffffffffffffffffffffffffffffffffffffffff1916827bffffffffffffffffffffffffffffffffffffffffffffffffffffffff1916145b9050919050565b61069a61123b565b3373ffffffffffffffffffffffffffffffffffffffff166108fc479081150290604051600060405180830381858888f193505050501580156106e0573d6000803e3d6000fd5b50565b60008086805190602001209050600073ffffffffffffffffffffffffffffffffffffffff168473ffffffffffffffffffffffffffffffffffffffff161480156107585750600073ffffffffffffffffffffffffffffffffffffffff168373ffffffffffffffffffffffffffffffffffffffff16145b156107905780868660405160200161077293929190611c0f565b604051602081830303815290604052805190602001209150506107fd565b600073ffffffffffffffffffffffffffffffffffffffff168473ffffffffffffffffffffffffffffffffffffffff1614156107ca57600080fd5b80868585886040516020016107e3959493929190611bb0565b604051602081830303815290604052805190602001209150505b95945050505050565b61080e61123b565b80600260006101000a81548173ffffffffffffffffffffffffffffffffffffffff021916908373ffffffffffffffffffffffffffffffffffffffff160217905550600260009054906101000a900473ffffffffffffffffffffffffffffffffffffffff1673ffffffffffffffffffffffffffffffffffffffff167ff261845a790fe29bbd6631e2ca4a5bdc83e6eed7c3271d9590d97287e00e912360405160405180910390a250565b60006108c686868686866106e3565b905060006108d487836112b9565b905060008780519060200120905060008160001c9050600073ffffffffffffffffffffffffffffffffffffffff168673ffffffffffffffffffffffffffffffffffffffff1614610d4d57600160009054906101000a900473ffffffffffffffffffffffffffffffffffffffff1673ffffffffffffffffffffffffffffffffffffffff1663dbbdf08382306040518363ffffffff1660e01b815260040161097b929190611dd6565b600060405180830381600087803b15801561099557600080fd5b505af11580156109a9573d6000803e3d6000fd5b505050506000600160009054906101000a900473ffffffffffffffffffffffffffffffffffffffff1673ffffffffffffffffffffffffffffffffffffffff1663ddf7fcb06040518163ffffffff1660e01b815260040160206040518083038186803b158015610a1757600080fd5b505afa158015610a2b573d6000803e3d6000fd5b505050506040513d601f19601f82011682018060405250810190610a4f91906117f2565b83604051602001610a61929190611c4c565b604051602081830303815290604052805190602001209050600160009054906101000a900473ffffffffffffffffffffffffffffffffffffffff1673ffffffffffffffffffffffffffffffffffffffff16633f15457f6040518163ffffffff1660e01b815260040160206040518083038186803b158015610ae157600080fd5b505afa158015610af5573d6000803e3d6000fd5b505050506040513d601f19601f82011682018060405250810190610b199190611844565b73ffffffffffffffffffffffffffffffffffffffff16631896f70a82896040518363ffffffff1660e01b8152600401610b53929190611d00565b600060405180830381600087803b158015610b6d57600080fd5b505af1158015610b81573d6000803e3d6000fd5b50505050600073ffffffffffffffffffffffffffffffffffffffff168673ffffffffffffffffffffffffffffffffffffffff1614610c27578673ffffffffffffffffffffffffffffffffffffffff1663d5fa2b0082886040518363ffffffff1660e01b8152600401610bf4929190611d00565b600060405180830381600087803b158015610c0e57600080fd5b505af1158015610c22573d6000803e3d6000fd5b505050505b600160009054906101000a900473ffffffffffffffffffffffffffffffffffffffff1673ffffffffffffffffffffffffffffffffffffffff166328ed4f6c838b6040518363ffffffff1660e01b8152600401610c84929190611dd6565b600060405180830381600087803b158015610c9e57600080fd5b505af1158015610cb2573d6000803e3d6000fd5b50505050600160009054906101000a900473ffffffffffffffffffffffffffffffffffffffff1673ffffffffffffffffffffffffffffffffffffffff166323b872dd308b856040518463ffffffff1660e01b8152600401610d1593929190611c93565b600060405180830381600087803b158015610d2f57600080fd5b505af1158015610d43573d6000803e3d6000fd5b5050505050610e16565b600073ffffffffffffffffffffffffffffffffffffffff168573ffffffffffffffffffffffffffffffffffffffff1614610d8657600080fd5b600160009054906101000a900473ffffffffffffffffffffffffffffffffffffffff1673ffffffffffffffffffffffffffffffffffffffff1663dbbdf083828a6040518363ffffffff1660e01b8152600401610de3929190611dd6565b600060405180830381600087803b158015610dfd57600080fd5b505af1158015610e11573d6000803e3d6000fd5b505050505b8773ffffffffffffffffffffffffffffffffffffffff16827f0667086d08417333ce63f40d5bc2ef6fd330e25aaaf317b7c489541f8fe600fa8b86604051610e5f929190611d4b565b60405180910390a382341115610ec2573373ffffffffffffffffffffffffffffffffffffffff166108fc8434610e959190611ec7565b9081150290604051600060405180830381858888f19350505050158015610ec0573d6000803e3d6000fd5b505b505050505050505050565b610ed561123b565b610edf6000611361565b565b610ee961123b565b81600381905550806004819055505050565b60055481565b60066020528060005260406000206000915090505481565b60035481565b60008060009054906101000a900473ffffffffffffffffffffffffffffffffffffffff16905090565b6000600554610f5683611425565b10159050919050565b60008082805190602001209050610f7583610f48565b801561102b5750600160009054906101000a900473ffffffffffffffffffffffffffffffffffffffff1673ffffffffffffffffffffffffffffffffffffffff166396e494e88260001c6040518263ffffffff1660e01b8152600401610fda9190611dbb565b60206040518083038186803b158015610ff257600080fd5b505afa158015611006573d6000803e3d6000fd5b505050506040513d601f19601f8201168201806040525081019061102a91906117a0565b5b915050919050565b60045481565b61104161123b565b8060058190555050565b42600454600660008481526020019081526020016000205461106d9190611e71565b1061107757600080fd5b42600660008381526020019081526020016000208190555050565b61109a61123b565b600073ffffffffffffffffffffffffffffffffffffffff168173ffffffffffffffffffffffffffffffffffffffff16141561110a576040517f08c379a000000000000000000000000000000000000000000000000000000000815260040161110190611d7b565b60405180910390fd5b61111381611361565b50565b61116884848080601f016020809104026020016040519081016040528093929190818152602001838380828437600081840152601f19601f8201169050808301925050505050505083836000806108b7565b50505050565b600061117e8484846000806106e3565b90509392505050565b6000600260009054906101000a900473ffffffffffffffffffffffffffffffffffffffff1673ffffffffffffffffffffffffffffffffffffffff1663fe2c6198836040518263ffffffff1660e01b81526004016111e49190611d29565b60206040518083038186803b1580156111fc57600080fd5b505afa158015611210573d6000803e3d6000fd5b505050506040513d601f19601f820116820180604052508101906112349190611a62565b9050919050565b611243611600565b73ffffffffffffffffffffffffffffffffffffffff16611261610f1f565b73ffffffffffffffffffffffffffffffffffffffff16146112b7576040517f08c379a00000000000000000000000000000000000000000000000000000000081526004016112ae90611d9b565b60405180910390fd5b565b60004260035460066000858152602001908152602001600020546112dd9190611e71565b11156112e857600080fd5b42600454600660008581526020019081526020016000205461130a9190611e71565b1161131457600080fd5b61131d83610f5f565b61132657600080fd5b6006600083815260200190815260200160002060009055600061134884611187565b90508034101561135757600080fd5b8091505092915050565b60008060009054906101000a900473ffffffffffffffffffffffffffffffffffffffff169050816000806101000a81548173ffffffffffffffffffffffffffffffffffffffff021916908373ffffffffffffffffffffffffffffffffffffffff1602179055508173ffffffffffffffffffffffffffffffffffffffff168173ffffffffffffffffffffffffffffffffffffffff167f8be0079c531659141344cd1fd0a4f28419497f9722a3daafe3b4186f6b6457e060405160405180910390a35050565b60008060008084519050600092505b808210156115f5576000858381518110611477577f4e487b7100000000000000000000000000000000000000000000000000000000600052603260045260246000fd5b602001015160f81c60f81b9050608060f81b817effffffffffffffffffffffffffffffffffffffffffffffffffffffffffffff191610156114c6576001836114bf9190611e71565b92506115e1565b60e060f81b817effffffffffffffffffffffffffffffffffffffffffffffffffffffffffffff19161015611508576002836115019190611e71565b92506115e0565b60f060f81b817effffffffffffffffffffffffffffffffffffffffffffffffffffffffffffff1916101561154a576003836115439190611e71565b92506115df565b60f8801b817effffffffffffffffffffffffffffffffffffffffffffffffffffffffffffff1916101561158b576004836115849190611e71565b92506115de565b60fc60f81b817effffffffffffffffffffffffffffffffffffffffffffffffffffffffffffff191610156115cd576005836115c69190611e71565b92506115dd565b6006836115da9190611e71565b92505b5b5b5b5b5082806115ed90612010565b935050611434565b829350505050919050565b600033905090565b600061161b61161684611e24565b611dff565b90508281526020810184848401111561163357600080fd5b61163e848285611f9d565b509392505050565b6000813590506116558161217b565b92915050565b60008151905061166a81612192565b92915050565b60008135905061167f816121a9565b92915050565b600081519050611694816121a9565b92915050565b6000813590506116a9816121c0565b92915050565b6000815190506116be816121d7565b92915050565b6000813590506116d3816121ee565b92915050565b60008083601f8401126116eb57600080fd5b8235905067ffffffffffffffff81111561170457600080fd5b60208301915083600182028301111561171c57600080fd5b9250929050565b600082601f83011261173457600080fd5b8135611744848260208601611608565b91505092915050565b60008135905061175c81612205565b92915050565b60008151905061177181612205565b92915050565b60006020828403121561178957600080fd5b600061179784828501611646565b91505092915050565b6000602082840312156117b257600080fd5b60006117c08482850161165b565b91505092915050565b6000602082840312156117db57600080fd5b60006117e984828501611670565b91505092915050565b60006020828403121561180457600080fd5b600061181284828501611685565b91505092915050565b60006020828403121561182d57600080fd5b600061183b8482850161169a565b91505092915050565b60006020828403121561185657600080fd5b6000611864848285016116af565b91505092915050565b60006020828403121561187f57600080fd5b600061188d848285016116c4565b91505092915050565b600080600080606085870312156118ac57600080fd5b600085013567ffffffffffffffff8111156118c657600080fd5b6118d2878288016116d9565b945094505060206118e587828801611646565b92505060406118f687828801611670565b91505092959194509250565b60006020828403121561191457600080fd5b600082013567ffffffffffffffff81111561192e57600080fd5b61193a84828501611723565b91505092915050565b60008060006060848603121561195857600080fd5b600084013567ffffffffffffffff81111561197257600080fd5b61197e86828701611723565b935050602061198f86828701611646565b92505060406119a086828701611670565b9150509250925092565b600080600080600060a086880312156119c257600080fd5b600086013567ffffffffffffffff8111156119dc57600080fd5b6119e888828901611723565b95505060206119f988828901611646565b9450506040611a0a88828901611670565b9350506060611a1b88828901611646565b9250506080611a2c88828901611646565b9150509295509295909350565b600060208284031215611a4b57600080fd5b6000611a598482850161174d565b91505092915050565b600060208284031215611a7457600080fd5b6000611a8284828501611762565b91505092915050565b60008060408385031215611a9e57600080fd5b6000611aac8582860161174d565b9250506020611abd8582860161174d565b9150509250929050565b611ad081611efb565b82525050565b611ae7611ae282611efb565b612059565b82525050565b611af681611f0d565b82525050565b611b0581611f19565b82525050565b611b1c611b1782611f19565b61206b565b82525050565b6000611b2d82611e55565b611b378185611e60565b9350611b47818560208601611fac565b611b50816120e5565b840191505092915050565b6000611b68602683611e60565b9150611b7382612103565b604082019050919050565b6000611b8b602083611e60565b9150611b9682612152565b602082019050919050565b611baa81611f93565b82525050565b6000611bbc8288611b0b565b602082019150611bcc8287611ad6565b601482019150611bdc8286611ad6565b601482019150611bec8285611ad6565b601482019150611bfc8284611b0b565b6020820191508190509695505050505050565b6000611c1b8286611b0b565b602082019150611c2b8285611ad6565b601482019150611c3b8284611b0b565b602082019150819050949350505050565b6000611c588285611b0b565b602082019150611c688284611b0b565b6020820191508190509392505050565b6000602082019050611c8d6000830184611ac7565b92915050565b6000606082019050611ca86000830186611ac7565b611cb56020830185611ac7565b611cc26040830184611ba1565b949350505050565b6000602082019050611cdf6000830184611aed565b92915050565b6000602082019050611cfa6000830184611afc565b92915050565b6000604082019050611d156000830185611afc565b611d226020830184611ac7565b9392505050565b60006020820190508181036000830152611d438184611b22565b905092915050565b60006040820190508181036000830152611d658185611b22565b9050611d746020830184611ba1565b9392505050565b60006020820190508181036000830152611d9481611b5b565b9050919050565b60006020820190508181036000830152611db481611b7e565b9050919050565b6000602082019050611dd06000830184611ba1565b92915050565b6000604082019050611deb6000830185611ba1565b611df86020830184611ac7565b9392505050565b6000611e09611e1a565b9050611e158282611fdf565b919050565b6000604051905090565b600067ffffffffffffffff821115611e3f57611e3e6120b6565b5b611e48826120e5565b9050602081019050919050565b600081519050919050565b600082825260208201905092915050565b6000611e7c82611f93565b9150611e8783611f93565b9250827fffffffffffffffffffffffffffffffffffffffffffffffffffffffffffffffff03821115611ebc57611ebb612087565b5b828201905092915050565b6000611ed282611f93565b9150611edd83611f93565b925082821015611ef057611eef612087565b5b828203905092915050565b6000611f0682611f73565b9050919050565b60008115159050919050565b6000819050919050565b60007fffffffff0000000000000000000000000000000000000000000000000000000082169050919050565b6000611f5a82611efb565b9050919050565b6000611f6c82611efb565b9050919050565b600073ffffffffffffffffffffffffffffffffffffffff82169050919050565b6000819050919050565b82818337600083830152505050565b60005b83811015611fca578082015181840152602081019050611faf565b83811115611fd9576000848401525b50505050565b611fe8826120e5565b810181811067ffffffffffffffff82111715612007576120066120b6565b5b80604052505050565b600061201b82611f93565b91507fffffffffffffffffffffffffffffffffffffffffffffffffffffffffffffffff82141561204e5761204d612087565b5b600182019050919050565b600061206482612075565b9050919050565b6000819050919050565b6000612080826120f6565b9050919050565b7f4e487b7100000000000000000000000000000000000000000000000000000000600052601160045260246000fd5b7f4e487b7100000000000000000000000000000000000000000000000000000000600052604160045260246000fd5b6000601f19601f8301169050919050565b60008160601b9050919050565b7f4f776e61626c653a206e6577206f776e657220697320746865207a65726f206160008201527f6464726573730000000000000000000000000000000000000000000000000000602082015250565b7f4f776e61626c653a2063616c6c6572206973206e6f7420746865206f776e6572600082015250565b61218481611efb565b811461218f57600080fd5b50565b61219b81611f0d565b81146121a657600080fd5b50565b6121b281611f19565b81146121bd57600080fd5b50565b6121c981611f23565b81146121d457600080fd5b50565b6121e081611f4f565b81146121eb57600080fd5b50565b6121f781611f61565b811461220257600080fd5b50565b61220e81611f93565b811461221957600080fd5b5056fea2646970667358221220dc8afeb22bf5eca6240354a3c2a141f7953af443127ccae15effc381fa9c210364736f6c63430008040033",
  "linkReferences": {},
  "deployedLinkReferences": {}
}