{
  "address": "0xedF4f2D0d37A83734B5999BbaCb7cCbDf9a31896",
  "abi": [
    {
      "inputs": [
        {
          "internalType": "contract ENS",
          "name": "_ens",
          "type": "address"
        },
        {
          "internalType": "bytes32",
          "name": "_baseNode",
          "type": "bytes32"
        }
      ],
      "stateMutability": "nonpayable",
      "type": "constructor"
    },
    {
      "anonymous": false,
      "inputs": [
        {
          "indexed": true,
          "internalType": "address",
          "name": "owner",
          "type": "address"
        },
        {
          "indexed": true,
          "internalType": "address",
          "name": "approved",
          "type": "address"
        },
        {
          "indexed": true,
          "internalType": "uint256",
          "name": "tokenId",
          "type": "uint256"
        }
      ],
      "name": "Approval",
      "type": "event"
    },
    {
      "anonymous": false,
      "inputs": [
        {
          "indexed": true,
          "internalType": "address",
          "name": "owner",
          "type": "address"
        },
        {
          "indexed": true,
          "internalType": "address",
          "name": "operator",
          "type": "address"
        },
        {
          "indexed": false,
          "internalType": "bool",
          "name": "approved",
          "type": "bool"
        }
      ],
      "name": "ApprovalForAll",
      "type": "event"
    },
    {
      "anonymous": false,
      "inputs": [
        {
          "indexed": true,
          "internalType": "address",
          "name": "controller",
          "type": "address"
        }
      ],
      "name": "ControllerAdded",
      "type": "event"
    },
    {
      "anonymous": false,
      "inputs": [
        {
          "indexed": true,
          "internalType": "address",
          "name": "controller",
          "type": "address"
        }
      ],
      "name": "ControllerRemoved",
      "type": "event"
    },
    {
      "anonymous": false,
      "inputs": [
        {
          "indexed": true,
          "internalType": "uint256",
          "name": "id",
          "type": "uint256"
        },
        {
          "indexed": true,
          "internalType": "address",
          "name": "owner",
          "type": "address"
        }
      ],
      "name": "NameRegistered",
      "type": "event"
    },
    {
      "anonymous": false,
      "inputs": [
        {
          "indexed": true,
          "internalType": "address",
          "name": "previousOwner",
          "type": "address"
        },
        {
          "indexed": true,
          "internalType": "address",
          "name": "newOwner",
          "type": "address"
        }
      ],
      "name": "OwnershipTransferred",
      "type": "event"
    },
    {
      "anonymous": false,
      "inputs": [
        {
          "indexed": true,
          "internalType": "address",
          "name": "from",
          "type": "address"
        },
        {
          "indexed": true,
          "internalType": "address",
          "name": "to",
          "type": "address"
        },
        {
          "indexed": true,
          "internalType": "uint256",
          "name": "tokenId",
          "type": "uint256"
        }
      ],
      "name": "Transfer",
      "type": "event"
    },
    {
      "inputs": [
        {
          "internalType": "address",
          "name": "controller",
          "type": "address"
        }
      ],
      "name": "addController",
      "outputs": [],
      "stateMutability": "nonpayable",
      "type": "function"
    },
    {
      "inputs": [
        {
          "internalType": "address",
          "name": "to",
          "type": "address"
        },
        {
          "internalType": "uint256",
          "name": "tokenId",
          "type": "uint256"
        }
      ],
      "name": "approve",
      "outputs": [],
      "stateMutability": "nonpayable",
      "type": "function"
    },
    {
      "inputs": [
        {
          "internalType": "uint256",
          "name": "id",
          "type": "uint256"
        }
      ],
      "name": "available",
      "outputs": [
        {
          "internalType": "bool",
          "name": "",
          "type": "bool"
        }
      ],
      "stateMutability": "view",
      "type": "function"
    },
    {
      "inputs": [
        {
          "internalType": "address",
          "name": "owner",
          "type": "address"
        }
      ],
      "name": "balanceOf",
      "outputs": [
        {
          "internalType": "uint256",
          "name": "",
          "type": "uint256"
        }
      ],
      "stateMutability": "view",
      "type": "function"
    },
    {
      "inputs": [],
      "name": "baseNode",
      "outputs": [
        {
          "internalType": "bytes32",
          "name": "",
          "type": "bytes32"
        }
      ],
      "stateMutability": "view",
      "type": "function"
    },
    {
      "inputs": [],
      "name": "baseURI",
      "outputs": [
        {
          "internalType": "string",
          "name": "",
          "type": "string"
        }
      ],
      "stateMutability": "view",
      "type": "function"
    },
    {
      "inputs": [
        {
          "internalType": "address",
          "name": "",
          "type": "address"
        }
      ],
      "name": "controllers",
      "outputs": [
        {
          "internalType": "bool",
          "name": "",
          "type": "bool"
        }
      ],
      "stateMutability": "view",
      "type": "function"
    },
    {
      "inputs": [],
      "name": "ens",
      "outputs": [
        {
          "internalType": "contract ENS",
          "name": "",
          "type": "address"
        }
      ],
      "stateMutability": "view",
      "type": "function"
    },
    {
      "inputs": [
        {
          "internalType": "uint256",
          "name": "tokenId",
          "type": "uint256"
        }
      ],
      "name": "getApproved",
      "outputs": [
        {
          "internalType": "address",
          "name": "",
          "type": "address"
        }
      ],
      "stateMutability": "view",
      "type": "function"
    },
    {
      "inputs": [
        {
          "internalType": "address",
          "name": "owner",
          "type": "address"
        },
        {
          "internalType": "address",
          "name": "operator",
          "type": "address"
        }
      ],
      "name": "isApprovedForAll",
      "outputs": [
        {
          "internalType": "bool",
          "name": "",
          "type": "bool"
        }
      ],
      "stateMutability": "view",
      "type": "function"
    },
    {
      "inputs": [],
      "name": "name",
      "outputs": [
        {
          "internalType": "string",
          "name": "",
          "type": "string"
        }
      ],
      "stateMutability": "view",
      "type": "function"
    },
    {
      "inputs": [],
      "name": "owner",
      "outputs": [
        {
          "internalType": "address",
          "name": "",
          "type": "address"
        }
      ],
      "stateMutability": "view",
      "type": "function"
    },
    {
      "inputs": [
        {
          "internalType": "uint256",
          "name": "tokenId",
          "type": "uint256"
        }
      ],
      "name": "ownerOf",
      "outputs": [
        {
          "internalType": "address",
          "name": "",
          "type": "address"
        }
      ],
      "stateMutability": "view",
      "type": "function"
    },
    {
      "inputs": [
        {
          "internalType": "uint256",
          "name": "id",
          "type": "uint256"
        },
        {
          "internalType": "address",
          "name": "owner",
          "type": "address"
        }
      ],
      "name": "reclaim",
      "outputs": [],
      "stateMutability": "nonpayable",
      "type": "function"
    },
    {
      "inputs": [
        {
          "internalType": "uint256",
          "name": "id",
          "type": "uint256"
        },
        {
          "internalType": "address",
          "name": "owner",
          "type": "address"
        }
      ],
      "name": "register",
      "outputs": [],
      "stateMutability": "nonpayable",
      "type": "function"
    },
    {
      "inputs": [
        {
          "internalType": "uint256",
          "name": "id",
          "type": "uint256"
        },
        {
          "internalType": "address",
          "name": "owner",
          "type": "address"
        }
      ],
      "name": "registerOnly",
      "outputs": [],
      "stateMutability": "nonpayable",
      "type": "function"
    },
    {
      "inputs": [
        {
          "internalType": "address",
          "name": "controller",
          "type": "address"
        }
      ],
      "name": "removeController",
      "outputs": [],
      "stateMutability": "nonpayable",
      "type": "function"
    },
    {
      "inputs": [],
      "name": "renounceOwnership",
      "outputs": [],
      "stateMutability": "nonpayable",
      "type": "function"
    },
    {
      "inputs": [
        {
          "internalType": "address",
          "name": "from",
          "type": "address"
        },
        {
          "internalType": "address",
          "name": "to",
          "type": "address"
        },
        {
          "internalType": "uint256",
          "name": "tokenId",
          "type": "uint256"
        }
      ],
      "name": "safeTransferFrom",
      "outputs": [],
      "stateMutability": "nonpayable",
      "type": "function"
    },
    {
      "inputs": [
        {
          "internalType": "address",
          "name": "from",
          "type": "address"
        },
        {
          "internalType": "address",
          "name": "to",
          "type": "address"
        },
        {
          "internalType": "uint256",
          "name": "tokenId",
          "type": "uint256"
        },
        {
          "internalType": "bytes",
          "name": "_data",
          "type": "bytes"
        }
      ],
      "name": "safeTransferFrom",
      "outputs": [],
      "stateMutability": "nonpayable",
      "type": "function"
    },
    {
      "inputs": [
        {
          "internalType": "address",
          "name": "operator",
          "type": "address"
        },
        {
          "internalType": "bool",
          "name": "approved",
          "type": "bool"
        }
      ],
      "name": "setApprovalForAll",
      "outputs": [],
      "stateMutability": "nonpayable",
      "type": "function"
    },
    {
      "inputs": [
        {
          "internalType": "string",
          "name": "_newBaseURI",
          "type": "string"
        }
      ],
      "name": "setBaseURI",
      "outputs": [],
      "stateMutability": "nonpayable",
      "type": "function"
    },
    {
      "inputs": [
        {
          "internalType": "address",
          "name": "resolver",
          "type": "address"
        }
      ],
      "name": "setResolver",
      "outputs": [],
      "stateMutability": "nonpayable",
      "type": "function"
    },
    {
      "inputs": [
        {
          "internalType": "bytes4",
          "name": "interfaceID",
          "type": "bytes4"
        }
      ],
      "name": "supportsInterface",
      "outputs": [
        {
          "internalType": "bool",
          "name": "",
          "type": "bool"
        }
      ],
      "stateMutability": "view",
      "type": "function"
    },
    {
      "inputs": [],
      "name": "symbol",
      "outputs": [
        {
          "internalType": "string",
          "name": "",
          "type": "string"
        }
      ],
      "stateMutability": "view",
      "type": "function"
    },
    {
      "inputs": [
        {
          "internalType": "uint256",
          "name": "tokenId",
          "type": "uint256"
        }
      ],
      "name": "tokenURI",
      "outputs": [
        {
          "internalType": "string",
          "name": "",
          "type": "string"
        }
      ],
      "stateMutability": "view",
      "type": "function"
    },
    {
      "inputs": [
        {
          "internalType": "address",
          "name": "from",
          "type": "address"
        },
        {
          "internalType": "address",
          "name": "to",
          "type": "address"
        },
        {
          "internalType": "uint256",
          "name": "tokenId",
          "type": "uint256"
        }
      ],
      "name": "transferFrom",
      "outputs": [],
      "stateMutability": "nonpayable",
      "type": "function"
    },
    {
      "inputs": [
        {
          "internalType": "address",
          "name": "newOwner",
          "type": "address"
        }
      ],
      "name": "transferOwnership",
      "outputs": [],
      "stateMutability": "nonpayable",
      "type": "function"
    }
  ],
  "transactionHash": "0x1d5f32b2195f6405fc611212ec69134b31c826033ee64739c7d533b93b3e1166",
  "args": [
    "0xf3F75BdBEA18A237eFc7d9C4cc71bF4E084b17fF",
    "0x456b2fc8f8d0e69c7692da4ac45c1337cd08999944aa5aa106b9863c31799ef3"
  ],
  "solcInputHash": "defae579ed8754f5e541852a80384572",
  "bytecode": "0x60806040523480156200001157600080fd5b5060405162003e5538038062003e55833981810160405281019062000037919062000271565b60405180602001604052806000815250604051806020016040528060008152506000620000696200018b60201b60201c565b9050806000806101000a81548173ffffffffffffffffffffffffffffffffffffffff021916908373ffffffffffffffffffffffffffffffffffffffff1602179055508073ffffffffffffffffffffffffffffffffffffffff16600073ffffffffffffffffffffffffffffffffffffffff167f8be0079c531659141344cd1fd0a4f28419497f9722a3daafe3b4186f6b6457e060405160405180910390a35081600190805190602001906200011f92919062000193565b5080600290805190602001906200013892919062000193565b50505081600760006101000a81548173ffffffffffffffffffffffffffffffffffffffff021916908373ffffffffffffffffffffffffffffffffffffffff1602179055508060088190555050506200039d565b600033905090565b828054620001a19062000304565b90600052602060002090601f016020900481019282620001c5576000855562000211565b82601f10620001e057805160ff191683800117855562000211565b8280016001018555821562000211579182015b8281111562000210578251825591602001919060010190620001f3565b5b50905062000220919062000224565b5090565b5b808211156200023f57600081600090555060010162000225565b5090565b600081519050620002548162000369565b92915050565b6000815190506200026b8162000383565b92915050565b600080604083850312156200028557600080fd5b600062000295858286016200025a565b9250506020620002a88582860162000243565b9150509250929050565b6000620002bf82620002e4565b9050919050565b6000819050919050565b6000620002dd82620002b2565b9050919050565b600073ffffffffffffffffffffffffffffffffffffffff82169050919050565b600060028204905060018216806200031d57607f821691505b602082108114156200033457620003336200033a565b5b50919050565b7f4e487b7100000000000000000000000000000000000000000000000000000000600052602260045260246000fd5b6200037481620002c6565b81146200038057600080fd5b50565b6200038e81620002d0565b81146200039a57600080fd5b50565b613aa880620003ad6000396000f3fe608060405234801561001057600080fd5b50600436106101c45760003560e01c8063715018a6116100f9578063c87b56dd11610097578063ddf7fcb011610071578063ddf7fcb0146104ed578063e985e9c51461050b578063f2fde38b1461053b578063f6a74ed714610557576101c4565b8063c87b56dd14610471578063da8c229e146104a1578063dbbdf083146104d1576101c4565b806396e494e8116100d357806396e494e8146103ed578063a22cb4651461041d578063a7fc7a0714610439578063b88d4fde14610455576101c4565b8063715018a6146103a75780638da5cb5b146103b157806395d89b41146103cf576101c4565b806342842e0e1161016657806355f804b31161014057806355f804b31461030d5780636352211e146103295780636c0360eb1461035957806370a0823114610377576101c4565b806342842e0e146102b95780634e543b26146102d557806352dc6716146102f1576101c4565b8063095ea7b3116101a2578063095ea7b31461024757806323b872dd1461026357806328ed4f6c1461027f5780633f15457f1461029b576101c4565b806301ffc9a7146101c957806306fdde03146101f9578063081812fc14610217575b600080fd5b6101e360048036038101906101de9190612a05565b610573565b6040516101f09190612ea6565b60405180910390f35b6102016107bd565b60405161020e9190612f57565b60405180910390f35b610231600480360381019061022c9190612a98565b61084f565b60405161023e9190612e3f565b60405180910390f35b610261600480360381019061025c91906129a0565b6108d4565b005b61027d6004803603810190610278919061289a565b6109ec565b005b61029960048036038101906102949190612ac1565b610a4c565b005b6102a3610bfe565b6040516102b09190612f3c565b60405180910390f35b6102d360048036038101906102ce919061289a565b610c24565b005b6102ef60048036038101906102ea919061280c565b610c44565b005b61030b60048036038101906103069190612ac1565b610d54565b005b61032760048036038101906103229190612a57565b610d64565b005b610343600480360381019061033e9190612a98565b610dfa565b6040516103509190612e3f565b60405180910390f35b610361610eac565b60405161036e9190612f57565b60405180910390f35b610391600480360381019061038c919061280c565b610f3a565b60405161039e9190613179565b60405180910390f35b6103af610ff2565b005b6103b961112c565b6040516103c69190612e3f565b60405180910390f35b6103d7611155565b6040516103e49190612f57565b60405180910390f35b61040760048036038101906104029190612a98565b6111e7565b6040516104149190612ea6565b60405180910390f35b61043760048036038101906104329190612964565b6111fa565b005b610453600480360381019061044e919061280c565b61137b565b005b61046f600480360381019061046a91906128e9565b611495565b005b61048b60048036038101906104869190612a98565b6114f7565b6040516104989190612f57565b60405180910390f35b6104bb60048036038101906104b6919061280c565b61159e565b6040516104c89190612ea6565b60405180910390f35b6104eb60048036038101906104e69190612ac1565b6115be565b005b6104f56115ce565b6040516105029190612ec1565b60405180910390f35b6105256004803603810190610520919061285e565b6115d4565b6040516105329190612ea6565b60405180910390f35b6105556004803603810190610550919061280c565b611668565b005b610571600480360381019061056c919061280c565b611811565b005b60007f01ffc9a7a5cef8baa21ed3c5c0d7e23accb804b619e9333b597f47a0d84076e27bffffffffffffffffffffffffffffffffffffffffffffffffffffffff1916827bffffffffffffffffffffffffffffffffffffffffffffffffffffffff1916148061074e57507fb88d4fde60196325a28bb7f99a2582e0b46de55b18761e960c14ad7a320994657f42842e0eb38857a7775b4e7364b2775df7325074d088e7fb39590cd6281184ed7f23b872dd7302113369cda2901243429419bec145408fa8b352b3dd92b66c680b7fe985e9c5c6636c6879256001057b28ccac7718ef0ac56553ff9b926452cab8a37fa22cb4651ab9570f89bb516380c40ce76762284fb1f21337ceaf6adab99e7d4a7f081812fc55e34fdc7cf5d8b5cf4e3621fa6423fde952ec6ab24afdc0d85c0b2e7f095ea7b334ae44009aa867bfb386f5c3b4b443ac6f0ee573fa91c4608fbadfba7f6352211e6566aa027e75ac9dbf2423197fbd9b82b9d981a3ab367d355866aa1c7f70a08231b98ef4ca268c9cc3f6b4590e4bfec28280db06bb5d45e689f2a360be18181818181818187bffffffffffffffffffffffffffffffffffffffffffffffffffffffff1916827bffffffffffffffffffffffffffffffffffffffffffffffffffffffff1916145b806107b657507f28ed4f6c74b219a5819055dfbcd2f1837c046c364cf01fabb6799e4f440d6f137bffffffffffffffffffffffffffffffffffffffffffffffffffffffff1916827bffffffffffffffffffffffffffffffffffffffffffffffffffffffff1916145b9050919050565b6060600180546107cc906133fd565b80601f01602080910402602001604051908101604052809291908181526020018280546107f8906133fd565b80156108455780601f1061081a57610100808354040283529160200191610845565b820191906000526020600020905b81548152906001019060200180831161082857829003601f168201915b5050505050905090565b600061085a8261192b565b610899576040517f08c379a0000000000000000000000000000000000000000000000000000000008152600401610890906130b9565b60405180910390fd5b6005600083815260200190815260200160002060009054906101000a900473ffffffffffffffffffffffffffffffffffffffff169050919050565b60006108df82610dfa565b90508073ffffffffffffffffffffffffffffffffffffffff168373ffffffffffffffffffffffffffffffffffffffff161415610950576040517f08c379a000000000000000000000000000000000000000000000000000000000815260040161094790613139565b60405180910390fd5b8073ffffffffffffffffffffffffffffffffffffffff1661096f611997565b73ffffffffffffffffffffffffffffffffffffffff16148061099e575061099d81610998611997565b6115d4565b5b6109dd576040517f08c379a00000000000000000000000000000000000000000000000000000000081526004016109d490613039565b60405180910390fd5b6109e7838361199f565b505050565b6109fd6109f7611997565b82611a58565b610a3c576040517f08c379a0000000000000000000000000000000000000000000000000000000008152600401610a3390613159565b60405180910390fd5b610a47838383611b36565b505050565b3073ffffffffffffffffffffffffffffffffffffffff16600760009054906101000a900473ffffffffffffffffffffffffffffffffffffffff1673ffffffffffffffffffffffffffffffffffffffff166302571be36008546040518263ffffffff1660e01b8152600401610ac09190612ec1565b60206040518083038186803b158015610ad857600080fd5b505afa158015610aec573d6000803e3d6000fd5b505050506040513d601f19601f82011682018060405250810190610b109190612835565b73ffffffffffffffffffffffffffffffffffffffff1614610b3057600080fd5b610b3a3383611a58565b610b4357600080fd5b600760009054906101000a900473ffffffffffffffffffffffffffffffffffffffff1673ffffffffffffffffffffffffffffffffffffffff166306ab59236008548460001b846040518463ffffffff1660e01b8152600401610ba793929190612f05565b602060405180830381600087803b158015610bc157600080fd5b505af1158015610bd5573d6000803e3d6000fd5b505050506040513d601f19601f82011682018060405250810190610bf991906129dc565b505050565b600760009054906101000a900473ffffffffffffffffffffffffffffffffffffffff1681565b610c3f83838360405180602001604052806000815250611495565b505050565b610c4c611997565b73ffffffffffffffffffffffffffffffffffffffff16610c6a61112c565b73ffffffffffffffffffffffffffffffffffffffff1614610cc0576040517f08c379a0000000000000000000000000000000000000000000000000000000008152600401610cb7906130d9565b60405180910390fd5b600760009054906101000a900473ffffffffffffffffffffffffffffffffffffffff1673ffffffffffffffffffffffffffffffffffffffff16631896f70a600854836040518363ffffffff1660e01b8152600401610d1f929190612edc565b600060405180830381600087803b158015610d3957600080fd5b505af1158015610d4d573d6000803e3d6000fd5b5050505050565b610d6082826000611d92565b5050565b610d6c611997565b73ffffffffffffffffffffffffffffffffffffffff16610d8a61112c565b73ffffffffffffffffffffffffffffffffffffffff1614610de0576040517f08c379a0000000000000000000000000000000000000000000000000000000008152600401610dd7906130d9565b60405180910390fd5b80600a9080519060200190610df6929190612606565b5050565b6000806003600084815260200190815260200160002060009054906101000a900473ffffffffffffffffffffffffffffffffffffffff169050600073ffffffffffffffffffffffffffffffffffffffff168173ffffffffffffffffffffffffffffffffffffffff161415610ea3576040517f08c379a0000000000000000000000000000000000000000000000000000000008152600401610e9a90613079565b60405180910390fd5b80915050919050565b600a8054610eb9906133fd565b80601f0160208091040260200160405190810160405280929190818152602001828054610ee5906133fd565b8015610f325780601f10610f0757610100808354040283529160200191610f32565b820191906000526020600020905b815481529060010190602001808311610f1557829003601f168201915b505050505081565b60008073ffffffffffffffffffffffffffffffffffffffff168273ffffffffffffffffffffffffffffffffffffffff161415610fab576040517f08c379a0000000000000000000000000000000000000000000000000000000008152600401610fa290613059565b60405180910390fd5b600460008373ffffffffffffffffffffffffffffffffffffffff1673ffffffffffffffffffffffffffffffffffffffff168152602001908152602001600020549050919050565b610ffa611997565b73ffffffffffffffffffffffffffffffffffffffff1661101861112c565b73ffffffffffffffffffffffffffffffffffffffff161461106e576040517f08c379a0000000000000000000000000000000000000000000000000000000008152600401611065906130d9565b60405180910390fd5b600073ffffffffffffffffffffffffffffffffffffffff1660008054906101000a900473ffffffffffffffffffffffffffffffffffffffff1673ffffffffffffffffffffffffffffffffffffffff167f8be0079c531659141344cd1fd0a4f28419497f9722a3daafe3b4186f6b6457e060405160405180910390a360008060006101000a81548173ffffffffffffffffffffffffffffffffffffffff021916908373ffffffffffffffffffffffffffffffffffffffff160217905550565b60008060009054906101000a900473ffffffffffffffffffffffffffffffffffffffff16905090565b606060028054611164906133fd565b80601f0160208091040260200160405190810160405280929190818152602001828054611190906133fd565b80156111dd5780601f106111b2576101008083540402835291602001916111dd565b820191906000526020600020905b8154815290600101906020018083116111c057829003601f168201915b5050505050905090565b60006111f28261192b565b159050919050565b611202611997565b73ffffffffffffffffffffffffffffffffffffffff168273ffffffffffffffffffffffffffffffffffffffff161415611270576040517f08c379a000000000000000000000000000000000000000000000000000000000815260040161126790612ff9565b60405180910390fd5b806006600061127d611997565b73ffffffffffffffffffffffffffffffffffffffff1673ffffffffffffffffffffffffffffffffffffffff16815260200190815260200160002060008473ffffffffffffffffffffffffffffffffffffffff1673ffffffffffffffffffffffffffffffffffffffff16815260200190815260200160002060006101000a81548160ff0219169083151502179055508173ffffffffffffffffffffffffffffffffffffffff1661132a611997565b73ffffffffffffffffffffffffffffffffffffffff167f17307eab39ab6107e8899845ad3d59bd9653f200f220920489ca2b5937696c318360405161136f9190612ea6565b60405180910390a35050565b611383611997565b73ffffffffffffffffffffffffffffffffffffffff166113a161112c565b73ffffffffffffffffffffffffffffffffffffffff16146113f7576040517f08c379a00000000000000000000000000000000000000000000000000000000081526004016113ee906130d9565b60405180910390fd5b6001600960008373ffffffffffffffffffffffffffffffffffffffff1673ffffffffffffffffffffffffffffffffffffffff16815260200190815260200160002060006101000a81548160ff0219169083151502179055508073ffffffffffffffffffffffffffffffffffffffff167f0a8bb31534c0ed46f380cb867bd5c803a189ced9a764e30b3a4991a9901d747460405160405180910390a250565b6114a66114a0611997565b83611a58565b6114e5576040517f08c379a00000000000000000000000000000000000000000000000000000000081526004016114dc90613159565b60405180910390fd5b6114f184848484611fee565b50505050565b60606115028261192b565b611541576040517f08c379a000000000000000000000000000000000000000000000000000000000815260040161153890613119565b60405180910390fd5b600061154b61204a565b9050600081511161156b5760405180602001604052806000815250611596565b80611575846120dc565b604051602001611586929190612e1b565b6040516020818303038152906040525b915050919050565b60096020528060005260406000206000915054906101000a900460ff1681565b6115ca82826001611d92565b5050565b60085481565b6000600660008473ffffffffffffffffffffffffffffffffffffffff1673ffffffffffffffffffffffffffffffffffffffff16815260200190815260200160002060008373ffffffffffffffffffffffffffffffffffffffff1673ffffffffffffffffffffffffffffffffffffffff16815260200190815260200160002060009054906101000a900460ff16905092915050565b611670611997565b73ffffffffffffffffffffffffffffffffffffffff1661168e61112c565b73ffffffffffffffffffffffffffffffffffffffff16146116e4576040517f08c379a00000000000000000000000000000000000000000000000000000000081526004016116db906130d9565b60405180910390fd5b600073ffffffffffffffffffffffffffffffffffffffff168173ffffffffffffffffffffffffffffffffffffffff161415611754576040517f08c379a000000000000000000000000000000000000000000000000000000000815260040161174b90612f99565b60405180910390fd5b8073ffffffffffffffffffffffffffffffffffffffff1660008054906101000a900473ffffffffffffffffffffffffffffffffffffffff1673ffffffffffffffffffffffffffffffffffffffff167f8be0079c531659141344cd1fd0a4f28419497f9722a3daafe3b4186f6b6457e060405160405180910390a3806000806101000a81548173ffffffffffffffffffffffffffffffffffffffff021916908373ffffffffffffffffffffffffffffffffffffffff16021790555050565b611819611997565b73ffffffffffffffffffffffffffffffffffffffff1661183761112c565b73ffffffffffffffffffffffffffffffffffffffff161461188d576040517f08c379a0000000000000000000000000000000000000000000000000000000008152600401611884906130d9565b60405180910390fd5b6000600960008373ffffffffffffffffffffffffffffffffffffffff1673ffffffffffffffffffffffffffffffffffffffff16815260200190815260200160002060006101000a81548160ff0219169083151502179055508073ffffffffffffffffffffffffffffffffffffffff167f33d83959be2573f5453b12eb9d43b3499bc57d96bd2f067ba44803c859e8111360405160405180910390a250565b60008073ffffffffffffffffffffffffffffffffffffffff166003600084815260200190815260200160002060009054906101000a900473ffffffffffffffffffffffffffffffffffffffff1673ffffffffffffffffffffffffffffffffffffffff1614159050919050565b600033905090565b816005600083815260200190815260200160002060006101000a81548173ffffffffffffffffffffffffffffffffffffffff021916908373ffffffffffffffffffffffffffffffffffffffff160217905550808273ffffffffffffffffffffffffffffffffffffffff16611a1283610dfa565b73ffffffffffffffffffffffffffffffffffffffff167f8c5be1e5ebec7d5bd14f71427d1e84f3dd0314c0f7b2291e5b200ac8c7c3b92560405160405180910390a45050565b6000611a638261192b565b611aa2576040517f08c379a0000000000000000000000000000000000000000000000000000000008152600401611a9990613019565b60405180910390fd5b6000611aad83610dfa565b90508073ffffffffffffffffffffffffffffffffffffffff168473ffffffffffffffffffffffffffffffffffffffff161480611b1c57508373ffffffffffffffffffffffffffffffffffffffff16611b048461084f565b73ffffffffffffffffffffffffffffffffffffffff16145b80611b2d5750611b2c81856115d4565b5b91505092915050565b8273ffffffffffffffffffffffffffffffffffffffff16611b5682610dfa565b73ffffffffffffffffffffffffffffffffffffffff1614611bac576040517f08c379a0000000000000000000000000000000000000000000000000000000008152600401611ba3906130f9565b60405180910390fd5b600073ffffffffffffffffffffffffffffffffffffffff168273ffffffffffffffffffffffffffffffffffffffff161415611c1c576040517f08c379a0000000000000000000000000000000000000000000000000000000008152600401611c1390612fd9565b60405180910390fd5b611c27838383612289565b611c3260008261199f565b6001600460008573ffffffffffffffffffffffffffffffffffffffff1673ffffffffffffffffffffffffffffffffffffffff1681526020019081526020016000206000828254611c8291906132e5565b925050819055506001600460008473ffffffffffffffffffffffffffffffffffffffff1673ffffffffffffffffffffffffffffffffffffffff1681526020019081526020016000206000828254611cd9919061325e565b92505081905550816003600083815260200190815260200160002060006101000a81548173ffffffffffffffffffffffffffffffffffffffff021916908373ffffffffffffffffffffffffffffffffffffffff160217905550808273ffffffffffffffffffffffffffffffffffffffff168473ffffffffffffffffffffffffffffffffffffffff167fddf252ad1be2c89b69c2b068fc378daa952ba7f163c4a11628f55a4df523b3ef60405160405180910390a4505050565b3073ffffffffffffffffffffffffffffffffffffffff16600760009054906101000a900473ffffffffffffffffffffffffffffffffffffffff1673ffffffffffffffffffffffffffffffffffffffff166302571be36008546040518263ffffffff1660e01b8152600401611e069190612ec1565b60206040518083038186803b158015611e1e57600080fd5b505afa158015611e32573d6000803e3d6000fd5b505050506040513d601f19601f82011682018060405250810190611e569190612835565b73ffffffffffffffffffffffffffffffffffffffff1614611e7657600080fd5b600960003373ffffffffffffffffffffffffffffffffffffffff1673ffffffffffffffffffffffffffffffffffffffff16815260200190815260200160002060009054906101000a900460ff16611ecc57600080fd5b611ed5836111e7565b611ede57600080fd5b611ee8828461228e565b8015611fa657600760009054906101000a900473ffffffffffffffffffffffffffffffffffffffff1673ffffffffffffffffffffffffffffffffffffffff166306ab59236008548560001b856040518463ffffffff1660e01b8152600401611f5293929190612f05565b602060405180830381600087803b158015611f6c57600080fd5b505af1158015611f80573d6000803e3d6000fd5b505050506040513d601f19601f82011682018060405250810190611fa491906129dc565b505b8173ffffffffffffffffffffffffffffffffffffffff16837e834ad8d7a1d8421d149549c7292d11385f5a042a008771d26ffd2d76db6e7460405160405180910390a3505050565b611ff9848484611b36565b6120058484848461245c565b612044576040517f08c379a000000000000000000000000000000000000000000000000000000000815260040161203b90612f79565b60405180910390fd5b50505050565b6060600a8054612059906133fd565b80601f0160208091040260200160405190810160405280929190818152602001828054612085906133fd565b80156120d25780601f106120a7576101008083540402835291602001916120d2565b820191906000526020600020905b8154815290600101906020018083116120b557829003601f168201915b5050505050905090565b60606000821415612124576040518060400160405280600181526020017f30000000000000000000000000000000000000000000000000000000000000008152509050612284565b600082905060005b6000821461215657808061213f90613460565b915050600a8261214f91906132b4565b915061212c565b60008167ffffffffffffffff811115612198577f4e487b7100000000000000000000000000000000000000000000000000000000600052604160045260246000fd5b6040519080825280601f01601f1916602001820160405280156121ca5781602001600182028036833780820191505090505b5090505b6000851461227d576001826121e391906132e5565b9150600a856121f291906134a9565b60306121fe919061325e565b60f81b81838151811061223a577f4e487b7100000000000000000000000000000000000000000000000000000000600052603260045260246000fd5b60200101907effffffffffffffffffffffffffffffffffffffffffffffffffffffffffffff1916908160001a905350600a8561227691906132b4565b94506121ce565b8093505050505b919050565b505050565b600073ffffffffffffffffffffffffffffffffffffffff168273ffffffffffffffffffffffffffffffffffffffff1614156122fe576040517f08c379a00000000000000000000000000000000000000000000000000000000081526004016122f590613099565b60405180910390fd5b6123078161192b565b15612347576040517f08c379a000000000000000000000000000000000000000000000000000000000815260040161233e90612fb9565b60405180910390fd5b61235360008383612289565b6001600460008473ffffffffffffffffffffffffffffffffffffffff1673ffffffffffffffffffffffffffffffffffffffff16815260200190815260200160002060008282546123a3919061325e565b92505081905550816003600083815260200190815260200160002060006101000a81548173ffffffffffffffffffffffffffffffffffffffff021916908373ffffffffffffffffffffffffffffffffffffffff160217905550808273ffffffffffffffffffffffffffffffffffffffff16600073ffffffffffffffffffffffffffffffffffffffff167fddf252ad1be2c89b69c2b068fc378daa952ba7f163c4a11628f55a4df523b3ef60405160405180910390a45050565b600061247d8473ffffffffffffffffffffffffffffffffffffffff166125f3565b156125e6578373ffffffffffffffffffffffffffffffffffffffff1663150b7a026124a6611997565b8786866040518563ffffffff1660e01b81526004016124c89493929190612e5a565b602060405180830381600087803b1580156124e257600080fd5b505af192505050801561251357506040513d601f19601f820116820180604052508101906125109190612a2e565b60015b612596573d8060008114612543576040519150601f19603f3d011682016040523d82523d6000602084013e612548565b606091505b5060008151141561258e576040517f08c379a000000000000000000000000000000000000000000000000000000000815260040161258590612f79565b60405180910390fd5b805181602001fd5b63150b7a0260e01b7bffffffffffffffffffffffffffffffffffffffffffffffffffffffff1916817bffffffffffffffffffffffffffffffffffffffffffffffffffffffff1916149150506125eb565b600190505b949350505050565b600080823b905060008111915050919050565b828054612612906133fd565b90600052602060002090601f016020900481019282612634576000855561267b565b82601f1061264d57805160ff191683800117855561267b565b8280016001018555821561267b579182015b8281111561267a57825182559160200191906001019061265f565b5b509050612688919061268c565b5090565b5b808211156126a557600081600090555060010161268d565b5090565b60006126bc6126b7846131b9565b613194565b9050828152602081018484840111156126d457600080fd5b6126df8482856133bb565b509392505050565b60006126fa6126f5846131ea565b613194565b90508281526020810184848401111561271257600080fd5b61271d8482856133bb565b509392505050565b600081359050612734816139ff565b92915050565b600081519050612749816139ff565b92915050565b60008135905061275e81613a16565b92915050565b60008151905061277381613a2d565b92915050565b60008135905061278881613a44565b92915050565b60008151905061279d81613a44565b92915050565b600082601f8301126127b457600080fd5b81356127c48482602086016126a9565b91505092915050565b600082601f8301126127de57600080fd5b81356127ee8482602086016126e7565b91505092915050565b60008135905061280681613a5b565b92915050565b60006020828403121561281e57600080fd5b600061282c84828501612725565b91505092915050565b60006020828403121561284757600080fd5b60006128558482850161273a565b91505092915050565b6000806040838503121561287157600080fd5b600061287f85828601612725565b925050602061289085828601612725565b9150509250929050565b6000806000606084860312156128af57600080fd5b60006128bd86828701612725565b93505060206128ce86828701612725565b92505060406128df868287016127f7565b9150509250925092565b600080600080608085870312156128ff57600080fd5b600061290d87828801612725565b945050602061291e87828801612725565b935050604061292f878288016127f7565b925050606085013567ffffffffffffffff81111561294c57600080fd5b612958878288016127a3565b91505092959194509250565b6000806040838503121561297757600080fd5b600061298585828601612725565b92505060206129968582860161274f565b9150509250929050565b600080604083850312156129b357600080fd5b60006129c185828601612725565b92505060206129d2858286016127f7565b9150509250929050565b6000602082840312156129ee57600080fd5b60006129fc84828501612764565b91505092915050565b600060208284031215612a1757600080fd5b6000612a2584828501612779565b91505092915050565b600060208284031215612a4057600080fd5b6000612a4e8482850161278e565b91505092915050565b600060208284031215612a6957600080fd5b600082013567ffffffffffffffff811115612a8357600080fd5b612a8f848285016127cd565b91505092915050565b600060208284031215612aaa57600080fd5b6000612ab8848285016127f7565b91505092915050565b60008060408385031215612ad457600080fd5b6000612ae2858286016127f7565b9250506020612af385828601612725565b9150509250929050565b612b0681613319565b82525050565b612b158161332b565b82525050565b612b2481613337565b82525050565b6000612b358261321b565b612b3f8185613231565b9350612b4f8185602086016133ca565b612b5881613596565b840191505092915050565b612b6c81613397565b82525050565b6000612b7d82613226565b612b878185613242565b9350612b978185602086016133ca565b612ba081613596565b840191505092915050565b6000612bb682613226565b612bc08185613253565b9350612bd08185602086016133ca565b80840191505092915050565b6000612be9603283613242565b9150612bf4826135a7565b604082019050919050565b6000612c0c602683613242565b9150612c17826135f6565b604082019050919050565b6000612c2f601c83613242565b9150612c3a82613645565b602082019050919050565b6000612c52602483613242565b9150612c5d8261366e565b604082019050919050565b6000612c75601983613242565b9150612c80826136bd565b602082019050919050565b6000612c98602c83613242565b9150612ca3826136e6565b604082019050919050565b6000612cbb603883613242565b9150612cc682613735565b604082019050919050565b6000612cde602a83613242565b9150612ce982613784565b604082019050919050565b6000612d01602983613242565b9150612d0c826137d3565b604082019050919050565b6000612d24602083613242565b9150612d2f82613822565b602082019050919050565b6000612d47602c83613242565b9150612d528261384b565b604082019050919050565b6000612d6a602083613242565b9150612d758261389a565b602082019050919050565b6000612d8d602983613242565b9150612d98826138c3565b604082019050919050565b6000612db0602f83613242565b9150612dbb82613912565b604082019050919050565b6000612dd3602183613242565b9150612dde82613961565b604082019050919050565b6000612df6603183613242565b9150612e01826139b0565b604082019050919050565b612e158161338d565b82525050565b6000612e278285612bab565b9150612e338284612bab565b91508190509392505050565b6000602082019050612e546000830184612afd565b92915050565b6000608082019050612e6f6000830187612afd565b612e7c6020830186612afd565b612e896040830185612e0c565b8181036060830152612e9b8184612b2a565b905095945050505050565b6000602082019050612ebb6000830184612b0c565b92915050565b6000602082019050612ed66000830184612b1b565b92915050565b6000604082019050612ef16000830185612b1b565b612efe6020830184612afd565b9392505050565b6000606082019050612f1a6000830186612b1b565b612f276020830185612b1b565b612f346040830184612afd565b949350505050565b6000602082019050612f516000830184612b63565b92915050565b60006020820190508181036000830152612f718184612b72565b905092915050565b60006020820190508181036000830152612f9281612bdc565b9050919050565b60006020820190508181036000830152612fb281612bff565b9050919050565b60006020820190508181036000830152612fd281612c22565b9050919050565b60006020820190508181036000830152612ff281612c45565b9050919050565b6000602082019050818103600083015261301281612c68565b9050919050565b6000602082019050818103600083015261303281612c8b565b9050919050565b6000602082019050818103600083015261305281612cae565b9050919050565b6000602082019050818103600083015261307281612cd1565b9050919050565b6000602082019050818103600083015261309281612cf4565b9050919050565b600060208201905081810360008301526130b281612d17565b9050919050565b600060208201905081810360008301526130d281612d3a565b9050919050565b600060208201905081810360008301526130f281612d5d565b9050919050565b6000602082019050818103600083015261311281612d80565b9050919050565b6000602082019050818103600083015261313281612da3565b9050919050565b6000602082019050818103600083015261315281612dc6565b9050919050565b6000602082019050818103600083015261317281612de9565b9050919050565b600060208201905061318e6000830184612e0c565b92915050565b600061319e6131af565b90506131aa828261342f565b919050565b6000604051905090565b600067ffffffffffffffff8211156131d4576131d3613567565b5b6131dd82613596565b9050602081019050919050565b600067ffffffffffffffff82111561320557613204613567565b5b61320e82613596565b9050602081019050919050565b600081519050919050565b600081519050919050565b600082825260208201905092915050565b600082825260208201905092915050565b600081905092915050565b60006132698261338d565b91506132748361338d565b9250827fffffffffffffffffffffffffffffffffffffffffffffffffffffffffffffffff038211156132a9576132a86134da565b5b828201905092915050565b60006132bf8261338d565b91506132ca8361338d565b9250826132da576132d9613509565b5b828204905092915050565b60006132f08261338d565b91506132fb8361338d565b92508282101561330e5761330d6134da565b5b828203905092915050565b60006133248261336d565b9050919050565b60008115159050919050565b6000819050919050565b60007fffffffff0000000000000000000000000000000000000000000000000000000082169050919050565b600073ffffffffffffffffffffffffffffffffffffffff82169050919050565b6000819050919050565b60006133a2826133a9565b9050919050565b60006133b48261336d565b9050919050565b82818337600083830152505050565b60005b838110156133e85780820151818401526020810190506133cd565b838111156133f7576000848401525b50505050565b6000600282049050600182168061341557607f821691505b6020821081141561342957613428613538565b5b50919050565b61343882613596565b810181811067ffffffffffffffff8211171561345757613456613567565b5b80604052505050565b600061346b8261338d565b91507fffffffffffffffffffffffffffffffffffffffffffffffffffffffffffffffff82141561349e5761349d6134da565b5b600182019050919050565b60006134b48261338d565b91506134bf8361338d565b9250826134cf576134ce613509565b5b828206905092915050565b7f4e487b7100000000000000000000000000000000000000000000000000000000600052601160045260246000fd5b7f4e487b7100000000000000000000000000000000000000000000000000000000600052601260045260246000fd5b7f4e487b7100000000000000000000000000000000000000000000000000000000600052602260045260246000fd5b7f4e487b7100000000000000000000000000000000000000000000000000000000600052604160045260246000fd5b6000601f19601f8301169050919050565b7f4552433732313a207472616e7366657220746f206e6f6e20455243373231526560008201527f63656976657220696d706c656d656e7465720000000000000000000000000000602082015250565b7f4f776e61626c653a206e6577206f776e657220697320746865207a65726f206160008201527f6464726573730000000000000000000000000000000000000000000000000000602082015250565b7f4552433732313a20746f6b656e20616c7265616479206d696e74656400000000600082015250565b7f4552433732313a207472616e7366657220746f20746865207a65726f2061646460008201527f7265737300000000000000000000000000000000000000000000000000000000602082015250565b7f4552433732313a20617070726f766520746f2063616c6c657200000000000000600082015250565b7f4552433732313a206f70657261746f7220717565727920666f72206e6f6e657860008201527f697374656e7420746f6b656e0000000000000000000000000000000000000000602082015250565b7f4552433732313a20617070726f76652063616c6c6572206973206e6f74206f7760008201527f6e6572206e6f7220617070726f76656420666f7220616c6c0000000000000000602082015250565b7f4552433732313a2062616c616e636520717565727920666f7220746865207a6560008201527f726f206164647265737300000000000000000000000000000000000000000000602082015250565b7f4552433732313a206f776e657220717565727920666f72206e6f6e657869737460008201527f656e7420746f6b656e0000000000000000000000000000000000000000000000602082015250565b7f4552433732313a206d696e7420746f20746865207a65726f2061646472657373600082015250565b7f4552433732313a20617070726f76656420717565727920666f72206e6f6e657860008201527f697374656e7420746f6b656e0000000000000000000000000000000000000000602082015250565b7f4f776e61626c653a2063616c6c6572206973206e6f7420746865206f776e6572600082015250565b7f4552433732313a207472616e73666572206f6620746f6b656e2074686174206960008201527f73206e6f74206f776e0000000000000000000000000000000000000000000000602082015250565b7f4552433732314d657461646174613a2055524920717565727920666f72206e6f60008201527f6e6578697374656e7420746f6b656e0000000000000000000000000000000000602082015250565b7f4552433732313a20617070726f76616c20746f2063757272656e74206f776e6560008201527f7200000000000000000000000000000000000000000000000000000000000000602082015250565b7f4552433732313a207472616e736665722063616c6c6572206973206e6f74206f60008201527f776e6572206e6f7220617070726f766564000000000000000000000000000000602082015250565b613a0881613319565b8114613a1357600080fd5b50565b613a1f8161332b565b8114613a2a57600080fd5b50565b613a3681613337565b8114613a4157600080fd5b50565b613a4d81613341565b8114613a5857600080fd5b50565b613a648161338d565b8114613a6f57600080fd5b5056fea2646970667358221220a4c5a1adc6961cc198a15d36807e3d88abcc8810d5da96a1b85c5dcfefe6fbad64736f6c63430008040033",
  "devdoc": {
    "kind": "dev",
    "methods": {
      "approve(address,uint256)": {
        "details": "See {IERC721-approve}."
      },
      "balanceOf(address)": {
        "details": "See {IERC721-balanceOf}."
      },
      "getApproved(uint256)": {
        "details": "See {IERC721-getApproved}."
      },
      "isApprovedForAll(address,address)": {
        "details": "See {IERC721-isApprovedForAll}."
      },
      "name()": {
        "details": "See {IERC721Metadata-name}."
      },
      "owner()": {
        "details": "Returns the address of the current owner."
      },
      "ownerOf(uint256)": {
        "details": "See {IERC721-ownerOf}."
      },
      "reclaim(uint256,address)": {
        "details": "Reclaim ownership of a name in ENS, if you own it in the registrar."
      },
      "register(uint256,address)": {
        "details": "Register a name.",
        "params": {
          "id": "The token ID (keccak256 of the label).",
          "owner": "The address that should own the registration."
        }
      },
      "registerOnly(uint256,address)": {
        "details": "Register a name, without modifying the registry.",
        "params": {
          "id": "The token ID (keccak256 of the label).",
          "owner": "The address that should own the registration."
        }
      },
      "renounceOwnership()": {
        "details": "Leaves the contract without owner. It will not be possible to call `onlyOwner` functions anymore. Can only be called by the current owner. NOTE: Renouncing ownership will leave the contract without an owner, thereby removing any functionality that is only available to the owner."
      },
      "safeTransferFrom(address,address,uint256)": {
        "details": "See {IERC721-safeTransferFrom}."
      },
      "safeTransferFrom(address,address,uint256,bytes)": {
        "details": "See {IERC721-safeTransferFrom}."
      },
      "setApprovalForAll(address,bool)": {
        "details": "See {IERC721-setApprovalForAll}."
      },
      "symbol()": {
        "details": "See {IERC721Metadata-symbol}."
      },
      "tokenURI(uint256)": {
        "details": "See {IERC721Metadata-tokenURI}."
      },
      "transferFrom(address,address,uint256)": {
        "details": "See {IERC721-transferFrom}."
      },
      "transferOwnership(address)": {
        "details": "Transfers ownership of the contract to a new account (`newOwner`). Can only be called by the current owner."
      }
    },
    "version": 1
  },
  "userdoc": {
    "kind": "user",
    "methods": {},
    "version": 1
  },
  "storageLayout": {
    "storage": [
      {
        "astId": 545,
        "contract": "contracts/ethregistrar/BaseRegistrarImplementation.sol:BaseRegistrarImplementation",
        "label": "_owner",
        "offset": 0,
        "slot": "0",
        "type": "t_address"
      },
      {
        "astId": 673,
        "contract": "contracts/ethregistrar/BaseRegistrarImplementation.sol:BaseRegistrarImplementation",
        "label": "_name",
        "offset": 0,
        "slot": "1",
        "type": "t_string_storage"
      },
      {
        "astId": 675,
        "contract": "contracts/ethregistrar/BaseRegistrarImplementation.sol:BaseRegistrarImplementation",
        "label": "_symbol",
        "offset": 0,
        "slot": "2",
        "type": "t_string_storage"
      },
      {
        "astId": 679,
        "contract": "contracts/ethregistrar/BaseRegistrarImplementation.sol:BaseRegistrarImplementation",
        "label": "_owners",
        "offset": 0,
        "slot": "3",
        "type": "t_mapping(t_uint256,t_address)"
      },
      {
        "astId": 683,
        "contract": "contracts/ethregistrar/BaseRegistrarImplementation.sol:BaseRegistrarImplementation",
        "label": "_balances",
        "offset": 0,
        "slot": "4",
        "type": "t_mapping(t_address,t_uint256)"
      },
      {
        "astId": 687,
        "contract": "contracts/ethregistrar/BaseRegistrarImplementation.sol:BaseRegistrarImplementation",
        "label": "_tokenApprovals",
        "offset": 0,
        "slot": "5",
        "type": "t_mapping(t_uint256,t_address)"
      },
      {
        "astId": 693,
        "contract": "contracts/ethregistrar/BaseRegistrarImplementation.sol:BaseRegistrarImplementation",
        "label": "_operatorApprovals",
        "offset": 0,
        "slot": "6",
        "type": "t_mapping(t_address,t_mapping(t_address,t_bool))"
      },
      {
        "astId": 9269,
        "contract": "contracts/ethregistrar/BaseRegistrarImplementation.sol:BaseRegistrarImplementation",
        "label": "ens",
        "offset": 0,
        "slot": "7",
        "type": "t_contract(ENS)11155"
      },
      {
        "astId": 9271,
        "contract": "contracts/ethregistrar/BaseRegistrarImplementation.sol:BaseRegistrarImplementation",
        "label": "baseNode",
        "offset": 0,
        "slot": "8",
        "type": "t_bytes32"
      },
      {
        "astId": 9275,
        "contract": "contracts/ethregistrar/BaseRegistrarImplementation.sol:BaseRegistrarImplementation",
        "label": "controllers",
        "offset": 0,
        "slot": "9",
        "type": "t_mapping(t_address,t_bool)"
      },
      {
        "astId": 9381,
        "contract": "contracts/ethregistrar/BaseRegistrarImplementation.sol:BaseRegistrarImplementation",
        "label": "baseURI",
        "offset": 0,
        "slot": "10",
        "type": "t_string_storage"
      }
    ],
    "types": {
      "t_address": {
        "encoding": "inplace",
        "label": "address",
        "numberOfBytes": "20"
      },
      "t_bool": {
        "encoding": "inplace",
        "label": "bool",
        "numberOfBytes": "1"
      },
      "t_bytes32": {
        "encoding": "inplace",
        "label": "bytes32",
        "numberOfBytes": "32"
      },
      "t_contract(ENS)11155": {
        "encoding": "inplace",
        "label": "contract ENS",
        "numberOfBytes": "20"
      },
      "t_mapping(t_address,t_bool)": {
        "encoding": "mapping",
        "key": "t_address",
        "label": "mapping(address => bool)",
        "numberOfBytes": "32",
        "value": "t_bool"
      },
      "t_mapping(t_address,t_mapping(t_address,t_bool))": {
        "encoding": "mapping",
        "key": "t_address",
        "label": "mapping(address => mapping(address => bool))",
        "numberOfBytes": "32",
        "value": "t_mapping(t_address,t_bool)"
      },
      "t_mapping(t_address,t_uint256)": {
        "encoding": "mapping",
        "key": "t_address",
        "label": "mapping(address => uint256)",
        "numberOfBytes": "32",
        "value": "t_uint256"
      },
      "t_mapping(t_uint256,t_address)": {
        "encoding": "mapping",
        "key": "t_uint256",
        "label": "mapping(uint256 => address)",
        "numberOfBytes": "32",
        "value": "t_address"
      },
      "t_string_storage": {
        "encoding": "bytes",
        "label": "string",
        "numberOfBytes": "32"
      },
      "t_uint256": {
        "encoding": "inplace",
        "label": "uint256",
        "numberOfBytes": "32"
      }
    }
  }
}