{
  "address": "0x9B752b91b60748328F051bcCAaF12506f4CB4CEf",
  "abi": [
    {
      "inputs": [
        {
          "internalType": "address",
          "name": "initialOwner",
          "type": "address"
        },
        {
          "internalType": "address",
          "name": "initializedStateRelayer",
          "type": "address"
        }
      ],
      "stateMutability": "nonpayable",
      "type": "constructor"
    },
    {
      "anonymous": false,
      "inputs": [
        {
          "indexed": true,
          "internalType": "address",
          "name": "previousOwner",
          "type": "address"
        },
        {
          "indexed": true,
          "internalType": "address",
          "name": "newOwner",
          "type": "address"
        }
      ],
      "name": "OwnershipTransferred",
      "type": "event"
    },
    {
      "inputs": [],
      "name": "latestAnswer",
      "outputs": [
        {
          "internalType": "uint256",
          "name": "",
          "type": "uint256"
        }
      ],
      "stateMutability": "view",
      "type": "function"
    },
    {
      "inputs": [],
      "name": "owner",
      "outputs": [
        {
          "internalType": "address",
          "name": "",
          "type": "address"
        }
      ],
      "stateMutability": "view",
      "type": "function"
    },
    {
      "inputs": [],
      "name": "renounceOwnership",
      "outputs": [],
      "stateMutability": "nonpayable",
      "type": "function"
    },
    {
      "inputs": [
        {
          "internalType": "address",
          "name": "_address",
          "type": "address"
        }
      ],
      "name": "setStateRelayer",
      "outputs": [],
      "stateMutability": "nonpayable",
      "type": "function"
    },
    {
      "inputs": [
        {
          "internalType": "address",
          "name": "newOwner",
          "type": "address"
        }
      ],
      "name": "transferOwnership",
      "outputs": [],
      "stateMutability": "nonpayable",
      "type": "function"
    }
  ],
  "transactionHash": "0x0eab3961ff4b32d0cf681881389b758ef4b8faef7e6c1ed110a4b6e46f4f1627",
  "args": [
    "0x5F9B53aF1F0385992BDc371E6Dd11B0D2AD1F935",
    "0xa075dC93D00ac14f4a7416C03cAbec4728586760"
  ],
  "solcInputHash": "a2f742effd31cf222dc25ab467fef215",
  "bytecode": "0x60806040523480156200001157600080fd5b5060405162000df338038062000df38339818101604052810190620000379190620002e5565b620000576200004b620000b160201b60201c565b620000b960201b60201c565b62000068826200017d60201b60201c565b80600160006101000a81548173ffffffffffffffffffffffffffffffffffffffff021916908373ffffffffffffffffffffffffffffffffffffffff16021790555050506200048f565b600033905090565b60008060009054906101000a900473ffffffffffffffffffffffffffffffffffffffff169050816000806101000a81548173ffffffffffffffffffffffffffffffffffffffff021916908373ffffffffffffffffffffffffffffffffffffffff1602179055508173ffffffffffffffffffffffffffffffffffffffff168173ffffffffffffffffffffffffffffffffffffffff167f8be0079c531659141344cd1fd0a4f28419497f9722a3daafe3b4186f6b6457e060405160405180910390a35050565b6200018d6200021460201b60201c565b600073ffffffffffffffffffffffffffffffffffffffff168173ffffffffffffffffffffffffffffffffffffffff16141562000200576040517f08c379a0000000000000000000000000000000000000000000000000000000008152600401620001f79062000374565b60405180910390fd5b6200021181620000b960201b60201c565b50565b62000224620000b160201b60201c565b73ffffffffffffffffffffffffffffffffffffffff166200024a620002a560201b60201c565b73ffffffffffffffffffffffffffffffffffffffff1614620002a3576040517f08c379a00000000000000000000000000000000000000000000000000000000081526004016200029a9062000396565b60405180910390fd5b565b60008060009054906101000a900473ffffffffffffffffffffffffffffffffffffffff16905090565b600081519050620002df8162000475565b92915050565b60008060408385031215620002f957600080fd5b60006200030985828601620002ce565b92505060206200031c85828601620002ce565b9150509250929050565b600062000335602683620003b8565b91506200034282620003fd565b604082019050919050565b60006200035c602083620003b8565b915062000369826200044c565b602082019050919050565b600060208201905081810360008301526200038f8162000326565b9050919050565b60006020820190508181036000830152620003b1816200034d565b9050919050565b600082825260208201905092915050565b6000620003d682620003dd565b9050919050565b600073ffffffffffffffffffffffffffffffffffffffff82169050919050565b7f4f776e61626c653a206e6577206f776e657220697320746865207a65726f206160008201527f6464726573730000000000000000000000000000000000000000000000000000602082015250565b7f4f776e61626c653a2063616c6c6572206973206e6f7420746865206f776e6572600082015250565b6200048081620003c9565b81146200048c57600080fd5b50565b610954806200049f6000396000f3fe608060405234801561001057600080fd5b50600436106100575760003560e01c8063370fff7d1461005c57806350d25bcd14610078578063715018a6146100965780638da5cb5b146100a0578063f2fde38b146100be575b600080fd5b61007660048036038101906100719190610500565b6100da565b005b610080610126565b60405161008d9190610668565b60405180910390f35b61009e610205565b005b6100a8610219565b6040516100b591906105ed565b60405180910390f35b6100d860048036038101906100d39190610500565b610242565b005b6100e26102c6565b80600160006101000a81548173ffffffffffffffffffffffffffffffffffffffff021916908373ffffffffffffffffffffffffffffffffffffffff16021790555050565b600080600160009054906101000a900473ffffffffffffffffffffffffffffffffffffffff1673ffffffffffffffffffffffffffffffffffffffff166317cb13756040518163ffffffff1660e01b815260040161018290610648565b6101206040518083038186803b15801561019b57600080fd5b505afa1580156101af573d6000803e3d6000fd5b505050506040513d601f19601f820116820180604052508101906101d39190610529565b91505060008160a001516305f5e10083608001516101f191906106ea565b6101fb91906106b9565b9050809250505090565b61020d6102c6565b6102176000610344565b565b60008060009054906101000a900473ffffffffffffffffffffffffffffffffffffffff16905090565b61024a6102c6565b600073ffffffffffffffffffffffffffffffffffffffff168173ffffffffffffffffffffffffffffffffffffffff1614156102ba576040517f08c379a00000000000000000000000000000000000000000000000000000000081526004016102b190610608565b60405180910390fd5b6102c381610344565b50565b6102ce610408565b73ffffffffffffffffffffffffffffffffffffffff166102ec610219565b73ffffffffffffffffffffffffffffffffffffffff1614610342576040517f08c379a000000000000000000000000000000000000000000000000000000000815260040161033990610628565b60405180910390fd5b565b60008060009054906101000a900473ffffffffffffffffffffffffffffffffffffffff169050816000806101000a81548173ffffffffffffffffffffffffffffffffffffffff021916908373ffffffffffffffffffffffffffffffffffffffff1602179055508173ffffffffffffffffffffffffffffffffffffffff168173ffffffffffffffffffffffffffffffffffffffff167f8be0079c531659141344cd1fd0a4f28419497f9722a3daafe3b4186f6b6457e060405160405180910390a35050565b600033905090565b60008135905061041f816108f0565b92915050565b6000610100828403121561043857600080fd5b610443610100610683565b90506000610453848285016104eb565b6000830152506020610467848285016104eb565b602083015250604061047b848285016104eb565b604083015250606061048f848285016104eb565b60608301525060806104a3848285016104eb565b60808301525060a06104b7848285016104eb565b60a08301525060c06104cb848285016104eb565b60c08301525060e06104df848285016104eb565b60e08301525092915050565b6000815190506104fa81610907565b92915050565b60006020828403121561051257600080fd5b600061052084828501610410565b91505092915050565b600080610120838503121561053d57600080fd5b600061054b858286016104eb565b925050602061055c85828601610425565b9150509250929050565b61056f81610744565b82525050565b60006105826026836106a8565b915061058d8261084f565b604082019050919050565b60006105a56020836106a8565b91506105b08261089e565b602082019050919050565b60006105c86009836106a8565b91506105d3826108c7565b602082019050919050565b6105e781610776565b82525050565b60006020820190506106026000830184610566565b92915050565b6000602082019050818103600083015261062181610575565b9050919050565b6000602082019050818103600083015261064181610598565b9050919050565b60006020820190508181036000830152610661816105bb565b9050919050565b600060208201905061067d60008301846105de565b92915050565b600061068d61069e565b90506106998282610780565b919050565b6000604051905090565b600082825260208201905092915050565b60006106c482610776565b91506106cf83610776565b9250826106df576106de6107e0565b5b828204905092915050565b60006106f582610776565b915061070083610776565b9250817fffffffffffffffffffffffffffffffffffffffffffffffffffffffffffffffff0483118215151615610739576107386107b1565b5b828202905092915050565b600061074f82610756565b9050919050565b600073ffffffffffffffffffffffffffffffffffffffff82169050919050565b6000819050919050565b6107898261083e565b810181811067ffffffffffffffff821117156107a8576107a761080f565b5b80604052505050565b7f4e487b7100000000000000000000000000000000000000000000000000000000600052601160045260246000fd5b7f4e487b7100000000000000000000000000000000000000000000000000000000600052601260045260246000fd5b7f4e487b7100000000000000000000000000000000000000000000000000000000600052604160045260246000fd5b6000601f19601f8301169050919050565b7f4f776e61626c653a206e6577206f776e657220697320746865207a65726f206160008201527f6464726573730000000000000000000000000000000000000000000000000000602082015250565b7f4f776e61626c653a2063616c6c6572206973206e6f7420746865206f776e6572600082015250565b7f64555344542d4446490000000000000000000000000000000000000000000000600082015250565b6108f981610744565b811461090457600080fd5b50565b61091081610776565b811461091b57600080fd5b5056fea264697066735822122063b828a9b8065c963dff702429ae4a5be9d52ac98cbb229be971965c42a639c864736f6c63430008040033",
  "devdoc": {
    "kind": "dev",
    "methods": {
      "owner()": {
        "details": "Returns the address of the current owner."
      },
      "renounceOwnership()": {
        "details": "Leaves the contract without owner. It will not be possible to call `onlyOwner` functions. Can only be called by the current owner. NOTE: Renouncing ownership will leave the contract without an owner, thereby disabling any functionality that is only available to the owner."
      },
      "transferOwnership(address)": {
        "details": "Transfers ownership of the contract to a new account (`newOwner`). Can only be called by the current owner."
      }
    },
    "version": 1
  },
  "userdoc": {
    "kind": "user",
    "methods": {},
    "version": 1
  },
  "storageLayout": {
    "storage": [
      {
        "astId": 7,
        "contract": "contracts/ethregistrar/DFIUSDTOracle.sol:DFIUSDTOracle",
        "label": "_owner",
        "offset": 0,
        "slot": "0",
        "type": "t_address"
      },
      {
        "astId": 150,
        "contract": "contracts/ethregistrar/DFIUSDTOracle.sol:DFIUSDTOracle",
        "label": "_stateRelayer",
        "offset": 0,
        "slot": "1",
        "type": "t_address"
      }
    ],
    "types": {
      "t_address": {
        "encoding": "inplace",
        "label": "address",
        "numberOfBytes": "20"
      }
    }
  }
}