{
  "address": "0x53292C6fDD63281e353f6B319ec0c1686f99eA54",
  "abi": [
    {
      "inputs": [
        {
          "internalType": "contract BaseRegistrarImplementation",
          "name": "_base",
          "type": "address"
        },
        {
          "internalType": "contract PriceOracle",
          "name": "_prices",
          "type": "address"
        },
        {
          "internalType": "uint256",
          "name": "_minCommitmentAge",
          "type": "uint256"
        },
        {
          "internalType": "uint256",
          "name": "_maxCommitmentAge",
          "type": "uint256"
        },
        {
          "internalType": "uint256",
          "name": "_minDomainLength",
          "type": "uint256"
        }
      ],
      "stateMutability": "nonpayable",
      "type": "constructor"
    },
    {
      "anonymous": false,
      "inputs": [
        {
          "indexed": false,
          "internalType": "string",
          "name": "name",
          "type": "string"
        },
        {
          "indexed": true,
          "internalType": "bytes32",
          "name": "label",
          "type": "bytes32"
        },
        {
          "indexed": true,
          "internalType": "address",
          "name": "owner",
          "type": "address"
        },
        {
          "indexed": false,
          "internalType": "uint256",
          "name": "cost",
          "type": "uint256"
        }
      ],
      "name": "NameRegistered",
      "type": "event"
    },
    {
      "anonymous": false,
      "inputs": [
        {
          "indexed": true,
          "internalType": "address",
          "name": "oracle",
          "type": "address"
        }
      ],
      "name": "NewPriceOracle",
      "type": "event"
    },
    {
      "anonymous": false,
      "inputs": [
        {
          "indexed": true,
          "internalType": "address",
          "name": "previousOwner",
          "type": "address"
        },
        {
          "indexed": true,
          "internalType": "address",
          "name": "newOwner",
          "type": "address"
        }
      ],
      "name": "OwnershipTransferred",
      "type": "event"
    },
    {
      "inputs": [
        {
          "internalType": "string",
          "name": "name",
          "type": "string"
        }
      ],
      "name": "available",
      "outputs": [
        {
          "internalType": "bool",
          "name": "",
          "type": "bool"
        }
      ],
      "stateMutability": "view",
      "type": "function"
    },
    {
      "inputs": [
        {
          "internalType": "bytes32",
          "name": "commitment",
          "type": "bytes32"
        }
      ],
      "name": "commit",
      "outputs": [],
      "stateMutability": "nonpayable",
      "type": "function"
    },
    {
      "inputs": [
        {
          "internalType": "bytes32",
          "name": "",
          "type": "bytes32"
        }
      ],
      "name": "commitments",
      "outputs": [
        {
          "internalType": "uint256",
          "name": "",
          "type": "uint256"
        }
      ],
      "stateMutability": "view",
      "type": "function"
    },
    {
      "inputs": [
        {
          "internalType": "string",
          "name": "name",
          "type": "string"
        },
        {
          "internalType": "address",
          "name": "owner",
          "type": "address"
        },
        {
          "internalType": "bytes32",
          "name": "secret",
          "type": "bytes32"
        }
      ],
      "name": "makeCommitment",
      "outputs": [
        {
          "internalType": "bytes32",
          "name": "",
          "type": "bytes32"
        }
      ],
      "stateMutability": "pure",
      "type": "function"
    },
    {
      "inputs": [
        {
          "internalType": "string",
          "name": "name",
          "type": "string"
        },
        {
          "internalType": "address",
          "name": "owner",
          "type": "address"
        },
        {
          "internalType": "bytes32",
          "name": "secret",
          "type": "bytes32"
        },
        {
          "internalType": "address",
          "name": "resolver",
          "type": "address"
        },
        {
          "internalType": "address",
          "name": "addr",
          "type": "address"
        }
      ],
      "name": "makeCommitmentWithConfig",
      "outputs": [
        {
          "internalType": "bytes32",
          "name": "",
          "type": "bytes32"
        }
      ],
      "stateMutability": "pure",
      "type": "function"
    },
    {
      "inputs": [],
      "name": "maxCommitmentAge",
      "outputs": [
        {
          "internalType": "uint256",
          "name": "",
          "type": "uint256"
        }
      ],
      "stateMutability": "view",
      "type": "function"
    },
    {
      "inputs": [],
      "name": "minCommitmentAge",
      "outputs": [
        {
          "internalType": "uint256",
          "name": "",
          "type": "uint256"
        }
      ],
      "stateMutability": "view",
      "type": "function"
    },
    {
      "inputs": [],
      "name": "minDomainLength",
      "outputs": [
        {
          "internalType": "uint256",
          "name": "",
          "type": "uint256"
        }
      ],
      "stateMutability": "view",
      "type": "function"
    },
    {
      "inputs": [],
      "name": "owner",
      "outputs": [
        {
          "internalType": "address",
          "name": "",
          "type": "address"
        }
      ],
      "stateMutability": "view",
      "type": "function"
    },
    {
      "inputs": [
        {
          "internalType": "string",
          "name": "name",
          "type": "string"
        }
      ],
      "name": "price",
      "outputs": [
        {
          "internalType": "uint256",
          "name": "",
          "type": "uint256"
        }
      ],
      "stateMutability": "view",
      "type": "function"
    },
    {
      "inputs": [
        {
          "internalType": "string",
          "name": "name",
          "type": "string"
        },
        {
          "internalType": "address",
          "name": "owner",
          "type": "address"
        },
        {
          "internalType": "bytes32",
          "name": "secret",
          "type": "bytes32"
        }
      ],
      "name": "register",
      "outputs": [],
      "stateMutability": "payable",
      "type": "function"
    },
    {
      "inputs": [
        {
          "internalType": "string",
          "name": "name",
          "type": "string"
        },
        {
          "internalType": "address",
          "name": "owner",
          "type": "address"
        },
        {
          "internalType": "bytes32",
          "name": "secret",
          "type": "bytes32"
        },
        {
          "internalType": "address",
          "name": "resolver",
          "type": "address"
        },
        {
          "internalType": "address",
          "name": "addr",
          "type": "address"
        }
      ],
      "name": "registerWithConfig",
      "outputs": [],
      "stateMutability": "payable",
      "type": "function"
    },
    {
      "inputs": [],
      "name": "renounceOwnership",
      "outputs": [],
      "stateMutability": "nonpayable",
      "type": "function"
    },
    {
      "inputs": [
        {
          "internalType": "uint256",
          "name": "_minCommitmentAge",
          "type": "uint256"
        },
        {
          "internalType": "uint256",
          "name": "_maxCommitmentAge",
          "type": "uint256"
        }
      ],
      "name": "setCommitmentAges",
      "outputs": [],
      "stateMutability": "nonpayable",
      "type": "function"
    },
    {
      "inputs": [
        {
          "internalType": "uint256",
          "name": "_minDomainLength",
          "type": "uint256"
        }
      ],
      "name": "setMinDomainLength",
      "outputs": [],
      "stateMutability": "nonpayable",
      "type": "function"
    },
    {
      "inputs": [
        {
          "internalType": "contract PriceOracle",
          "name": "_prices",
          "type": "address"
        }
      ],
      "name": "setPriceOracle",
      "outputs": [],
      "stateMutability": "nonpayable",
      "type": "function"
    },
    {
      "inputs": [
        {
          "internalType": "bytes4",
          "name": "interfaceID",
          "type": "bytes4"
        }
      ],
      "name": "supportsInterface",
      "outputs": [
        {
          "internalType": "bool",
          "name": "",
          "type": "bool"
        }
      ],
      "stateMutability": "pure",
      "type": "function"
    },
    {
      "inputs": [
        {
          "internalType": "address",
          "name": "newOwner",
          "type": "address"
        }
      ],
      "name": "transferOwnership",
      "outputs": [],
      "stateMutability": "nonpayable",
      "type": "function"
    },
    {
      "inputs": [
        {
          "internalType": "string",
          "name": "name",
          "type": "string"
        }
      ],
      "name": "valid",
      "outputs": [
        {
          "internalType": "bool",
          "name": "",
          "type": "bool"
        }
      ],
      "stateMutability": "view",
      "type": "function"
    },
    {
      "inputs": [],
      "name": "withdraw",
      "outputs": [],
      "stateMutability": "nonpayable",
      "type": "function"
    }
  ],
  "transactionHash": "0xf45eb4dbda467d5c797dfe7a314ddd91a5193f8613385560d114027ce46b31e9",
  "args": [
    "0xedF4f2D0d37A83734B5999BbaCb7cCbDf9a31896",
    "0x8dba2fF44Da53F4E278016b4e1dba5EC8b9f0d4D",
    60,
    86400,
    3
  ],
  "solcInputHash": "defae579ed8754f5e541852a80384572",
  "bytecode": "0x60806040523480156200001157600080fd5b5060405162002854380380620028548339818101604052810190620000379190620001e3565b6000620000496200019660201b60201c565b9050806000806101000a81548173ffffffffffffffffffffffffffffffffffffffff021916908373ffffffffffffffffffffffffffffffffffffffff1602179055508073ffffffffffffffffffffffffffffffffffffffff16600073ffffffffffffffffffffffffffffffffffffffff167f8be0079c531659141344cd1fd0a4f28419497f9722a3daafe3b4186f6b6457e060405160405180910390a350828211620000f457600080fd5b84600160006101000a81548173ffffffffffffffffffffffffffffffffffffffff021916908373ffffffffffffffffffffffffffffffffffffffff16021790555083600260006101000a81548173ffffffffffffffffffffffffffffffffffffffff021916908373ffffffffffffffffffffffffffffffffffffffff160217905550826003819055508160048190555080600581905550505050505062000319565b600033905090565b600081519050620001af81620002cb565b92915050565b600081519050620001c681620002e5565b92915050565b600081519050620001dd81620002ff565b92915050565b600080600080600060a08688031215620001fc57600080fd5b60006200020c888289016200019e565b95505060206200021f88828901620001b5565b94505060406200023288828901620001cc565b93505060606200024588828901620001cc565b92505060806200025888828901620001cc565b9150509295509295909350565b60006200027282620002a1565b9050919050565b6000620002868262000265565b9050919050565b60006200029a8262000265565b9050919050565b600073ffffffffffffffffffffffffffffffffffffffff82169050919050565b6000819050919050565b620002d68162000279565b8114620002e257600080fd5b50565b620002f0816200028d565b8114620002fc57600080fd5b50565b6200030a81620002c1565b81146200031657600080fd5b50565b61252b80620003296000396000f3fe60806040526004361061011f5760003560e01c80638da5cb5b116100a0578063f14fcbc811610064578063f14fcbc8146103c6578063f2fde38b146103ef578063f34b95b314610418578063f49826be14610434578063fe2c6198146104715761011f565b80638da5cb5b146102cd5780639791c097146102f8578063aeb8ce9b14610335578063ce1e09c014610372578063d71d80a61461039d5761011f565b8063715018a6116100e7578063715018a6146101fa5780637e3244791461021157806381efe0e51461023a578063839df945146102655780638d839ffe146102a25761011f565b806301ffc9a7146101245780633ccfd60b146101615780633d86c52f14610178578063530e784f146101b55780636acb4f91146101de575b600080fd5b34801561013057600080fd5b5061014b60048036038101906101469190611af4565b6104ae565b6040516101589190611fa3565b60405180910390f35b34801561016d57600080fd5b50610176610692565b005b34801561018457600080fd5b5061019f600480360381019061019a9190611c83565b610757565b6040516101ac9190611fbe565b60405180910390f35b3480156101c157600080fd5b506101dc60048036038101906101d79190611b46565b61087a565b005b6101f860048036038101906101f39190611c83565b61099f565b005b34801561020657600080fd5b5061020f610fb5565b005b34801561021d57600080fd5b5061023860048036038101906102339190611d64565b6110ef565b005b34801561024657600080fd5b5061024f61117d565b60405161025c9190612094565b60405180910390f35b34801561027157600080fd5b5061028c60048036038101906102879190611aa2565b611183565b6040516102999190612094565b60405180910390f35b3480156102ae57600080fd5b506102b761119b565b6040516102c49190612094565b60405180910390f35b3480156102d957600080fd5b506102e26111a1565b6040516102ef9190611f51565b60405180910390f35b34801561030457600080fd5b5061031f600480360381019061031a9190611bdb565b6111ca565b60405161032c9190611fa3565b60405180910390f35b34801561034157600080fd5b5061035c60048036038101906103579190611bdb565b6111e1565b6040516103699190611fa3565b60405180910390f35b34801561037e57600080fd5b506103876112b5565b6040516103949190612094565b60405180910390f35b3480156103a957600080fd5b506103c460048036038101906103bf9190611d12565b6112bb565b005b3480156103d257600080fd5b506103ed60048036038101906103e89190611aa2565b611341565b005b3480156103fb57600080fd5b5061041660048036038101906104119190611a50565b611388565b005b610432600480360381019061042d9190611b6f565b611531565b005b34801561044057600080fd5b5061045b60048036038101906104569190611c1c565b611589565b6040516104689190611fbe565b60405180910390f35b34801561047d57600080fd5b5061049860048036038101906104939190611bdb565b6115a2565b6040516104a59190612094565b60405180910390f35b60007f01ffc9a7a5cef8baa21ed3c5c0d7e23accb804b619e9333b597f47a0d84076e27bffffffffffffffffffffffffffffffffffffffffffffffffffffffff1916827bffffffffffffffffffffffffffffffffffffffffffffffffffffffff1916148061060157507ff34b95b3ccb4c902ea244fa34aa19f86f7ea6c04d87ada0fa3d1437f04bbd1447ff14fcbc8f6996b31406143e2613e60bde3c1118cfe166c0aa27ba40ef1033df57ff49826be766d3cc8dc7e4aab3f18eb3d339eb3bce85a7b9144119bbe997b2cc37faeb8ce9b70d5d3f3fba501c34cd61a54703dbe3cfb25bd75d3574635f9ea76837ffe2c619874d0eefe2754e000f94bf8e8d25af34324c98305907f8d29c90ee618181818187bffffffffffffffffffffffffffffffffffffffffffffffffffffffff1916827bffffffffffffffffffffffffffffffffffffffffffffffffffffffff1916145b8061068b57507f3d86c52f15403f1a062ec90b8fe0792e3be0a9cb236cd8ee4ec4b45821bd2faa7f6acb4f918674e987c0300e8b629769f4d160a3155e20d335a569b3815537c15d187bffffffffffffffffffffffffffffffffffffffffffffffffffffffff1916827bffffffffffffffffffffffffffffffffffffffffffffffffffffffff1916145b9050919050565b61069a611656565b73ffffffffffffffffffffffffffffffffffffffff166106b86111a1565b73ffffffffffffffffffffffffffffffffffffffff161461070e576040517f08c379a000000000000000000000000000000000000000000000000000000000815260040161070590612074565b60405180910390fd5b3373ffffffffffffffffffffffffffffffffffffffff166108fc479081150290604051600060405180830381858888f19350505050158015610754573d6000803e3d6000fd5b50565b60008086805190602001209050600073ffffffffffffffffffffffffffffffffffffffff168473ffffffffffffffffffffffffffffffffffffffff161480156107cc5750600073ffffffffffffffffffffffffffffffffffffffff168373ffffffffffffffffffffffffffffffffffffffff16145b15610804578086866040516020016107e693929190611ee8565b60405160208183030381529060405280519060200120915050610871565b600073ffffffffffffffffffffffffffffffffffffffff168473ffffffffffffffffffffffffffffffffffffffff16141561083e57600080fd5b8086858588604051602001610857959493929190611e89565b604051602081830303815290604052805190602001209150505b95945050505050565b610882611656565b73ffffffffffffffffffffffffffffffffffffffff166108a06111a1565b73ffffffffffffffffffffffffffffffffffffffff16146108f6576040517f08c379a00000000000000000000000000000000000000000000000000000000081526004016108ed90612074565b60405180910390fd5b80600260006101000a81548173ffffffffffffffffffffffffffffffffffffffff021916908373ffffffffffffffffffffffffffffffffffffffff160217905550600260009054906101000a900473ffffffffffffffffffffffffffffffffffffffff1673ffffffffffffffffffffffffffffffffffffffff167ff261845a790fe29bbd6631e2ca4a5bdc83e6eed7c3271d9590d97287e00e912360405160405180910390a250565b60006109ae8686868686610757565b905060006109bc878361165e565b905060008780519060200120905060008160001c9050600073ffffffffffffffffffffffffffffffffffffffff168673ffffffffffffffffffffffffffffffffffffffff1614610e3557600160009054906101000a900473ffffffffffffffffffffffffffffffffffffffff1673ffffffffffffffffffffffffffffffffffffffff1663dbbdf08382306040518363ffffffff1660e01b8152600401610a639291906120af565b600060405180830381600087803b158015610a7d57600080fd5b505af1158015610a91573d6000803e3d6000fd5b505050506000600160009054906101000a900473ffffffffffffffffffffffffffffffffffffffff1673ffffffffffffffffffffffffffffffffffffffff1663ddf7fcb06040518163ffffffff1660e01b815260040160206040518083038186803b158015610aff57600080fd5b505afa158015610b13573d6000803e3d6000fd5b505050506040513d601f19601f82011682018060405250810190610b379190611acb565b83604051602001610b49929190611f25565b604051602081830303815290604052805190602001209050600160009054906101000a900473ffffffffffffffffffffffffffffffffffffffff1673ffffffffffffffffffffffffffffffffffffffff16633f15457f6040518163ffffffff1660e01b815260040160206040518083038186803b158015610bc957600080fd5b505afa158015610bdd573d6000803e3d6000fd5b505050506040513d601f19601f82011682018060405250810190610c019190611b1d565b73ffffffffffffffffffffffffffffffffffffffff16631896f70a82896040518363ffffffff1660e01b8152600401610c3b929190611fd9565b600060405180830381600087803b158015610c5557600080fd5b505af1158015610c69573d6000803e3d6000fd5b50505050600073ffffffffffffffffffffffffffffffffffffffff168673ffffffffffffffffffffffffffffffffffffffff1614610d0f578673ffffffffffffffffffffffffffffffffffffffff1663d5fa2b0082886040518363ffffffff1660e01b8152600401610cdc929190611fd9565b600060405180830381600087803b158015610cf657600080fd5b505af1158015610d0a573d6000803e3d6000fd5b505050505b600160009054906101000a900473ffffffffffffffffffffffffffffffffffffffff1673ffffffffffffffffffffffffffffffffffffffff166328ed4f6c838b6040518363ffffffff1660e01b8152600401610d6c9291906120af565b600060405180830381600087803b158015610d8657600080fd5b505af1158015610d9a573d6000803e3d6000fd5b50505050600160009054906101000a900473ffffffffffffffffffffffffffffffffffffffff1673ffffffffffffffffffffffffffffffffffffffff166323b872dd308b856040518463ffffffff1660e01b8152600401610dfd93929190611f6c565b600060405180830381600087803b158015610e1757600080fd5b505af1158015610e2b573d6000803e3d6000fd5b5050505050610efe565b600073ffffffffffffffffffffffffffffffffffffffff168573ffffffffffffffffffffffffffffffffffffffff1614610e6e57600080fd5b600160009054906101000a900473ffffffffffffffffffffffffffffffffffffffff1673ffffffffffffffffffffffffffffffffffffffff1663dbbdf083828a6040518363ffffffff1660e01b8152600401610ecb9291906120af565b600060405180830381600087803b158015610ee557600080fd5b505af1158015610ef9573d6000803e3d6000fd5b505050505b8773ffffffffffffffffffffffffffffffffffffffff16827f0667086d08417333ce63f40d5bc2ef6fd330e25aaaf317b7c489541f8fe600fa8b86604051610f47929190612024565b60405180910390a382341115610faa573373ffffffffffffffffffffffffffffffffffffffff166108fc8434610f7d91906121a0565b9081150290604051600060405180830381858888f19350505050158015610fa8573d6000803e3d6000fd5b505b505050505050505050565b610fbd611656565b73ffffffffffffffffffffffffffffffffffffffff16610fdb6111a1565b73ffffffffffffffffffffffffffffffffffffffff1614611031576040517f08c379a000000000000000000000000000000000000000000000000000000000815260040161102890612074565b60405180910390fd5b600073ffffffffffffffffffffffffffffffffffffffff1660008054906101000a900473ffffffffffffffffffffffffffffffffffffffff1673ffffffffffffffffffffffffffffffffffffffff167f8be0079c531659141344cd1fd0a4f28419497f9722a3daafe3b4186f6b6457e060405160405180910390a360008060006101000a81548173ffffffffffffffffffffffffffffffffffffffff021916908373ffffffffffffffffffffffffffffffffffffffff160217905550565b6110f7611656565b73ffffffffffffffffffffffffffffffffffffffff166111156111a1565b73ffffffffffffffffffffffffffffffffffffffff161461116b576040517f08c379a000000000000000000000000000000000000000000000000000000000815260040161116290612074565b60405180910390fd5b81600381905550806004819055505050565b60055481565b60066020528060005260406000206000915090505481565b60035481565b60008060009054906101000a900473ffffffffffffffffffffffffffffffffffffffff16905090565b60006005546111d883611706565b10159050919050565b600080828051906020012090506111f7836111ca565b80156112ad5750600160009054906101000a900473ffffffffffffffffffffffffffffffffffffffff1673ffffffffffffffffffffffffffffffffffffffff166396e494e88260001c6040518263ffffffff1660e01b815260040161125c9190612094565b60206040518083038186803b15801561127457600080fd5b505afa158015611288573d6000803e3d6000fd5b505050506040513d601f19601f820116820180604052508101906112ac9190611a79565b5b915050919050565b60045481565b6112c3611656565b73ffffffffffffffffffffffffffffffffffffffff166112e16111a1565b73ffffffffffffffffffffffffffffffffffffffff1614611337576040517f08c379a000000000000000000000000000000000000000000000000000000000815260040161132e90612074565b60405180910390fd5b8060058190555050565b426004546006600084815260200190815260200160002054611363919061214a565b1061136d57600080fd5b42600660008381526020019081526020016000208190555050565b611390611656565b73ffffffffffffffffffffffffffffffffffffffff166113ae6111a1565b73ffffffffffffffffffffffffffffffffffffffff1614611404576040517f08c379a00000000000000000000000000000000000000000000000000000000081526004016113fb90612074565b60405180910390fd5b600073ffffffffffffffffffffffffffffffffffffffff168173ffffffffffffffffffffffffffffffffffffffff161415611474576040517f08c379a000000000000000000000000000000000000000000000000000000000815260040161146b90612054565b60405180910390fd5b8073ffffffffffffffffffffffffffffffffffffffff1660008054906101000a900473ffffffffffffffffffffffffffffffffffffffff1673ffffffffffffffffffffffffffffffffffffffff167f8be0079c531659141344cd1fd0a4f28419497f9722a3daafe3b4186f6b6457e060405160405180910390a3806000806101000a81548173ffffffffffffffffffffffffffffffffffffffff021916908373ffffffffffffffffffffffffffffffffffffffff16021790555050565b61158384848080601f016020809104026020016040519081016040528093929190818152602001838380828437600081840152601f19601f82011690508083019250505050505050838360008061099f565b50505050565b6000611599848484600080610757565b90509392505050565b6000600260009054906101000a900473ffffffffffffffffffffffffffffffffffffffff1673ffffffffffffffffffffffffffffffffffffffff1663fe2c6198836040518263ffffffff1660e01b81526004016115ff9190612002565b60206040518083038186803b15801561161757600080fd5b505afa15801561162b573d6000803e3d6000fd5b505050506040513d601f19601f8201168201806040525081019061164f9190611d3b565b9050919050565b600033905090565b6000426003546006600085815260200190815260200160002054611682919061214a565b111561168d57600080fd5b4260045460066000858152602001908152602001600020546116af919061214a565b116116b957600080fd5b6116c2836111e1565b6116cb57600080fd5b600660008381526020019081526020016000206000905560006116ed846115a2565b9050803410156116fc57600080fd5b8091505092915050565b60008060008084519050600092505b808210156118d6576000858381518110611758577f4e487b7100000000000000000000000000000000000000000000000000000000600052603260045260246000fd5b602001015160f81c60f81b9050608060f81b817effffffffffffffffffffffffffffffffffffffffffffffffffffffffffffff191610156117a7576001836117a0919061214a565b92506118c2565b60e060f81b817effffffffffffffffffffffffffffffffffffffffffffffffffffffffffffff191610156117e9576002836117e2919061214a565b92506118c1565b60f060f81b817effffffffffffffffffffffffffffffffffffffffffffffffffffffffffffff1916101561182b57600383611824919061214a565b92506118c0565b60f8801b817effffffffffffffffffffffffffffffffffffffffffffffffffffffffffffff1916101561186c57600483611865919061214a565b92506118bf565b60fc60f81b817effffffffffffffffffffffffffffffffffffffffffffffffffffffffffffff191610156118ae576005836118a7919061214a565b92506118be565b6006836118bb919061214a565b92505b5b5b5b5b5082806118ce906122e9565b935050611715565b829350505050919050565b60006118f46118ef846120fd565b6120d8565b90508281526020810184848401111561190c57600080fd5b611917848285612276565b509392505050565b60008135905061192e81612454565b92915050565b6000815190506119438161246b565b92915050565b60008135905061195881612482565b92915050565b60008151905061196d81612482565b92915050565b60008135905061198281612499565b92915050565b600081519050611997816124b0565b92915050565b6000813590506119ac816124c7565b92915050565b60008083601f8401126119c457600080fd5b8235905067ffffffffffffffff8111156119dd57600080fd5b6020830191508360018202830111156119f557600080fd5b9250929050565b600082601f830112611a0d57600080fd5b8135611a1d8482602086016118e1565b91505092915050565b600081359050611a35816124de565b92915050565b600081519050611a4a816124de565b92915050565b600060208284031215611a6257600080fd5b6000611a708482850161191f565b91505092915050565b600060208284031215611a8b57600080fd5b6000611a9984828501611934565b91505092915050565b600060208284031215611ab457600080fd5b6000611ac284828501611949565b91505092915050565b600060208284031215611add57600080fd5b6000611aeb8482850161195e565b91505092915050565b600060208284031215611b0657600080fd5b6000611b1484828501611973565b91505092915050565b600060208284031215611b2f57600080fd5b6000611b3d84828501611988565b91505092915050565b600060208284031215611b5857600080fd5b6000611b668482850161199d565b91505092915050565b60008060008060608587031215611b8557600080fd5b600085013567ffffffffffffffff811115611b9f57600080fd5b611bab878288016119b2565b94509450506020611bbe8782880161191f565b9250506040611bcf87828801611949565b91505092959194509250565b600060208284031215611bed57600080fd5b600082013567ffffffffffffffff811115611c0757600080fd5b611c13848285016119fc565b91505092915050565b600080600060608486031215611c3157600080fd5b600084013567ffffffffffffffff811115611c4b57600080fd5b611c57868287016119fc565b9350506020611c688682870161191f565b9250506040611c7986828701611949565b9150509250925092565b600080600080600060a08688031215611c9b57600080fd5b600086013567ffffffffffffffff811115611cb557600080fd5b611cc1888289016119fc565b9550506020611cd28882890161191f565b9450506040611ce388828901611949565b9350506060611cf48882890161191f565b9250506080611d058882890161191f565b9150509295509295909350565b600060208284031215611d2457600080fd5b6000611d3284828501611a26565b91505092915050565b600060208284031215611d4d57600080fd5b6000611d5b84828501611a3b565b91505092915050565b60008060408385031215611d7757600080fd5b6000611d8585828601611a26565b9250506020611d9685828601611a26565b9150509250929050565b611da9816121d4565b82525050565b611dc0611dbb826121d4565b612332565b82525050565b611dcf816121e6565b82525050565b611dde816121f2565b82525050565b611df5611df0826121f2565b612344565b82525050565b6000611e068261212e565b611e108185612139565b9350611e20818560208601612285565b611e29816123be565b840191505092915050565b6000611e41602683612139565b9150611e4c826123dc565b604082019050919050565b6000611e64602083612139565b9150611e6f8261242b565b602082019050919050565b611e838161226c565b82525050565b6000611e958288611de4565b602082019150611ea58287611daf565b601482019150611eb58286611daf565b601482019150611ec58285611daf565b601482019150611ed58284611de4565b6020820191508190509695505050505050565b6000611ef48286611de4565b602082019150611f048285611daf565b601482019150611f148284611de4565b602082019150819050949350505050565b6000611f318285611de4565b602082019150611f418284611de4565b6020820191508190509392505050565b6000602082019050611f666000830184611da0565b92915050565b6000606082019050611f816000830186611da0565b611f8e6020830185611da0565b611f9b6040830184611e7a565b949350505050565b6000602082019050611fb86000830184611dc6565b92915050565b6000602082019050611fd36000830184611dd5565b92915050565b6000604082019050611fee6000830185611dd5565b611ffb6020830184611da0565b9392505050565b6000602082019050818103600083015261201c8184611dfb565b905092915050565b6000604082019050818103600083015261203e8185611dfb565b905061204d6020830184611e7a565b9392505050565b6000602082019050818103600083015261206d81611e34565b9050919050565b6000602082019050818103600083015261208d81611e57565b9050919050565b60006020820190506120a96000830184611e7a565b92915050565b60006040820190506120c46000830185611e7a565b6120d16020830184611da0565b9392505050565b60006120e26120f3565b90506120ee82826122b8565b919050565b6000604051905090565b600067ffffffffffffffff8211156121185761211761238f565b5b612121826123be565b9050602081019050919050565b600081519050919050565b600082825260208201905092915050565b60006121558261226c565b91506121608361226c565b9250827fffffffffffffffffffffffffffffffffffffffffffffffffffffffffffffffff0382111561219557612194612360565b5b828201905092915050565b60006121ab8261226c565b91506121b68361226c565b9250828210156121c9576121c8612360565b5b828203905092915050565b60006121df8261224c565b9050919050565b60008115159050919050565b6000819050919050565b60007fffffffff0000000000000000000000000000000000000000000000000000000082169050919050565b6000612233826121d4565b9050919050565b6000612245826121d4565b9050919050565b600073ffffffffffffffffffffffffffffffffffffffff82169050919050565b6000819050919050565b82818337600083830152505050565b60005b838110156122a3578082015181840152602081019050612288565b838111156122b2576000848401525b50505050565b6122c1826123be565b810181811067ffffffffffffffff821117156122e0576122df61238f565b5b80604052505050565b60006122f48261226c565b91507fffffffffffffffffffffffffffffffffffffffffffffffffffffffffffffffff82141561232757612326612360565b5b600182019050919050565b600061233d8261234e565b9050919050565b6000819050919050565b6000612359826123cf565b9050919050565b7f4e487b7100000000000000000000000000000000000000000000000000000000600052601160045260246000fd5b7f4e487b7100000000000000000000000000000000000000000000000000000000600052604160045260246000fd5b6000601f19601f8301169050919050565b60008160601b9050919050565b7f4f776e61626c653a206e6577206f776e657220697320746865207a65726f206160008201527f6464726573730000000000000000000000000000000000000000000000000000602082015250565b7f4f776e61626c653a2063616c6c6572206973206e6f7420746865206f776e6572600082015250565b61245d816121d4565b811461246857600080fd5b50565b612474816121e6565b811461247f57600080fd5b50565b61248b816121f2565b811461249657600080fd5b50565b6124a2816121fc565b81146124ad57600080fd5b50565b6124b981612228565b81146124c457600080fd5b50565b6124d08161223a565b81146124db57600080fd5b50565b6124e78161226c565b81146124f257600080fd5b5056fea26469706673582212204ce7a63f7eb9f644c652bd36b67101d2bd5f3d1eea4cf7738971861ae50e080964736f6c63430008040033",
  "devdoc": {
    "details": "A registrar controller for registering names at fixed cost.",
    "kind": "dev",
    "methods": {
      "owner()": {
        "details": "Returns the address of the current owner."
      },
      "renounceOwnership()": {
        "details": "Leaves the contract without owner. It will not be possible to call `onlyOwner` functions anymore. Can only be called by the current owner. NOTE: Renouncing ownership will leave the contract without an owner, thereby removing any functionality that is only available to the owner."
      },
      "transferOwnership(address)": {
        "details": "Transfers ownership of the contract to a new account (`newOwner`). Can only be called by the current owner."
      }
    },
    "version": 1
  },
  "userdoc": {
    "kind": "user",
    "methods": {},
    "version": 1
  },
  "storageLayout": {
    "storage": [
      {
        "astId": 545,
        "contract": "contracts/ethregistrar/ETHRegistrarController.sol:ETHRegistrarController",
        "label": "_owner",
        "offset": 0,
        "slot": "0",
        "type": "t_address"
      },
      {
        "astId": 9740,
        "contract": "contracts/ethregistrar/ETHRegistrarController.sol:ETHRegistrarController",
        "label": "base",
        "offset": 0,
        "slot": "1",
        "type": "t_contract(BaseRegistrarImplementation)9648"
      },
      {
        "astId": 9743,
        "contract": "contracts/ethregistrar/ETHRegistrarController.sol:ETHRegistrarController",
        "label": "prices",
        "offset": 0,
        "slot": "2",
        "type": "t_contract(PriceOracle)10330"
      },
      {
        "astId": 9745,
        "contract": "contracts/ethregistrar/ETHRegistrarController.sol:ETHRegistrarController",
        "label": "minCommitmentAge",
        "offset": 0,
        "slot": "3",
        "type": "t_uint256"
      },
      {
        "astId": 9747,
        "contract": "contracts/ethregistrar/ETHRegistrarController.sol:ETHRegistrarController",
        "label": "maxCommitmentAge",
        "offset": 0,
        "slot": "4",
        "type": "t_uint256"
      },
      {
        "astId": 9749,
        "contract": "contracts/ethregistrar/ETHRegistrarController.sol:ETHRegistrarController",
        "label": "minDomainLength",
        "offset": 0,
        "slot": "5",
        "type": "t_uint256"
      },
      {
        "astId": 9753,
        "contract": "contracts/ethregistrar/ETHRegistrarController.sol:ETHRegistrarController",
        "label": "commitments",
        "offset": 0,
        "slot": "6",
        "type": "t_mapping(t_bytes32,t_uint256)"
      }
    ],
    "types": {
      "t_address": {
        "encoding": "inplace",
        "label": "address",
        "numberOfBytes": "20"
      },
      "t_bytes32": {
        "encoding": "inplace",
        "label": "bytes32",
        "numberOfBytes": "32"
      },
      "t_contract(BaseRegistrarImplementation)9648": {
        "encoding": "inplace",
        "label": "contract BaseRegistrarImplementation",
        "numberOfBytes": "20"
      },
      "t_contract(PriceOracle)10330": {
        "encoding": "inplace",
        "label": "contract PriceOracle",
        "numberOfBytes": "20"
      },
      "t_mapping(t_bytes32,t_uint256)": {
        "encoding": "mapping",
        "key": "t_bytes32",
        "label": "mapping(bytes32 => uint256)",
        "numberOfBytes": "32",
        "value": "t_uint256"
      },
      "t_uint256": {
        "encoding": "inplace",
        "label": "uint256",
        "numberOfBytes": "32"
      }
    }
  }
}