{
  "_format": "hh-sol-artifact-1",
  "contractName": "DNSRegistrar",
  "sourceName": "contracts/dnsregistrar/DNSRegistrar.sol",
  "abi": [
    {
      "inputs": [
        {
          "internalType": "contract DNSSEC",
          "name": "_dnssec",
          "type": "address"
        },
        {
          "internalType": "contract PublicSuffixList",
          "name": "_suffixes",
          "type": "address"
        },
        {
          "internalType": "contract ENS",
          "name": "_ens",
          "type": "address"
        }
      ],
      "stateMutability": "nonpayable",
      "type": "constructor"
    },
    {
      "anonymous": false,
      "inputs": [
        {
          "indexed": true,
          "internalType": "bytes32",
          "name": "node",
          "type": "bytes32"
        },
        {
          "indexed": true,
          "internalType": "address",
          "name": "owner",
          "type": "address"
        },
        {
          "indexed": false,
          "internalType": "bytes",
          "name": "dnsname",
          "type": "bytes"
        }
      ],
      "name": "Claim",
      "type": "event"
    },
    {
      "anonymous": false,
      "inputs": [
        {
          "indexed": false,
          "internalType": "address",
          "name": "oracle",
          "type": "address"
        }
      ],
      "name": "NewOracle",
      "type": "event"
    },
    {
      "anonymous": false,
      "inputs": [
        {
          "indexed": false,
          "internalType": "address",
          "name": "suffixes",
          "type": "address"
        }
      ],
      "name": "NewPublicSuffixList",
      "type": "event"
    },
    {
      "inputs": [
        {
          "internalType": "bytes",
          "name": "name",
          "type": "bytes"
        },
        {
          "internalType": "bytes",
          "name": "proof",
          "type": "bytes"
        }
      ],
      "name": "claim",
      "outputs": [],
      "stateMutability": "nonpayable",
      "type": "function"
    },
    {
      "inputs": [],
      "name": "ens",
      "outputs": [
        {
          "internalType": "contract ENS",
          "name": "",
          "type": "address"
        }
      ],
      "stateMutability": "view",
      "type": "function"
    },
    {
      "inputs": [],
      "name": "oracle",
      "outputs": [
        {
          "internalType": "contract DNSSEC",
          "name": "",
          "type": "address"
        }
      ],
      "stateMutability": "view",
      "type": "function"
    },
    {
      "inputs": [
        {
          "internalType": "bytes",
          "name": "name",
          "type": "bytes"
        },
        {
          "components": [
            {
              "internalType": "bytes",
              "name": "rrset",
              "type": "bytes"
            },
            {
              "internalType": "bytes",
              "name": "sig",
              "type": "bytes"
            }
          ],
          "internalType": "struct DNSSEC.RRSetWithSignature[]",
          "name": "input",
          "type": "tuple[]"
        },
        {
          "internalType": "bytes",
          "name": "proof",
          "type": "bytes"
        }
      ],
      "name": "proveAndClaim",
      "outputs": [],
      "stateMutability": "nonpayable",
      "type": "function"
    },
    {
      "inputs": [
        {
          "internalType": "contract DNSSEC",
          "name": "_dnssec",
          "type": "address"
        }
      ],
      "name": "setOracle",
      "outputs": [],
      "stateMutability": "nonpayable",
      "type": "function"
    },
    {
      "inputs": [
        {
          "internalType": "contract PublicSuffixList",
          "name": "_suffixes",
          "type": "address"
        }
      ],
      "name": "setPublicSuffixList",
      "outputs": [],
      "stateMutability": "nonpayable",
      "type": "function"
    },
    {
      "inputs": [],
      "name": "suffixes",
      "outputs": [
        {
          "internalType": "contract PublicSuffixList",
          "name": "",
          "type": "address"
        }
      ],
      "stateMutability": "view",
      "type": "function"
    },
    {
      "inputs": [
        {
          "internalType": "bytes4",
          "name": "interfaceID",
          "type": "bytes4"
        }
      ],
      "name": "supportsInterface",
      "outputs": [
        {
          "internalType": "bool",
          "name": "",
          "type": "bool"
        }
      ],
      "stateMutability": "pure",
      "type": "function"
    }
  ],
  "bytecode": "0x60806040523480156200001157600080fd5b5060405162002d5438038062002d548339818101604052810190620000379190620001fb565b826000806101000a81548173ffffffffffffffffffffffffffffffffffffffff021916908373ffffffffffffffffffffffffffffffffffffffff1602179055507fb3eacd0e351fafdfefdec84e1cd19679b38dbcd63ea7c2c24da17fd2bc3b3c0e60008054906101000a900473ffffffffffffffffffffffffffffffffffffffff16604051620000c8919062000262565b60405180910390a181600260006101000a81548173ffffffffffffffffffffffffffffffffffffffff021916908373ffffffffffffffffffffffffffffffffffffffff1602179055507f9176b7f47e4504df5e5516c99d90d82ac7cbd49cc77e7f22ba2ac2f2e3a3eba8600260009054906101000a900473ffffffffffffffffffffffffffffffffffffffff1660405162000164919062000262565b60405180910390a180600160006101000a81548173ffffffffffffffffffffffffffffffffffffffff021916908373ffffffffffffffffffffffffffffffffffffffff1602179055505050506200033d565b600081519050620001c781620002ef565b92915050565b600081519050620001de8162000309565b92915050565b600081519050620001f58162000323565b92915050565b6000806000606084860312156200021157600080fd5b60006200022186828701620001b6565b93505060206200023486828701620001e4565b92505060406200024786828701620001cd565b9150509250925092565b6200025c816200027f565b82525050565b600060208201905062000279600083018462000251565b92915050565b60006200028c82620002cf565b9050919050565b6000620002a0826200027f565b9050919050565b6000620002b4826200027f565b9050919050565b6000620002c8826200027f565b9050919050565b600073ffffffffffffffffffffffffffffffffffffffff82169050919050565b620002fa8162000293565b81146200030657600080fd5b50565b6200031481620002a7565b81146200032057600080fd5b50565b6200032e81620002bb565b81146200033a57600080fd5b50565b612a07806200034d6000396000f3fe608060405234801561001057600080fd5b50600436106100885760003560e01c80637adbf9731161005b5780637adbf973146101155780637dc0d1d0146101315780638bbedf751461014f578063be27b22c1461016b57610088565b806301ffc9a71461008d5780631ecfc411146100bd57806330349ebe146100d95780633f15457f146100f7575b600080fd5b6100a760048036038101906100a29190611cc3565b610187565b6040516100b49190612177565b60405180910390f35b6100d760048036038101906100d29190611e59565b61029d565b005b6100e16104a8565b6040516100ee9190612265565b60405180910390f35b6100ff6104ce565b60405161010c919061224a565b60405180910390f35b61012f600480360381019061012a9190611e30565b6104f4565b005b6101396106fc565b604051610146919061222f565b60405180910390f35b61016960048036038101906101649190611d2d565b610720565b005b61018560048036038101906101809190611dc4565b6107e3565b005b60007f01ffc9a7a5cef8baa21ed3c5c0d7e23accb804b619e9333b597f47a0d84076e27bffffffffffffffffffffffffffffffffffffffffffffffffffffffff1916827bffffffffffffffffffffffffffffffffffffffffffffffffffffffff1916148061029657507f7dc0d1d053709daf7666fa92d95a4a378b3697fa925497d6f41c4277db5805557fd94585bdbcfe8f813f622f992acac91edb949402317ea853110ee88dff8626337fbe27b22c9acdad36ca1f0f94c9fd0d70d9f9852f6e2a5bfda55706679287197018187bffffffffffffffffffffffffffffffffffffffffffffffffffffffff1916827bffffffffffffffffffffffffffffffffffffffffffffffffffffffff1916145b9050919050565b6000600160009054906101000a900473ffffffffffffffffffffffffffffffffffffffff1673ffffffffffffffffffffffffffffffffffffffff166302571be36000801b6040518263ffffffff1660e01b81526004016102fd9190612192565b60206040518083038186803b15801561031557600080fd5b505afa158015610329573d6000803e3d6000fd5b505050506040513d601f19601f8201168201806040525081019061034d9190611c48565b905060008173ffffffffffffffffffffffffffffffffffffffff16638da5cb5b6040518163ffffffff1660e01b815260040160206040518083038186803b15801561039757600080fd5b505afa1580156103ab573d6000803e3d6000fd5b505050506040513d601f19601f820116820180604052508101906103cf9190611c48565b90508073ffffffffffffffffffffffffffffffffffffffff163373ffffffffffffffffffffffffffffffffffffffff161461040957600080fd5b82600260006101000a81548173ffffffffffffffffffffffffffffffffffffffff021916908373ffffffffffffffffffffffffffffffffffffffff1602179055507f9176b7f47e4504df5e5516c99d90d82ac7cbd49cc77e7f22ba2ac2f2e3a3eba8600260009054906101000a900473ffffffffffffffffffffffffffffffffffffffff1660405161049b9190612125565b60405180910390a1505050565b600260009054906101000a900473ffffffffffffffffffffffffffffffffffffffff1681565b600160009054906101000a900473ffffffffffffffffffffffffffffffffffffffff1681565b6000600160009054906101000a900473ffffffffffffffffffffffffffffffffffffffff1673ffffffffffffffffffffffffffffffffffffffff166302571be36000801b6040518263ffffffff1660e01b81526004016105549190612192565b60206040518083038186803b15801561056c57600080fd5b505afa158015610580573d6000803e3d6000fd5b505050506040513d601f19601f820116820180604052508101906105a49190611c48565b905060008173ffffffffffffffffffffffffffffffffffffffff16638da5cb5b6040518163ffffffff1660e01b815260040160206040518083038186803b1580156105ee57600080fd5b505afa158015610602573d6000803e3d6000fd5b505050506040513d601f19601f820116820180604052508101906106269190611c48565b90508073ffffffffffffffffffffffffffffffffffffffff163373ffffffffffffffffffffffffffffffffffffffff161461066057600080fd5b826000806101000a81548173ffffffffffffffffffffffffffffffffffffffff021916908373ffffffffffffffffffffffffffffffffffffffff1602179055507fb3eacd0e351fafdfefdec84e1cd19679b38dbcd63ea7c2c24da17fd2bc3b3c0e60008054906101000a900473ffffffffffffffffffffffffffffffffffffffff166040516106ef9190612125565b60405180910390a1505050565b60008054906101000a900473ffffffffffffffffffffffffffffffffffffffff1681565b60008054906101000a900473ffffffffffffffffffffffffffffffffffffffff1673ffffffffffffffffffffffffffffffffffffffff1663435cc16283836040518363ffffffff1660e01b815260040161077b929190612140565b600060405180830381600087803b15801561079557600080fd5b505af11580156107a9573d6000803e3d6000fd5b505050506040513d6000823e3d601f19601f820116820180604052508101906107d29190611cec565b90506107de83826107e3565b505050565b60006107f9600084610ab290919063ffffffff16565b60ff169050600061081660018386610b039092919063ffffffff16565b9050600061085360018461082a9190612409565b600185885161083991906124f7565b61084391906124f7565b87610b2f9092919063ffffffff16565b9050600260009054906101000a900473ffffffffffffffffffffffffffffffffffffffff1673ffffffffffffffffffffffffffffffffffffffff16634f89059e826040518263ffffffff1660e01b81526004016108b0919061220d565b60206040518083038186803b1580156108c857600080fd5b505afa1580156108dc573d6000803e3d6000fd5b505050506040513d601f19601f820116820180604052508101906109009190611c71565b61093f576040517f08c379a000000000000000000000000000000000000000000000000000000000815260040161093690612280565b60405180910390fd5b600061094c826000610bea565b9050600061097b60008054906101000a900473ffffffffffffffffffffffffffffffffffffffff168888611005565b5080915050600160009054906101000a900473ffffffffffffffffffffffffffffffffffffffff1673ffffffffffffffffffffffffffffffffffffffff166306ab59238386846040518463ffffffff1660e01b81526004016109df939291906121d6565b602060405180830381600087803b1580156109f957600080fd5b505af1158015610a0d573d6000803e3d6000fd5b505050506040513d601f19601f82011682018060405250810190610a319190611c9a565b508073ffffffffffffffffffffffffffffffffffffffff168285604051602001610a5c9291906120f9565b604051602081830303815290604052805190602001207fa2e66ce20e6fb2c4f61339c364ad79f15160cf5307230c8bc4d628adbca2ba3989604051610aa1919061220d565b60405180910390a350505050505050565b6000828281518110610aed577f4e487b7100000000000000000000000000000000000000000000000000000000600052603260045260246000fd5b602001015160f81c60f81b60f81c905092915050565b600083518284610b139190612409565b1115610b1e57600080fd5b818360208601012090509392505050565b606083518284610b3f9190612409565b1115610b4a57600080fd5b60008267ffffffffffffffff811115610b8c577f4e487b7100000000000000000000000000000000000000000000000000000000600052604160045260246000fd5b6040519080825280601f01601f191660200182016040528015610bbe5781602001600182028036833780820191505090505b5090506000806020830191508560208801019050610bdd828287611289565b8293505050509392505050565b600080610c008385610ab290919063ffffffff16565b60ff1690506000811415610c1a576000801b915050610fff565b6000610c3d8560018487610c2e9190612409565b610c389190612409565b610bea565b90506000610c62600186610c519190612409565b8488610b039092919063ffffffff16565b90508181604051602001610c779291906120f9565b6040516020818303038152906040528051906020012093506000600160009054906101000a900473ffffffffffffffffffffffffffffffffffffffff1673ffffffffffffffffffffffffffffffffffffffff166302571be3866040518263ffffffff1660e01b8152600401610cec9190612192565b60206040518083038186803b158015610d0457600080fd5b505afa158015610d18573d6000803e3d6000fd5b505050506040513d601f19601f82011682018060405250810190610d3c9190611c48565b9050600073ffffffffffffffffffffffffffffffffffffffff168173ffffffffffffffffffffffffffffffffffffffff161480610da457503073ffffffffffffffffffffffffffffffffffffffff168173ffffffffffffffffffffffffffffffffffffffff16145b610de3576040517f08c379a0000000000000000000000000000000000000000000000000000000008152600401610dda906122a0565b60405180910390fd5b3073ffffffffffffffffffffffffffffffffffffffff168173ffffffffffffffffffffffffffffffffffffffff1614610ffa576000801b831415610f46576000600160009054906101000a900473ffffffffffffffffffffffffffffffffffffffff1673ffffffffffffffffffffffffffffffffffffffff166302571be36000801b6040518263ffffffff1660e01b8152600401610e819190612192565b60206040518083038186803b158015610e9957600080fd5b505afa158015610ead573d6000803e3d6000fd5b505050506040513d601f19601f82011682018060405250810190610ed19190611c48565b90508073ffffffffffffffffffffffffffffffffffffffff16638cb8ecec84306040518363ffffffff1660e01b8152600401610f0e9291906121ad565b600060405180830381600087803b158015610f2857600080fd5b505af1158015610f3c573d6000803e3d6000fd5b5050505050610ff9565b600160009054906101000a900473ffffffffffffffffffffffffffffffffffffffff1673ffffffffffffffffffffffffffffffffffffffff166306ab59238484306040518463ffffffff1660e01b8152600401610fa5939291906121d6565b602060405180830381600087803b158015610fbf57600080fd5b505af1158015610fd3573d6000803e3d6000fd5b505050506040513d601f19601f82011682018060405250810190610ff79190611c9a565b505b5b505050505b92915050565b60008061101061193f565b611030600586516110219190612409565b826112ed90919063ffffffff16565b506110796040518060400160405280600581526020017f045f656e730000000000000000000000000000000000000000000000000000008152508261135790919063ffffffff16565b5061108d858261135790919063ffffffff16565b506000808773ffffffffffffffffffffffffffffffffffffffff1663087991bc601085600001516040518363ffffffff1660e01b81526004016110d19291906122e0565b60606040518083038186803b1580156110e957600080fd5b505afa1580156110fd573d6000803e3d6000fd5b505050506040513d601f19601f820116820180604052508101906111219190611e82565b9091508163ffffffff1691508093508192505050600060601b6bffffffffffffffffffffffff1916826bffffffffffffffffffffffff1916148015611167575060008651145b1561117b5760008094509450505050611281565b85805190602001206bffffffffffffffffffffffff1916826bffffffffffffffffffffffff1916146111ac57600080fd5b60006111c260008861137990919063ffffffff16565b90505b6111ce816113a3565b6112755742816080015163ffffffff16836111e9919061245f565b67ffffffffffffffff161015611234576040517f08c379a000000000000000000000000000000000000000000000000000000000815260040161122b906122c0565b60405180910390fd5b600080611245898460a001516113b9565b809350819250505081156112655780600197509750505050505050611281565b50506112708161143f565b6111c5565b50600080945094505050505b935093915050565b5b602081106112c857815183526020836112a39190612409565b92506020826112b29190612409565b91506020816112c191906124f7565b905061128a565b60006001826020036101000a0390508019835116818551168181178652505050505050565b6112f561193f565b6000602083611304919061275d565b1461133057602082611316919061275d565b602061132291906124f7565b8261132d9190612409565b91505b81836020018181525050604051808452600081528281016020016040525082905092915050565b61135f61193f565b61137183846000015151848551611589565b905092915050565b611381611959565b828160000181905250818160c001818152505061139d8161143f565b92915050565b6000816000015151826020015110159050919050565b6000805b83518310156114305760006113db8486610ab290919063ffffffff16565b60ff1690506001846113ed9190612409565b93506000806113fd878785611678565b8093508192505050811561141a5780600194509450505050611438565b82866114269190612409565b95505050506113bd565b600080915091505b9250929050565b8060c0015181602001818152505080600001515181602001511061146257611586565b6000611476826000015183602001516116e2565b82602001516114859190612409565b905061149e81836000015161178590919063ffffffff16565b826040019061ffff16908161ffff16815250506002816114be9190612409565b90506114d781836000015161178590919063ffffffff16565b826060019061ffff16908161ffff16815250506002816114f79190612409565b90506115108183600001516117b490919063ffffffff16565b826080019063ffffffff16908163ffffffff16815250506004816115349190612409565b9050600061154f82846000015161178590919063ffffffff16565b61ffff1690506002826115629190612409565b9150818360a0018181525050808261157a9190612409565b8360c001818152505050505b50565b61159161193f565b825182111561159f57600080fd5b846020015182856115b09190612409565b11156115e5576115e48560026115d5886020015188876115d09190612409565b6117e5565b6115df919061249d565b611801565b5b6000808651805187602083010193508088870111156116045787860182525b60208701925050505b6020841061164b57805182526020826116269190612409565b91506020816116359190612409565b905060208461164491906124f7565b935061160d565b60006001856020036101000a03905080198251168184511681811785525050508692505050949350505050565b60008063613d307861169385876117b490919063ffffffff16565b63ffffffff16146116aa57600080915091506116da565b602c8310156116bf57600080915091506116da565b6116d5856004866116d09190612409565b611825565b915091505b935093915050565b6000808290505b6001156117705783518110611727577f4e487b7100000000000000000000000000000000000000000000000000000000600052600160045260246000fd5b600061173c8286610ab290919063ffffffff16565b60ff16905060018161174e9190612409565b826117599190612409565b9150600081141561176a5750611770565b506116e9565b828161177c91906124f7565b91505092915050565b600082516002836117969190612409565b11156117a157600080fd5b61ffff8260028501015116905092915050565b600082516004836117c59190612409565b11156117d057600080fd5b63ffffffff8260048501015116905092915050565b6000818311156117f7578290506117fb565b8190505b92915050565b60008260000151905061181483836112ed565b5061181f8382611357565b50505050565b600080602883855161183791906124f7565b10156118495760008091509150611938565b6000808490505b60288561185d9190612409565b81101561192e57600482901b915060006118808288610ab290919063ffffffff16565b60ff169050603081101580156118965750603a81105b156118b1576030816118a891906124f7565b8317925061191a565b604181101580156118c25750604781105b156118dd576037816118d491906124f7565b83179250611919565b606181101580156118ee5750606781105b156119095760578161190091906124f7565b83179250611918565b60008094509450505050611938565b5b5b5080806119269061270a565b915050611850565b5080600192509250505b9250929050565b604051806040016040528060608152602001600081525090565b6040518060e001604052806060815260200160008152602001600061ffff168152602001600061ffff168152602001600063ffffffff16815260200160008152602001600081525090565b60006119b76119b284612335565b612310565b905080838252602082019050828560208602820111156119d657600080fd5b60005b85811015611a2057813567ffffffffffffffff8111156119f857600080fd5b808601611a058982611bb7565b855260208501945060208401935050506001810190506119d9565b5050509392505050565b6000611a3d611a3884612361565b612310565b905082815260208101848484011115611a5557600080fd5b611a60848285612697565b509392505050565b6000611a7b611a7684612361565b612310565b905082815260208101848484011115611a9357600080fd5b611a9e8482856126a6565b509392505050565b600081519050611ab581612919565b92915050565b600082601f830112611acc57600080fd5b8135611adc8482602086016119a4565b91505092915050565b600081519050611af481612930565b92915050565b600081519050611b0981612947565b92915050565b600081519050611b1e8161295e565b92915050565b600081359050611b3381612975565b92915050565b600082601f830112611b4a57600080fd5b8135611b5a848260208601611a2a565b91505092915050565b600082601f830112611b7457600080fd5b8151611b84848260208601611a68565b91505092915050565b600081359050611b9c8161298c565b92915050565b600081359050611bb1816129a3565b92915050565b600060408284031215611bc957600080fd5b611bd36040612310565b9050600082013567ffffffffffffffff811115611bef57600080fd5b611bfb84828501611b39565b600083015250602082013567ffffffffffffffff811115611c1b57600080fd5b611c2784828501611b39565b60208301525092915050565b600081519050611c42816129ba565b92915050565b600060208284031215611c5a57600080fd5b6000611c6884828501611aa6565b91505092915050565b600060208284031215611c8357600080fd5b6000611c9184828501611ae5565b91505092915050565b600060208284031215611cac57600080fd5b6000611cba84828501611b0f565b91505092915050565b600060208284031215611cd557600080fd5b6000611ce384828501611b24565b91505092915050565b600060208284031215611cfe57600080fd5b600082015167ffffffffffffffff811115611d1857600080fd5b611d2484828501611b63565b91505092915050565b600080600060608486031215611d4257600080fd5b600084013567ffffffffffffffff811115611d5c57600080fd5b611d6886828701611b39565b935050602084013567ffffffffffffffff811115611d8557600080fd5b611d9186828701611abb565b925050604084013567ffffffffffffffff811115611dae57600080fd5b611dba86828701611b39565b9150509250925092565b60008060408385031215611dd757600080fd5b600083013567ffffffffffffffff811115611df157600080fd5b611dfd85828601611b39565b925050602083013567ffffffffffffffff811115611e1a57600080fd5b611e2685828601611b39565b9150509250929050565b600060208284031215611e4257600080fd5b6000611e5084828501611b8d565b91505092915050565b600060208284031215611e6b57600080fd5b6000611e7984828501611ba2565b91505092915050565b600080600060608486031215611e9757600080fd5b6000611ea586828701611c33565b9350506020611eb686828701611c33565b9250506040611ec786828701611afa565b9150509250925092565b6000611edd83836120a6565b905092915050565b611eee8161252b565b82525050565b6000611eff826123a2565b611f0981856123c5565b935083602082028501611f1b85612392565b8060005b85811015611f575784840389528151611f388582611ed1565b9450611f43836123b8565b925060208a01995050600181019050611f1f565b50829750879550505050505092915050565b611f728161253d565b82525050565b611f8181612575565b82525050565b611f98611f9382612575565b612753565b82525050565b6000611fa9826123ad565b611fb381856123d6565b9350611fc38185602086016126a6565b611fcc8161281b565b840191505092915050565b6000611fe2826123ad565b611fec81856123e7565b9350611ffc8185602086016126a6565b6120058161281b565b840191505092915050565b6120198161262b565b82525050565b6120288161264f565b82525050565b61203781612673565b82525050565b600061204a6023836123f8565b91506120558261282c565b604082019050919050565b600061206d602a836123f8565b91506120788261287b565b604082019050919050565b6000612090603c836123f8565b915061209b826128ca565b604082019050919050565b600060408301600083015184820360008601526120c38282611f9e565b915050602083015184820360208601526120dd8282611f9e565b9150508091505092915050565b6120f3816125cf565b82525050565b60006121058285611f87565b6020820191506121158284611f87565b6020820191508190509392505050565b600060208201905061213a6000830184611ee5565b92915050565b6000604082019050818103600083015261215a8185611ef4565b9050818103602083015261216e8184611fd7565b90509392505050565b600060208201905061218c6000830184611f69565b92915050565b60006020820190506121a76000830184611f78565b92915050565b60006040820190506121c26000830185611f78565b6121cf6020830184611ee5565b9392505050565b60006060820190506121eb6000830186611f78565b6121f86020830185611f78565b6122056040830184611ee5565b949350505050565b600060208201905081810360008301526122278184611fd7565b905092915050565b60006020820190506122446000830184612010565b92915050565b600060208201905061225f600083018461201f565b92915050565b600060208201905061227a600083018461202e565b92915050565b600060208201905081810360008301526122998161203d565b9050919050565b600060208201905081810360008301526122b981612060565b9050919050565b600060208201905081810360008301526122d981612083565b9050919050565b60006040820190506122f560008301856120ea565b81810360208301526123078184611fd7565b90509392505050565b600061231a61232b565b905061232682826126d9565b919050565b6000604051905090565b600067ffffffffffffffff8211156123505761234f6127ec565b5b602082029050602081019050919050565b600067ffffffffffffffff82111561237c5761237b6127ec565b5b6123858261281b565b9050602081019050919050565b6000819050602082019050919050565b600081519050919050565b600081519050919050565b6000602082019050919050565b600082825260208201905092915050565b600082825260208201905092915050565b600082825260208201905092915050565b600082825260208201905092915050565b6000612414826125fd565b915061241f836125fd565b9250827fffffffffffffffffffffffffffffffffffffffffffffffffffffffffffffffff038211156124545761245361278e565b5b828201905092915050565b600061246a82612617565b915061247583612617565b92508267ffffffffffffffff038211156124925761249161278e565b5b828201905092915050565b60006124a8826125fd565b91506124b3836125fd565b9250817fffffffffffffffffffffffffffffffffffffffffffffffffffffffffffffffff04831182151516156124ec576124eb61278e565b5b828202905092915050565b6000612502826125fd565b915061250d836125fd565b9250828210156125205761251f61278e565b5b828203905092915050565b6000612536826125dd565b9050919050565b60008115159050919050565b60007fffffffffffffffffffffffffffffffffffffffff00000000000000000000000082169050919050565b6000819050919050565b60007fffffffff0000000000000000000000000000000000000000000000000000000082169050919050565b60006125b68261252b565b9050919050565b60006125c88261252b565b9050919050565b600061ffff82169050919050565b600073ffffffffffffffffffffffffffffffffffffffff82169050919050565b6000819050919050565b600063ffffffff82169050919050565b600067ffffffffffffffff82169050919050565b60006126368261263d565b9050919050565b6000612648826125dd565b9050919050565b600061265a82612661565b9050919050565b600061266c826125dd565b9050919050565b600061267e82612685565b9050919050565b6000612690826125dd565b9050919050565b82818337600083830152505050565b60005b838110156126c45780820151818401526020810190506126a9565b838111156126d3576000848401525b50505050565b6126e28261281b565b810181811067ffffffffffffffff82111715612701576127006127ec565b5b80604052505050565b6000612715826125fd565b91507fffffffffffffffffffffffffffffffffffffffffffffffffffffffffffffffff8214156127485761274761278e565b5b600182019050919050565b6000819050919050565b6000612768826125fd565b9150612773836125fd565b925082612783576127826127bd565b5b828206905092915050565b7f4e487b7100000000000000000000000000000000000000000000000000000000600052601160045260246000fd5b7f4e487b7100000000000000000000000000000000000000000000000000000000600052601260045260246000fd5b7f4e487b7100000000000000000000000000000000000000000000000000000000600052604160045260246000fd5b6000601f19601f8301169050919050565b7f506172656e74206e616d65206d7573742062652061207075626c69632073756660008201527f6669780000000000000000000000000000000000000000000000000000000000602082015250565b7f43616e6e6f7420656e61626c652061206e616d65206f776e656420627920736f60008201527f6d656f6e6520656c736500000000000000000000000000000000000000000000602082015250565b7f444e53207265636f7264206973207374616c653b2072656672657368206f722060008201527f64656c657465206974206265666f72652070726f63656564696e672e00000000602082015250565b6129228161252b565b811461292d57600080fd5b50565b6129398161253d565b811461294457600080fd5b50565b61295081612549565b811461295b57600080fd5b50565b61296781612575565b811461297257600080fd5b50565b61297e8161257f565b811461298957600080fd5b50565b612995816125ab565b81146129a057600080fd5b50565b6129ac816125bd565b81146129b757600080fd5b50565b6129c381612607565b81146129ce57600080fd5b5056fea264697066735822122082bc353166cac87e6ebd39e34f5684bb220bb15e0fec60ce53b80028a977641364736f6c63430008040033",
  "linkReferences": {},
  "deployedLinkReferences": {}
}